:020000040020DA
:10000000F87F0020F9002000ED352000ED352000BC
:10001000ED352000ED352000ED352000ED352000D8
:10002000ED352000ED352000ED352000ED352000C8
:10003000ED352000ED352000ED352000ED352000B8
:10004000ED352000ED352000ED352000ED352000A8
:10005000ED352000ED352000ED352000ED35200098
:10006000ED352000ED352000ED352000ED35200088
:10007000ED352000ED352000ED352000ED35200078
:10008000ED352000ED352000ED352000ED35200068
:10009000ED352000ED352000ED352000ED35200058
:1000A000ED352000ED352000ED352000ED35200048
:1000B000ED352000ED352000ED352000ED35200038
:1000C000ED352000ED352000ED352000ED35200028
:1000D000ED352000ED352000ED352000ED35200018
:1000E000ED352000ED352000ED352000ED35200008
:1000F000ED352000ED352000404020210906074A5B
:10010000086004319142FBDB00F00AF800F0D0F9FE
:1001100001B403F083FD01F051FB0000DC0A002074
:1001200010B5074C54F8043CB3F1FF3F06D0043C33
:10013000984754F8043DB3F1FF3FF9D110BD00BF1B
:04014000243D20003A
:10014400F0B58B6881B004460D461746002B2BD0C2
:1001540023602B68002623616B6866612362A661B5
:10016400E4616662A662E968204602F07DFAEB6803
:10017400A2686660D218A2F140034FF0807142F881
:10018400401C0B4A01A942F001029A6347F00102A4
:10019400DA63204641F8047DE36069464FF4A052D7
:1001A40002F048FC01B0F0BD024B1B68D0E700BF71
:1001B400B117200070000020294B30B5186844683E
:1001C4002246002C47D063683F2B07D8302B11D030
:1001D400D268002A3FD053683F2BF7D9303B536095
:1001E400C1683039C16053B112683021D018D15080
:1001F400043030BD00235360C1683039C1600168E8
:1002040001290BD0956875B1D468BCB1EC60D2F803
:100214000CC00139CCF808500160E5E700214160C9
:1002240081600160E0E70029DED0D4F80CC0013918
:10023400C0F804C00160CCF80850D5E70029D3D039
:10024400D0F808C00139DCF808C00160C0F808C063
:10025400CCF80C40C8E701F0B7FA0020C9E700BFAA
:1002640048000020F0B58AB000240894089B4FF49D
:10027400A0570193009402940397FFF79DFF40F267
:100284000C12C0F2200269460546FFF759FF6FF0D1
:1002940000430993099B0126059304960694079746
:1002A400FFF78AFF42F60912C0F2200204A9FFF701
:1002B40047FF40F29403C2F200031E70E86803F0A3
:1002C400E5FB0AB0F0BD00BF2DE9F0076B4E736883
:1002D400002B76D05968002973D0DFF8A481B24688
:1002E400002700225A60F268D8F80050521AF260CF
:1002F4005A68BAB9DAF80040012C76D09868002818
:1003040000F09B80D3F80CC0BCF1000F00F0A58076
:10031400C0F80CC0DA689060DAF80020013ACAF834
:1003240000205A681C68A41849D00F2947D9616075
:100334002460A760E760EB6859186B68E960D4F83B
:1003440000C06068002B40D0D3F80090604448455A
:100354000CBF1A461A4604D0D26812B111688842FA
:10036400FAD159688944CC4507D0DB68002B2BD0DF
:100374001868596841188C45F7D119461346CBB112
:1003840060685A68821862602868012802BF6F603A
:10039400AF602F600ED09A68002A2ED0D3F80CC01C
:1003A400BCF1000F33D0C2F80CC0DB689A602B6834
:1003B400013B2B6019B14A686368D3184B607368BA
:1003C40073B9BDE8F007704713462968002929D19D
:1003D400A160E1602A686C600132AC602A60CEE7FB
:1003E400596800297FF47DAFEBE7CAF80020CAF80A
:1003F4000420CAF808205A6894E70028DAD06B6809
:10040400DB686B609A602B68013B2B60D2E70028A5
:10041400D0D0AB689B68AB60C3F80CC02B68013BC1
:100424002B60C7E7AA683946D460AA68E760A2606F
:100434002A68AC6001322A60A1E7002C3FF472AF55
:10044400DAF80400C068CAF804008260DAF8002010
:10045400013ACAF800205A6864E7002C3FF462AFFE
:10046400DAF808008068CAF80800C260DAF80020E8
:10047400013ACAF800205A6854E700BFCC0A0020A9
:100484004800002040F21403C2F200030A204FF097
:10049400FF310022596018601A7240F20803C2F258
:1004A4000003596018601A72704700BF2DE9F04FBD
:1004B400ADF58F6D0E99DFF8580B01F07F410E9169
:1004C4000F99002201F07F410F9111998DF8362088
:1004D40001F07F41119112998DF8372001F07F418D
:1004E400129100F11401CDF85414DFF8281B8DF893
:1004F4003B208DF83F208DF842208DF843208DF865
:1005040047208DF84B200C900DF58A64086804345C
:100514004FF0FF31ADF83420ADF84020CDF84C2435
:10052400ADF85C24CDF86024CDF864048DF868142B
:100534008DF86914CDF86C248DF87024CDF85844E6
:1005440002F08EFCDDF8640448F23C630B22C4F232
:1005540008031A600368026121461B6841F2100215
:100564009847DDF8640402F05DFC10A9019141F2A2
:100574000C03C4F203031A680CAD22F001021A60E2
:1005840042F20802C4F20D02116841F21C0641F065
:100594000201116042F20C02C4F20D0211682F1D17
:1005A40041F00201116041F20002C4F20302002191
:1005B400116041F20402C4F203020131116041F2FC
:1005C400280244F60001C4F20302C0F2E8111160EB
:1005D40041F22402C4F203024FF0FF3111601A68A1
:1005E400C4F2030642F001021A60B94605F10B0495
:1005F4003368002B40F002812B6828461B6839467B
:1006040098470028F4D00CAB002219790133521812
:10061400A342D2B2F9D153429DF83F10DBB29942C2
:10062400E6D1BDF83430002BE2D19DF83630772B7B
:10063400DED0612B14BF00220122682B08BF42F0D8
:1006440001021AB9482B01D0652BD1D19DF837206E
:100654000E9952EA0121CBD19DF83B200F9952EA21
:100664000122C5D1682BC3D141F20C03C4F20303A8
:10067400196821F0010119604FF00103ADF834301D
:1006840048238DF83630134619F8031001335218F5
:100694000B2BD2B2F8D10CA9524251F8043B8DF87D
:1006A4003F205B680CA898470C9B0CA81B6810A9FA
:1006B40098470028F8D00CAB0022197C013352185B
:1006C4009C42D2B2F9D153429DF84B10DBB299420D
:1006D400EAD1BDF84030022BE6D19DF84230772BA9
:1006E40018D0612B14BF00220122682B08BF42F0EE
:1006F40001021AB9482B01D0652BD5D19DF843309E
:10070400119A53EA0222CFD19DF84730129A53EA44
:100714000222C9D10C9B10AA5B6800920CA8114656
:1007240098479DF84230652B00F0BC810CAB043334
:10073400DFF8E478032402930C9B0CA81B6802994D
:1007440098470028F8D00022134619F80310013303
:1007540052180B2BD2B2F8D153429DF83F00DBB2B2
:10076400834200F0C1800022134619F803100133BC
:1007740052180B2BD2B2F8D15342DBB29842DBD1E0
:10078400BDF834C06445CDF820C0D5D19DF83630CD
:10079400772B18D0612B14BF00220122682B08BFCD
:1007A40042F001021AB9482B01D0652BC4D19DF83F
:1007B40037300E9A53EA0222BED19DF83B300F9A8D
:1007C40053EA0222B8D10CA951F8043B0CA85B6887
:1007D40098479DF84230772B00F002829DF836301E
:1007E400652B00F033820CAA131D93E80700009BCD
:1007F40083E807000898441CA4B29DE741F20C0367
:10080400C4F203031A6822F001021A6044F20403DA
:10081400C0F220031A6844F20803C0F220031868E7
:100824004FF401131968A2F50112984234BF002352
:100834000123B2F5F72F2CBF002303F00103002B93
:100844003FF495AE4FF2FF7240F20303C0F2270269
:10085400C2F2000390428CBF00220122994294BF4D
:10086400002302F00103002B3FF481AE47F6F87336
:10087400C2F2000399423FF67AAEDFF8A037DFF800
:1008840090170024CDF854340C91CDF8644402F050
:1008940017FF03F0C1F94FF6FE73CDF87444C0F2AC
:1008A4001F03DDF874249A4205D8DDF8742401325C
:1008B400CDF87424F5E772B647F6FC73C2F2000370
:1008C4002A221A604FF401131B689D46BFF36F8FF1
:1008D40044F20403C0F220031B68984700201EB0B2
:1008E4000DF5806DBDE8F08F631EBDF834209BB21A
:1008F4009A427FF438AF9DF83630772B1BD0612BAA
:1009040014BF00220122682B08BF42F0010222B961
:10091400482B02D0652B7FF426AF9DF837300E9A12
:1009240053EA02227FF41FAF9DF83B300F9A53EA3B
:1009340002227FF418AF0CA951F8043B0CA85B68A1
:1009440098479DF83630652B06D0029B93E8070044
:10095400019B83E80700EFE6DDF84C44002C3FF4EC
:1009640055AFDDF85034A4001B1B4FF04808029328
:10097400A3F50015D8F8043098472B19834200F2E8
:100984008F82029AED0A1419A4F50013013BDB0AC5
:100994009D4208940395079300F2858205F58063D0
:1009A4000133DB02DFF87076059305F50063FB186D
:1009B400049305F5806B0CAB4FEACB2B03F11C0AB7
:1009C4000398059901300390DDF810C00898029A45
:1009D400884228BF08469CF80030861AB608072BC0
:1009E40000F29F83002E00F00284DAF800301268CF
:1009F40003EA0202934240F094830023DDF808C026
:100A040008E05AF823205CF8231002EA01018A4224
:100A140040F0878301339E42F3D84FEA8609D8F821
:100A240010304A465046029998470023CDF818B032
:100A3400029CCB465546B9461F460AE00299BD00C2
:100A44006C185544F21BD8F8103092002846214601
:100A5400984723682A689342F0D107F1010C029861
:100A64004FEA8C02141852446645674600F24C83E0
:100A74004F46D946DDF818B00499059A0B780398C7
:100A8400013301F8013B079B02F5006283420491A4
:100A940005920BF5006BC0F006820299CA444944E2
:100AA40002918DE7DDF84C44002C3FF4AFAEDDF845
:100AB4005034A4001B1B4FF048080293A3F5001503
:100AC400D8F8043098472B19834200F2E981029840
:100AD400ED0A0419A4F50013013BDB0ADFF83875AD
:100AE400079305F50063FB18049305F58063013350
:100AF400DB0205F5806B0CA90694039505934FEA78
:100B0400CB2B01F11C0A079803998842C0F0CB81D2
:100B1400039A069B013203920598049A029998421B
:100B240028BF18461378451AAD08072B00F27683C0
:100B3400002D00F0DB83DAF800300A6803EA0202D1
:100B4400934240F06B8300238C4608E05AF823203C
:100B54005CF8231002EA01018A4240F05F8301330A
:100B64009D42F3D84FEA8509D8F810304A465046DA
:100B7400029998470023CDF82090029CB946564626
:100B84001F460AE00298BE0034185644EA1BD8F8FF
:100B940010309200304621469847236832689342C9
:100BA400F0D107F1010C02984FEA8C021418524458
:100BB4006545674600F225834F46DDF82090049989
:100BC400029A0B784A44013301F8013B059B0491D6
:100BD40003F500630292CA4405930BF5006B92E798
:100BE400119A9DF8433043EA0223A3F50112B2F5AA
:100BF400F72FBFF4F3ADDDF84C44FF2C00F25B811A
:100C0400002C00F05481DDF85024934200F0BA80A7
:100C1400DDF84C44002C40F04E819DF84330119A8D
:100C2400DDF848C043EA0222DDF84C349DF8470061
:100C3400D91D013340EA0C20CDF84C340DF1300CB1
:100C4400131D4CF82100CDF85034C7E5DDF84C44B1
:100C5400002C3FF4DBADDDF85034A4001B1B4FF037
:100C640048080293A3F50015D8F8043098472B19C7
:100C7400834200F215810298ED0A0419A4F50013C9
:100C8400013BDB0AE44F089305F50063FB1804936A
:100C940005F580630133DB0205F5806B0CA906942E
:100CA400039505934FEACB2B01F11C0A089803998D
:100CB4008842C0F0F880039A059B0132039206989B
:100CC400049A0299984228BF18461378461AB6081F
:100CD400072B75D8002E00F0DB80DAF800300A68A4
:100CE40003EA020293426BD100238C4607E05AF8D0
:100CF40023205CF8231002EA01018A4260D1013307
:100D04009E42F4D84FEA8609D8F810304A46504635
:100D1400029998470023CDF81CB0029CCB46554657
:100D2400B9461F460BE0029BBC000AEB0405E4181D
:100D3400F21BD8F8103092002846214698472368C1
:100D44002A689342EFD107F1010C02984FEA8C0212
:100D5400141852446645674626D84F46D946DDF8EE
:100D64001CB00499029A0B784A44013301F8013B00
:100D7400059B049103F500630292CA4405930BF5A5
:100D8400006B93E712999DF84720E31D42EA012284
:100D94000CA941F82320DDF8503401340433CDF894
:100DA4004C44CDF8503419E5234653F8040B15464A
:100DB40052F8041B8842BBD11C460CF1010CC9E754
:100DC4000299059AB1EB0B0318BF012390420CBFA3
:100DD400184643F0010038B1002353F80B20FA50B1
:100DE4000433B3F5006FF8D1DDF810C04FF0000301
:100DF4008CF80030D8F80C305846012198470298F6
:100E0400CBEB00029208002E40D007EB82024FEA9F
:100E1400860900235AF8031004334B4542F8041B97
:100E2400F8D1D8F810307C4859464FF400620025B8
:100E340098475C462E4607E0C5F50072D8F8103096
:100E4400B819920021469847226857F825309A42EB
:100E540018BF06EB0B04EFD140F2AC02691CC2F2DE
:100E640000020BEB8104961940F2FF1399420D46E0
:100E74003FF677AF234653F8040B56F8042F9042FD
:100E840001D0AE00D8E71C460131EDE7B146C8E712
:100E9400D8F810305046029932469847B14660E778
:100EA400D8F8043098470023CDF84C34AEE4CDF89C
:100EB40050341A46A9E6DDF85034A4001B1B4FF049
:100EC40048080393A3F50015D8F8043098472B1964
:100ED400834200F21581039AED0A1419A4F5001354
:100EE400013BDB0A0A9305F50063FB18059305F53E
:100EF40080630133DB02069305F58063DB020DF1A9
:100F0400300C079404950CF11C0A9B46CDF82C90E8
:100F14000A9A049B9A42C0F0ED8004980699013025
:100F24000490DDF814C00798039A884228BF084645
:100F34009CF80030861AB608072B71D8002E00F0F2
:100F4400D180DAF80030126803EA0202934267D1D2
:100F54000023DDF80CC007E05AF823205CF82310C6
:100F640002EA01018A425BD101339E42F4D84FEA7E
:100F74008609D8F8103050464A460399984700230A
:100F84005546CDF824B0039CCB46D1469A460DE095
:100F9400039A4FEA8A0409EB0405A418CAEB060273
:100FA400D8F81030920028462146984723682A68CA
:100FB4009342EDD10AF1010C039B4FEA8C02D41841
:100FC4004A446645E24617D8CA46D946DDF824B0F5
:100FD400DDF814C003989CF80030069901330CF82E
:100FE400013B484401F50061CDF814C00390CA44A4
:100FF40006910BF5006B8BE7234653F8040B15465B
:1010040052F8041B8842C9D11C460CF1010CD8E7E4
:101014004C3C2000A4000020AC0000206C3C2000CC
:101024000399069AB1EB0B0318BF0123904218BF32
:1010340043F001033BB1002353F80B20FA5004336F
:10104400B3F5006FF8D1DDF814C04FF000038CF84D
:101054000030D8F80C305846012198470398CBEB60
:1010640000029208002E3BD007EB82024FEA860969
:1010740000235AF8031004334B4542F8041BF8D1FB
:10108400D8F810309D4859464FF40062002598471F
:101094005C462E4607E0C5F50072D8F81030B81942
:1010A400920021469847226857F825309A4218BF83
:1010B40006EB0B04EFD1691C0BEB8104BE1940F263
:1010C400FF1291420D4683D8234653F8040B56F879
:1010D400042F904201D0AE00DDE71C460131EEE75B
:1010E400B146CDE7D8F810305046039932469847B8
:1010F400B1466DE7DDF82C900023CDF84C348CE537
:10110400D8F804309847F7E7234653F8040B1546FC
:1011140052F8041B88427FF495AC1C460CF1010C78
:10112400A2E40299059ABBEB010318BF0123824292
:101134000CBF184643F0010038B1002353F80B20CC
:10114400FA500433B3F5006FF8D1DDF810C04FF056
:1011540000038CF80030D8F80C3058460121984729
:101164000298CBEB00029208002E48D007EB8202D3
:101174004FEA860900235AF8031004334B4542F81A
:10118400041BF8D1D8F810305C4859464FF400627B
:10119400002598475C462E4607E0C5F50072D8F84E
:1011A4001030B819920021469847226857F8253024
:1011B4009A4218BF0BEB0604EFD140F2AC02691C53
:1011C400C2F200020BEB8104961940F2FF1399421C
:1011D4000D463FF651AC234653F8040B56F8042F42
:1011E400904201D0AE00D8E71C460131EDE7D8F8B3
:1011F40010305046029932469847B1463CE4B14615
:10120400C0E7234653F8040B164652F8041B8842E1
:101214007FF4BCAC1C460CF1010CC9E40299059A9C
:10122400BBEB010318BF012382420CBF184643F0F5
:10123400010038B1002353F80B20FA500433B3F5FE
:10124400006FF8D1DDF810C04FF000038CF80030C7
:10125400D8F80C305846012198470298CBEB00028D
:101264009208002D40D007EB82024FEA8509002343
:101274005AF8031004334B4542F8041BF8D1D8F84C
:1012840010301E4859464FF40062002598475C46CA
:101294002E4607E0C5F50072D8F81030B819920050
:1012A40021469847226857F825309A4218BF0BEB1D
:1012B4000604EFD140F2AC02691CC2F200020BEB4F
:1012C4008104961940F2FF1399420D463FF677AC1C
:1012D400234653F8040B56F8042F904201D0AE0075
:1012E400D8E71C460131EDE7A946C8E7D8F8103025
:1012F400504602992A469847A94660E4AC0000206B
:10130400A0F12400A0F5806000E000BFD3F88C2099
:1013140000B50C2A05D0D0F83404194601F094FE27
:1013240000BDD0F83C24002AF5D1C0F83C34F7E7DE
:1013340030B590F8403482B004460D465BB91C4683
:10134400285D013402F032FA0C2CF9D1032002F0AA
:101354001DFA02B030BD02AA41F2100322F8023D88
:101364000C23D0F8340404F5876100932B4602F073
:1013740003F9002384F84034EBE700BFD0F83C3491
:1013840010B50446C3B10C3308460C22194600F0CC
:101394001FFAD4F83C14D4F834040B7A84F83834A3
:1013A4004B7A84F8393401F04FFE00230120C4F84D
:1013B4003C3484F8400410BD08460C2102F0A0F926
:1013C4000C2814BF00200120F5E700BF30B500F061
:1013D4004BFAB6494B68002B00F05C815A6843F61F
:1013E4000F40824209D8B2F5705F06D0DB68002B4B
:1013F40000F050815A688242F5D9A2F570525A60C1
:10140400CA68AA48A2F57052CA605A6892B90468B8
:10141400012C00F0F2809968002900F02181DD6838
:10142400002D00F02B81CD60DA6891600268013AEA
:1014340002605A681968DFF878C200238C18CCF867
:101444000030CCF80430CCF80830CCF80C304CD058
:101454004FF470508C506060A360E360DCF80C3093
:101464001B18CCF80C30DCF8043051F802E060684A
:10147400002B00F0AA801D687044A8420CBF1A46D5
:101484001A4604D0D26812B111688842FAD1596858
:101494006D18AE4508D0DB68002B00F09580186805
:1014A400596841188E45F6D119461346C3B1606890
:1014B4005A6882186260DCF80000012800F0958008
:1014C4009A68002A00F09E80DD68002D00F0A98053
:1014D400D560DB689A60DCF80030013BCCF8003062
:1014E40019B14A686368D3184B60724BC3F800C0E3
:1014F40000F0B8FA00F084FB45F24003C4F20D0397
:101504001A6845F24403C4F20D03186845F248030F
:10151400C4F20D03196845F24C03C4F20D03090427
:101524001B6801EB0021891801EB0361624B1B6806
:10153400C918624B1B681A7F002A40F09D805C7FAB
:10154400003C18BF012447F20800C4F20D000368F0
:1015540047F2000223F0FF0343F0B0030360C4F238
:101564000D02136813F0800FFBD044F66D62C4F2D1
:10157400C61202FB01F101F540513931B1F1FF3FCF
:1015840028BF013147F21000C4F20D0084EA0103C0
:10159400D0F800C002FB03F347F20C00C4F20D00C4
:1015A400006803F54053C0F385010CF0FF023933A2
:1015B40041EA821242F30D02B3F1FF3F28BF013327
:1015C40053403F4A136030BD1346DCF80010002935
:1015D40036D1A160E160DCF80020CCF8044001328F
:1015E400CCF80840CCF8002060E70023CCF80430A5
:1015F400CCF80830CCF8003072E7426082600260B8
:101604005A6817E700283FF46BAFDCF80430DB6856
:10161400CCF804309A60DCF80030013BCCF80030A0
:101624005EE700283FF45CAFDCF808309B68CCF838
:101634000830DD60DCF80030013BCCF800304FE7C7
:10164400DCF808200021D460DCF80820E160A26006
:10165400DCF80020CCF808400132CCF8002025E763
:10166400002C3FF4E7AE4168C96841608A600268B3
:10167400013A02605A68DDE6012464E7002C3FF475
:10168400D9AE816889688160CA600268013A0260E3
:101694005A68CFE6DFF818C00023CCF80030CCF845
:1016A4000430CCF80830CCF80C301EE7CC0A00200B
:1016B4003800002048000020AC090020A4000020CD
:1016C4004C00002010B54CF2000340F29804C2F222
:1016D4000004C4F20003236000F05EF942F2280320
:1016E400C4F20D031A68082142F001021A6042F2A2
:1016F4002C03C4F20D031A68112042F001021A608F
:1017040044F204020023C4F20D02136044F2840282
:10171400C4F20D02116044F28002C4F20D0213609F
:1017240044F20012C4F20D02136049F22042C4F2E2
:101734000D02116841F0030111602268116B21F060
:101744000101116322684FF0FF31516422689363F1
:101754002268506222680520906222687020D0625C
:101764002068026B42F4407242F001020263226874
:101774003020906340F2A002C2F20002136040F2F3
:101784009C02C2F20002136040F22C02C2F2000278
:101794000A2051601060137240F22002C2F200026B
:1017A40010605160137210BD704700BF00B5004651
:1017B40001F0A2F900BD00BF00B501F09DF900BD24
:1017C40000B501F049FF00BD00B5FFF7F9FF00BD0A
:1017D4000F2A30B405460C4642D941EA000313F0FF
:1017E400030F02BF14468C46034609D0002314F8A5
:1017F40003C005F803C001339A42F8D130BC7047E6
:10180400DCF80050103C1D60DCF804505D60DCF82E
:1018140008509D60DCF80C500CF1100CDD601033A6
:101824000F2CEDD8A2F1100404F00F0224F00F04E1
:10183400103405190C19032A12D9002354F803C0D3
:1018440045F803C00433C3EB020CBCF1030FF5D815
:10185400043A22F003030433ED18E41802F00302FF
:10186400002AC3D1CAE700BF00B500F001F800BDEB
:10187400DFF81CC146F6F832C2F20002CCEB0202D9
:1018840070B4002A4AD00023424DCCF800C0CCF8F2
:101894000420CCF80830CCF80C30EB686446D3183C
:1018A400EB606B68002B3CD01E680CEB8200B042EE
:1018B4000CBF1A461A4604D0D26812B11168884285
:1018C400FAD1596806EB8106B44208D0DB68002BD4
:1018D40026D05868196801EB80018C42F6D119466C
:1018E4001346ABB1DCF804005A688218CCF8042023
:1018F4002C68284A012C23D09868002825D0DD685C
:10190400002D3AD0C560DB6898601368013B136012
:1019140021B14A68DCF80430D3184B6070BC7047BE
:1019240013462A681B48D2B90121CCF80820CCF808
:101934000C200160C0F804C0C0F808C01146D0E70C
:101944000023536093601360E2E7002CE0D05368F7
:10195400DB68536098601368013B1360D8E78168C3
:101964000132C1F80CC08168CCF808100021CCF811
:101974000C10C0F808C00260B3E7002CC8D093680C
:101984009B689360DD601368013B1360C0E700BF90
:10199400DC0A0020CC0A00202B480378002B52D10B
:1019A4004CF22042C4F20D0213684FF0010C23F0F4
:1019B400400313604CF20043C4F20D03196821F094
:1019C4004001196044F2F801C4F20D01C1F800C0ED
:1019D400116821F0800111601A6822F080021A60F7
:1019E40044F2FC03C4F20D0342F20002C3F800C047
:1019F400C4F20D0211684FF6F873CFF6DC6301EA06
:101A0400030343F4081342F204011360C4F20D010A
:101A14000A6840F20003C0F2011302EA0303002B38
:101A2400F6D142F20003C4F20D031A6822F4E06214
:101A34001A6042F20402C4F20D02136813F0806FBC
:101A4400FBD00123037070475000002000B5FFF75E
:101A5400A3FF42F29803C4F20D031A6842F0010294
:101A64001A6000BD00B5FFF7F1FF00F0B1FC00F013
:101A74000BF800F07BF800F001F800BD00B5002081
:101A840000F05EFB00BD00BF4EF210034EF21802E0
:101A9400CEF200030021CEF20002196011604EF272
:101AA4001402CEF200024FF4FA41116006221A60C9
:101AB40043F27D6140F6B012C2F20002C0F220018E
:101AC400D1631A6842F001021A607047244B022263
:101AD40024491A6000230B6023490B6049F2380340
:101AE400C4F208031A6049F24002C4F20802082151
:101AF4001160032119600421116049F24802C4F203
:101B04000802106840F080001060196049F24C032C
:101B14002022C4F208031A6049F25003C4F20803F5
:101B24001A6842F080021A601A6812F0010F1EBF90
:101B34001A6842F010021A6049F21C03C4F2080346
:101B440005221A6049F22403C4F2080301221A6030
:101B540049F22C03C4F2080304221A60704700BF40
:101B640054000020C00A0020BC0A002000B5FFF782
:101B740013FF4BF22043C4F20D031A6822F004024F
:101B84001A604BF20043C4F20D031A6842F00402D7
:101B94001A604BF21003C4F20D03FF221A6049F2DB
:101BA4003C02C4F20802136843F001031360136893
:101BB40043F002031360136813F0800FFBD049F263
:101BC4000403C4F208031A6822F001021A60FFF742
:101BD4007DFF084B01221A60074A084BC3F8F02026
:101BE4004EF20413CEF200034FF480521A6062B630
:101BF40000BD00BF5400002051392000B00900206E
:101C040000B500F00DFC00F001F800BD10B5324B3A
:101C1400186841680B46002959D04A68272A07D812
:101C2400182A05D0DB68002B51D05A68272AF7D927
:101C3400183A5A60C268183AC2605A6892B9D0F821
:101C440000C0BCF1010F21D09C68002C26D0D968BB
:101C540000292FD0E160DA680CF1FF3CC0F800C025
:101C640094605A68196818208B188850043301212D
:101C740019721A4900221A6019610A2218495A6015
:101C8400086840B1DA60174A136010BD0260426010
:101C940082605A68E6E70B605A68F3E7BCF1000F0C
:101CA400E0D0C9680CF1FF3CC0F800C041608A6014
:101CB4005A68D7E7BCF1000FD4D081680CF1FF3C1F
:101CC4008968C0F800C08160CA605A68CAE7FFF733
:101CD4007BFD0023CBE700BF480000202D2A200015
:101CE400B00A0020740000202DE9F001466894B287
:101CF4000023CB600C8149600F1D002E22D0D0F848
:101D04000880B8F80430A34222D8D8F808308BB140
:101D14004546B3F804C0A44507D9CDB10136AF6038
:101D24004660CB60BDE8F00170479A6812B11D4669
:101D34001346EEE7C36801369F600023CB6046601C
:101D4400C760EFE70123CE6043608760C760E9E7BF
:101D54000136C1F80C8046608760E3E710B444683C
:101D6400012C17D0836801F1040C9C4517D04BB1AA
:101D74009A682AB1944503D013469268002AF9D18F
:101D8400CA689A60C268944508BFC360013C446055
:101D940010BC704700238360C3604360F8E7002CE5
:101DA400F6D0CB68013C83604460F1E7F0B5846809
:101DB400064617468DB29CB1002001E0A46874B1B8
:101DC400A388AB42FAD12068314603682A46D3F887
:101DD40000C03B46E047A4680120002CF0D1F0BDD0
:101DE4002046FCE7836889B27BB1002001E09B6850
:101DF40043B1B3F804C08C45F9D122B918689B6883
:101E0400002BF6D17047013AF1E71846FAE700BF14
:101E1400DFF824C32DE9F045C0F800C042F2A80E53
:101E24004FF0000CC0F804C0C0F808C0C0F80CC0E3
:101E3400C4F20D0EDEF8004048F28C6544F0010453
:101E4400CEF8004042F2AC0EC4F20D0EDEF80040B3
:101E5400C4F2080544F00104CEF8004048F290644E
:101E640048F2586EC4F20804C4F2080EF826C5F805
:101E740000C0C4F800C0CEF8006048F2E87EC4F2A6
:101E8400080E0926CEF8006048F2C86EC4F2080EA7
:101E94001526CEF8006048F6040EC4F2080E0B2690
:101EA400CEF8006048F2B86EC4F2080E0126CEF8EF
:101EB400006048F6380EC4F2080EEE27CEF8007023
:101EC400ED27CEF8007048F2086EC4F2080EDEF872
:101ED40000704FF0D50A27F00107CEF8007048F2E1
:101EE400006EC4F2080EDEF8007027F00107CEF889
:101EF400007048F2246EC4F2080EDEF8007027F079
:101F04002007CEF80070DEF8007047F04007CEF8E6
:101F1400007048F22867C4F20807D7F8008028F058
:101F24000108C7F8008048F28C57C4F20807C7F8C4
:101F340000C048F25067C4F208074FF0FF08C7F822
:101F4400008048F24067C4F20807C7F800A0DEF832
:101F5400007027F00C07CEF8007048F2947EC4F2AB
:101F6400080ECEF8008048F6340EC4F2080ECEF8FF
:101F740000C048F6300EC4F2080ECEF800C048F691
:101F84002C0EC4F2080ECEF800C04FF0040EC5F8B3
:101F940000E0DFF8A8E1C4F800C0C0F800E0A0F851
:101FA400442083648161C0F820C0C0F824C0C0F814
:101FB40028C0C0F82CC0C0F830C0C0F834C0C0F885
:101FC40038C0C0F83CC0C0F840C0C0F84CC0C0F82D
:101FD40050C01F6862463B464FF0020E644680259F
:101FE40046F0400C591C83F801C091F801C00CF074
:101FF400FC0C6EF3830C0CF0CC0C6EF3871C81F894
:1020040001C08118043283F88040C3F88440C3F8C7
:102014008840C3F88C50C3F89030C3F89440C3F898
:102024009830C3F89C40C1F89430A033402AD7D1EB
:1020340007F52063024607F5A05746F0400C591CEB
:1020440083F801C091F801C00CF0FC0C6EF3830C12
:102054000CF0CC0C6EF3871C81F801C083F880402F
:10206400C3F88440C3F88840C3F88C50C3F8903058
:10207400C3F89440C3F89830C3F89C405365A03328
:102084000432BB42D9D1037F48F2D052C4F20802D1
:102094001360417F48F2D453C4F2080319601268F4
:1020A4001F2102771B68437748F20063C4F20803D8
:1020B4001A6842F001021A6048F20463C4F2080389
:1020C4001A6822F020021A6048F20863C4F2080376
:1020D4001A6842F001021A6048F22463C4F2080349
:1020E4001A6842F040021A600F22026148F23C6210
:1020F400C4F2080211601A6842F020021A6000F06B
:10210400BBFF48F22863C4F208031A6842F00102D4
:102114001A6048F28C63C4F2080304221A6048F27D
:102124009063C4F208031C6048F63803C4F2080341
:10213400E3221A60BDE8F085E83C2000D03C200092
:10214400F0B5044681B09D4D286841680B460029CE
:1021540000F029814A681F2A08D8102A06D0DB68B3
:10216400002B00F020815A681F2AF6D9103A5A60D1
:10217400C268103AC2605A68AAB9D0F800C0BCF16B
:10218400010F00F0B1809E68002E00F0D080D96865
:10219400002900F0D980F160DA680CF1FF3CC0F846
:1021A40000C096605A68196810208B188850043350
:1021B400002283481A60426892B1516841F20F4C80
:1021C40061455DD9A1F5A0515160D0F80CC0ACF5C2
:1021D400A05CC0F80CC0002966D0126851181960C0
:1021E4004FF4A0525A6020229A60286845682A4613
:1021F400002D00F0DC806968E72908D8D82906D0CA
:10220400D268002A00F0D3805168E729F6D9D8397A
:102214005160C168D839C160516899B9D0F800C01B
:10222400BCF1010F5BD09668002E62D0D568002DFA
:1022340000F09880F560D1680CF1FF3CC0F800C054
:102244008E6051681268D8205518505004352146C4
:102254001A222846FFF7DCFD5A4B2A2103EBC4025D
:10226400516043F83450584A584BC3F8A8204EF2F2
:102274000013CEF200034FF080621A6001B0F0BD8B
:10228400B1F5A05F08D0D268002AA9D05168614591
:1022940098D8B1F5A05FF6D100215160D0F80CC0F8
:1022A400ACF5A05CC0F80CC00068DFF814C10128CC
:1022B4000DD0966866B3D768002F65D0F760D2F862
:1022C4000CE00138CEF80860CCF8000085E7002067
:1022D400CCF80400CCF80800CCF800007DE70160DD
:1022E400416081605168ADE70260426082605A6873
:1022F40059E7BCF1000FA5D0D5F80CE00CF1FF3C78
:10230400C0F800C0C0F804E0CEF80810516899E79E
:1023140000283FF462AFDCF804E00138DEF80CE09A
:10232400CCF80000CCF804E0CEF8086055E7BCF126
:10233400000F3FF438AFC9680CF1FF3CC0F800C08F
:1023440041608A605A682EE7BCF1000F3FF42BAF5E
:1023540081680CF1FF3C8968C0F800C08160CA60E4
:102364005A6820E7BCF1000F3FF46CAFD0F808E0E6
:102374000CF1FF3CDEF808E0C0F800C0C0F808E04B
:10238400CEF80C1051685DE700283FF426AFDCF866
:1023940008E00138DEF808E0CCF80000CCF808E0EA
:1023A400CEF80C7019E7FFF70FFA002300E700934B
:1023B4000025FFF709FA009B49E700BF4800002009
:1023C400CC0A0020A40000205D352000B0090020C4
:1023D40072B64EF61453CEF200031A680D4942F059
:1023E40001021A604EF280134FF0FF32CEF2000366
:1023F4001A604EF28413CEF200031A60064A0023D8
:10240400CA500433B3F5807FFAD1044A014BDA6031
:10241400704700BFB00900203D362000413620003F
:1024240010B5314B186841680B46002957D04A68EB
:10243400272A07D8182A05D0DB68002B4FD05A6802
:10244400272AF7D9183A5A60C268183AC2605A68FB
:1024540092B9D0F800C0BCF1010F1FD09C68002CC9
:1024640024D0D96800292DD0E160DA680CF1FF3C52
:10247400C0F800C094605A68196818208B188850F6
:1024840004331A490122196119491A605A601A72EF
:10249400486840B1DA60174A136010BD02604260B8
:1024A40082605A68E8E74B605A68F3E7BCF1000FB2
:1024B400E2D0C9680CF1FF3CC0F800C041608A60FA
:1024C4005A68D9E7BCF1000FD6D081680CF1FF3C03
:1024D4008968C0F800C08160CA605A68CCE7FFF719
:1024E40073F90023CDE700BF480000201125200028
:1024F400B00A00206000002040F26403C2F200032E
:1025040000221A605A609A60704700BFF0B572B634
:102514003B4B1A6801321A603A4A13682BB151686E
:10252400486801380028486007DD002362B61BB103
:10253400586803689B689847F0BD012B36D0C8687B
:102544004FF0000C013B50601360C0F808C00B68EA
:102554009868B0F1FF3F03D0013898600028E5D0B7
:10256400D3F800C01668C1F804C02648002E33D042
:1025740047687C68A44538BF3D4609D3F868E8B18C
:10258400C4EB0C0CC1F804C044680546A44512D23F
:10259400A868002827D0CCEB040C0136C160A960E0
:1025A400C5F804C08860CD601660BFE7002353609F
:1025B40093601360CBE7C0680028E1D19068C4EB56
:1025C4000C0CC16088600020C860C1F804C0916030
:1025D400116801311160A9E701228E60CE600260AA
:1025E40041608160A2E78860CF60B9605160116882
:1025F400CCEB040C0131C5F804C0116096E700BFB0
:102604005C000020640000200068704740F27802FB
:102614000023C2F20002D36013605360936040F25F
:102624008C02C2F2000213605360704712F0FF0F75
:1026340018BF0C4B00B51FBF1B68DA685A68DA6014
:10264400884209D003694BB100230B6150F80C3F59
:10265400CB68C96801F0BCFA62B600BD012303610E
:10266400F2E700BF740000202DE9F045044672B67D
:10267400614B62481A6804F11C0701321A60C3688E
:10268400C368002B64D0D0F80080B8F1000F1FD0CD
:10269400D0F804A004F12006DAF80420236A0AF131
:1026A40004059A4256DD5346D5F800C0226A944583
:1026B40069DC8368DF6063620023A3620368876068
:1026C400013303604E4B186879B9A160BDE8F08509
:1026D4000123C4F82480C4F828800360476087601D
:1026E400474B186809B9F0E7013111F0030FFBD12A
:1026F400456804310F2998BF10212B46002D76D050
:102704006A6801F1100C944507D98A4205D0DB6848
:10271400002B6CD05A686245F7D3521A5A60C268CB
:10272400521AC2605A6872B90668012E36D09F6880
:10273400002F42D0DD68002D4BD0FD60DA68013EE9
:10274400066097605A681B6898189950011DBCE789
:10275400C760C5E7DAF80C30002BA4D0D3F804C066
:1027640032681D1D94459FDCDA68002A9CD013460C
:10277400D3F804C032681D1D9445F5DDD5F800C0BA
:10278400226A944595DD9A686AB108F10108D76018
:102794009F60A3626262C0F80080A1E702604260A9
:1027A40082605A68CFE7036862620133C4F828A0E4
:1027B400CAF808700360476092E7002EC3D0D5F8CA
:1027C4000CC0013E0660C0F804C0CCF808205A686A
:1027D400B9E7002EB7D0D0F808C0013EDCF808C035
:1027E4000660C0F808C0CCF80C205A68ABE7FEF7C6
:1027F400EBFF002169E700BF88000020780000207B
:1028040048000020F0B572B63D4BDA68DA6810680B
:10281400DA681A68002A3DD059686FF0004CD1F884
:1028240004E0E64536D0012AD3F80CE055D0D1F8BF
:102834000CC00024013AC3F804C01A60CCF8084064
:102844001E682F4AD960002E2AD057680EF104055D
:102854007A68DEF804103C1D914243DBFA68002AD2
:1028640040D0D2F804C02968141D8C4523DDD4F867
:1028740000C0DEF804108C4522DC9A68C2F80CE033
:10288400CEF808200022CEF80C201A68C3F808E01D
:1028940001321A60DB6801221968FFF7C7FEF0BD38
:1028A4000121CEF80860CEF80C601160C2F804E093
:1028B400C2F808E0EEE7D1680029D8D00A46D0E78C
:1028C400916889B10136C1F80CE0C2F808E0CEF88D
:1028D4000C20CEF808101E60DCE700225A609A60D3
:1028E4001A60ADE73A46C2E71A68CEF8081001321A
:1028F400CEF80C70C7F808E01A60C3F804E0C9E722
:102904007800002010B5104C2368012B0BD962B657
:1029140030BF0E48FFF778FE0028F5D0FFF772FFAE
:102924002368012BF3D872B64EF60C52CEF2000295
:10293400116840F2040389B2C0F2FA5341EA030376
:10294400136030BF002010BD8800002078000020F4
:10295400344BF0B5DA681C681068DA682CB9DB68A7
:1029640001221968FFF762FEF0BDD3F80CE05F683E
:102974000EF104067A68DEF804103D1D914243DB33
:10298400FA68002A40D0D2F804C03168151D8C457D
:102994001FDDD5F800C0DEF804108C451EDC9A68F3
:1029A4001C68C2F80CE0CEF8082001340022CEF8EE
:1029B4000C201C60C3F808E04CB1012C1BD05C68EF
:1029C4000021E2685A6091601A68013A1A60DC607A
:1029D400C5E7D1680029DCD00A46D4E79168A9B1DB
:1029E4000134C1F80CE0C2F808E0CEF80C20CEF8AF
:1029F40008101C60E0E700225C689A605A601A685C
:102A0400DC60013A1A60AAE73A46C2E71C68CEF8CD
:102A140008100134CEF80C70C7F808E01C60C3F845
:102A240004E0C9E77800002000B572B6FFF790FF14
:102A340000BD00BFC368036910B5012B18D003693A
:102A4400B3B12C4BDA68D96800F11C0291421CD056
:102A54001A68012A29D0416A002935D0846A002CD9
:102A64003FD0CC60D0F828C0013ACCF808101A60E6
:102A74000369012B01D062B610BD026A6FF00043F6
:102A84009A42F8D0FFF764FFF6E71A68CAB1012A40
:102A940010D059680024D1F80CC0013AC3F804C01E
:102AA4001A60CCF80840D960E2E700225A609A60C4
:102AB4001A60DDE7596800225A609A601A60D9608A
:102AC400D6E71146D960D3E7002AD1D0D3F804C0A1
:102AD400013ADCF80CC01A60C3F804C0CCF8081042
:102AE400C6E7002AC4D09968013A89681A609960D7
:102AF400CC60BDE7780000202DE9F04172B69E4B12
:102B0400DA68DA68D9681268D3F80CC002F11C01DB
:102B14008C4500F09E801968012900F0DF80546A1A
:102B2400002C00F0AE80956A002D00F0EA80E5608C
:102B3400D2F828C00139CCF80840196091680860BF
:102B4400042111618D4908680138086091690029E0
:102B540000F09180916901240C61D2F818C0D86802
:102B6400D86885490CF11C0570B30F68002F00F07C
:102B7400A180D1F804800CF12006D8F80410DCF808
:102B8400200008F104048842C0F2DD80D8F80C105B
:102B9400002900F0D880D1F804E030680C1D864587
:102BA4007DDDD4F800E0DCF82000864500F38A805F
:102BB40099681C68CD60CCF8241001340021CCF84D
:102BC40028101C609D6001E00C68CD6000219161BB
:102BD4006949D8683CB9DB68104619680122FFF7D7
:102BE40025FDBDE8F081D1F80CE04F680EF1040634
:102BF4007868DEF804103D1D884200F3A280F9686D
:102C0400002900F09E80D1F804C030680D1D844571
:102C14004BDDD5F800C0DEF80400844563DC996818
:102C24001C68C1F80CE0CEF8081001340021CEF87D
:102C34000C101C60C3F808E04CB1012C6FD05C6828
:102C44000020E16859608860196801391960DC6006
:102C5400C1E7196889B101296AD0D3F804C00024F6
:102C6400DCF80CE00139C3F804E01960CEF8084040
:102C7400C3F80CC062E71C68AAE78C46C3F80CC012
:102C84005CE700293FF45AAFD3F804C00139DCF8FB
:102C94000CC01960C3F804C0CCF808404EE7C868FB
:102CA40000283FF47EAF014675E7C8680028B0D01D
:102CB4000146A8E7CCF82470CCF828700C604D606D
:102CC4008D6083E7886800283FD07C1CC5608D60D8
:102CD400CCF82810CCF824001C6077E70021596058
:102CE400996019602AE78868002839D00134C0F84F
:102CF4000CE0C1F808E0CEF80C10CEF808001C6017
:102D04009AE700293FF41AAFD3F808C00139DCF878
:102D140008C01960C3F808C0CCF80C500EE70021B5
:102D24005C68996059601968DC600139196052E780
:102D3400D3F804C00021596099601960C3F80CC02D
:102D4400FCE6394665E741462BE71C68CCF82400CD
:102D54000134CCF82880C8F808501C605D6035E761
:102D64001C68CEF808000134CEF80C70C7F808E0EF
:102D74001C60C3F804E05FE77800002088000020AE
:102D840010B54CF2000340F29804C4F20003C2F2FE
:102D940000042360FEF700FE42F22803C4F20D0390
:102DA4001A68082142F001021A6042F22C03C4F2AC
:102DB4000D031A6842F001021A6044F2040300226F
:102DC400C4F20D031A6044F28403C4F20D031960C3
:102DD40044F28003C4F20D031A6044F20013C4F2F7
:102DE4000D031A6049F22043C4F20D03196841F03F
:102DF400030119602368196B21F0010119634FF075
:102E0400FF3159649A6311225A6205229A62702230
:102E1400DA621A6B42F4407242F001021A63302201
:102E24009A6310BD48F634030022C4F208031A6002
:102E340048F63003C4F208031A6048F28C63C4F203
:102E440008030421196048F29063C4F208031A606D
:102E540048F63803C4F20803E3221A60704700BF3F
:102E640048F28C630022C4F208031A6048F29063AB
:102E7400C4F208031A6048F63803C4F20803EF21C9
:102E84001960ED21196048F63403C4F208031A608E
:102E9400704700BF2DE9F00F8AB00393149D129B75
:102EA400139FED18002D0891C7F1720C40F3C880F0
:102EB400CCEB0503CCF10006029300219B1903EB34
:102EC4000C040131002CF9DC102900F2B28000243A
:102ED400EF1905970794099404944FF0010106969D
:102EE400066D06F1250350F8233003F18008D8E875
:102EF4004F7FC8E8441F002CF9D1FFB2012F04D141
:102F0400013606F00F060665EBE7AC457ADB059E55
:102F1400039F06F10D04E4B23E88059F14F0800F70
:102F240092F8008092F801B090F81C9090F81DA0DF
:102F340018BF7F2401971F4607F8014B012400970F
:102F440044F040075F70009F7C78022704F0FC0483
:102F540067F3830404F0CC0467F38714009F7C7048
:102F64004FF00004DC70340A44EA0624A4B29C72D4
:102F7400240ADC724FF0FF374FF0000483F88040DE
:102F84001F715F7183F807B083F8068083F809A086
:102F940083F80890089E0024C3F88460019FC3F856
:102FA4009030C3F88C70C3F89440C3F89830C3F8D9
:102FB4009C401478FF2C3ED15478FF2C3BD1046DF7
:102FC400049E013404F00F04046503F19004002E00
:102FD40026D10127C3F8946009940497069E029FA2
:102FE400059BBF199B19059307EB0C03AD19002B27
:102FF400029707943FF774AF099E30680AB0BDE8A2
:10300400F00F7047039F90F81C903E88722790F849
:103014001DA092F8008092F801B07F2401978AE7FE
:10302400079E00277460C3F89470049B01330493D3
:10303400D4E70020E2E75C7844F020045C70BEE74B
:1030440000240994D8E700BF903130B411D0D0F8EF
:1030540020C0826A00250B684968D3F88C400CF1C3
:10306400010C121983F880500029F4D1C0F820C053
:10307400826230BC704700BF0023036243628362F4
:10308400C362036343638363C3630364704700BF22
:1030940048F63001C4F208010A6848F6300312F019
:1030A400020FC4F20803F7D01A6822F002021A6071
:1030B40042F20C03C4F203031A6822F001021A60FC
:1030C40042F20802C4F20D02116841F004011160D9
:1030D40042F20C02C4F20D02116841F004011160C5
:1030E40042F20002C4F203020021116042F204021F
:1030F400C4F203020121116042F22802C4F2030265
:103104004FF49C31116042F22402C4F203024FF0E6
:10311400FF3111601A6848F6340142F001021A6066
:1031240042F21C03C4F20303C4F208011868D0F18C
:10313400010038BF002020B10A6812F0040FF5D056
:10314400012042F20C03C4F203031A6822F00102C4
:103154001A60704748F22463C4F208031A682DE920
:10316400F00F42F00C0248F638011A60C4F208016C
:10317400E3230B6040F24C03C2F2000344F66D6A91
:1031840048F24C6681B01868C4F2C61A42F20C02C6
:1031940042F2000842F2040742F2240B42F21C03FA
:1031A400C4F20806032508244FF0000CC4F20302FD
:1031B400C4F20308C4F20307C4F2030BC4F203030A
:1031C4000096D14609FB00F000F540503930611EED
:1031D400B0F1FF3F28BF0130B0FBF1F601FB16064A
:1031E400116806EB860621F00101116042F2080124
:1031F400C4F20D01D1F800A0B6014AF0040AC1F8E6
:1032040000A042F20C01C4F20D01D1F800A0B6F501
:10321400A07F38BF4FF4A0764AF0040AC1F800A09A
:103224000021C8F800100121396042F2280176011A
:10323400C4F203010E604FF0FF36CBF80060116852
:1032440041F00101116019680029FCD01168EA26D7
:1032540021F00101116048F63801C4F208010E6042
:10326400009E316811F0080F1AD1042D01D80135E0
:1032740064000CF1010CBCF1040FA3D140F24C0327
:10328400C2F20003186048F22463C4F208031A6807
:10329400002022F00C021A6001B0BDE8F00F704764
:1032A40040F24C01C2F2000148F224630860C4F207
:1032B40008031A68012022F00C021A60ECE700BF30
:1032C40011F0FF0F70B504462CD048F2046348F2A5
:1032D4008C62C4F20802C4F208031E68116821F06B
:1032E4000401116020221A60FFF734FF00283AD14C
:1032F40000252046FFF72EFF002829D101350020A4
:10330400032D2ED1002834D148F20463C4F20803FB
:103314001E6048F28C63C4F208031A6842F0040287
:103324001A6070BDFFF716FF0028FAD048F6300186
:10333400C4F208010A6848F6300312F0020FC4F21E
:103344000803F7D01A68012022F002021A60E8E7A5
:103354002046FFF79DFE0028D0D001350120032D23
:10336400D0D030B9C5E72046FFF792FE0028BFD081
:10337400012048F63403C4F208031A6822F0040258
:103384001A6048F63803C4F20803ED221A60BBE75A
:103394002DE9F04F11F19007804608BFBA463FD09F
:1033A40048F6380948F2706648F628054FF0000AD6
:1033B400C4F208094FF0EE0BC4F20806C4F2080583
:1033C4003C68A379FF2B2ED1E179FF3918BF012185
:1033D400C9F800B03368002BFCD1207801380028EC
:1033E40004DDE25C013383422A60FADB4046FFF7E6
:1033F40067FF70B1D8F82430D8F82C200133C8F80E
:103404002430D4F88C30D318C8F82C30D4F88C304D
:103414009A447F684FF0000384F88030002FCFD1A6
:103424005046BDE8F08F0121D2E700BF48F63403CF
:10343400C4F20803196848F63002C4F2080211F015
:10344400040F70B5126806467DD01A6822F0040293
:103454001A6048F26C63C4F208031B68002B72D034
:1034640048F20003C4F208031A68D2B212F0800FC3
:103474006AD153F8223013F0800F65D000234FF047
:10348400010C0AE0D5F1010238BF002201330F2BF1
:103494008CBF002202F00102EAB1F26C02F11501C4
:1034A40056F8215005F18000D0E84F1FC0E844CF02
:1034B400002CF9D111F0FF0FE4D0013202F00F0219
:1034C400F264013301220F2B8CBF002202F00102AF
:1034D4000025002AE1D1002D36D048F6280CC4F28C
:1034E400080CDCF8000030B1AB18DCF80010013235
:1034F40090425970F8D848F63803C4F20803ED2214
:103504001A60E97AAB7A287043EA01233268190A0F
:10351400C0B20D3841EA0321C5F88C00936889B222
:1035240030462A46984770B9326AB36A903529689A
:1035340001323262D1F88CC06D686344B36281F8A1
:103544008000002DF3D170BD48F63803C4F208039F
:10355400ED221A60F7E700BF064B01685A6800B510
:10356400914200D000BD18680028FBD0FFF75EFF31
:10357400F8E700BFA400002070B583B01E46079B87
:103584000446722B0D46944602D9002003B070BD48
:1035940000220092019202932A4621466346FFF7D5
:1035A40079FC05460028F0D02A7831460D3A00F11E
:1035B4000C00FEF70DF920462946FFF7E9FEE5E782
:1035C400002308491A46CA500433B3F5006FFAD1F0
:1035D400044B082203F5807183F8002801338B42E1
:1035E400FAD17047AC00002000B52DE9F00F00F0CF
:1035F40003F8BDE8F00F00BD00B547F6FC73C2F256
:1036040000031B6881B02A2B0DD0EFF30383094A12
:1036140003F03F0301A840F8043D52F82330684604
:10362400984701B000BD44F20803C0F220031B68B0
:103634009847F6E7B0090020704700BF4EF60C53D8
:10364400CEF20003196840F2040289B2C0F2FA52C1
:1036540041EA02021A60704772B64EF60C53CEF27B
:103664000003196840F2040289B2C0F2FA5241EA36
:1036740002021A60704700BF30B5104C054623683B
:1036840023B1DA68013ADA60DA688AB1636823B18F
:103694005A682846DA601B699847A36823B11A7AE6
:1036A4001AB91B692846984730BD5A68DA60F8E7AA
:1036B4005A68DA601B699847E8E700BFB00A00203F
:1036C40049F23803C4F20803032219681A6049F264
:1036D4004402C4F20802106840F00100106019604E
:1036E40049F23C03C4F208031A6822F001021A608A
:1036F4004BF21003C4F20D0300221A60704700BF9E
:1037040049F23802C4F2080203460420106049F268
:103714005002C4F20802106810B410F0010033D053
:1037240049F25C02C4F20802146849F25802C4F275
:103734000802126852EA04240CBF00200120002968
:103744000CBF002000F0010098B149F2A00C002049
:10375400C4F2080CDCF800201A540130844294BFEF
:1037640000220122814294BF002202F00102002AB9
:10377400F0D184429FBF49F25003C4F208031A688F
:1037840022F0010298BF1A6010BC704749F2380356
:10379400C4F2080349F244021968C4F2080218602A
:1037A400106840F00100106019607047174910B4A8
:1037B4000B68C0B2032B1BDD49F23803C4F20803C3
:1037C400032249F2440C1C68C4F2080C1A60DCF8A9
:1037D400002049F2440312F0010FC4F2080309D097
:1037E4000B68032BF3DC49F23803C4F208031C60B2
:1037F40010BC704749F29802C4F2080210600A280B
:1038040002BF1A6842F001021A60ECE7540000207B
:103814004378053B1D2B10D8DFE803F011570F0F39
:10382400400F0F0F0F0F0F0F0F0F0F0F0F0F0F0F73
:103834000F0F0F0F0F0F0F20226D0020704703781A
:10384400002BFAD18378C27843EA022249F20003BA
:10385400C4F208031A60364B03221A600120EDE714
:103864000378A12BE9D18378C27853EA0222E4D108
:10387400304B19681A715A7162F31F0108229A7148
:103884002D4A196013608379C279012043EA022228
:103894002A4B072A28BF07221A60CFE70378002B98
:1038A400CBD10379427953EA0222C6D18379C27912
:1038B40053EA0222C1D18378C07843EA0020012868
:1038C400BBD11B4B04221A60B8E70378802BB4D118
:1038D400C378012B1ED0022BAFD1194A164B1A60A4
:1038E4008379C279012043EA0222144B432A28BF78
:1038F40043221A60A2E70378212B9ED18379C279EF
:1039040053EA022299D182780E4B02F001021A7016
:10391400012093E70C49084A11608279C17918465D
:1039240042EA0121054A122928BF1221116085E7C4
:1039340054000020C40A0020C00A0020BC0A002051
:10394400703C200058000020B43C200049F23803A9
:1039540070B5C4F208031D6849F21803C4F20803E1
:103964001B6882B013B113F0040F7CD149F2080331
:10397400C4F208031B68002B39D013F0010F36D0B2
:1039840049F23803C4F2080300221A6049F24403DE
:10399400C4F208031B6813F0010F38D049F258032E
:1039A400C4F208031B6849F28001DBB26846C4F222
:1039B40008019A4206D2D1F800C000F802C00132D0
:1039C400082AF6D149F24404C4F20804236868467C
:1039D40043F040032360FFF71BFFA0B1DFF8A4C04E
:1039E400DCF80030CBB9236843F00803236049F2C4
:1039F4001003C4F208031B6849F23803C4F2080335
:103A04001D6002B070BD236843F020032360DFF81B
:103A140074C0DCF80030002BE9D01B4E3268C2B110
:103A240049F28004DCF800100023C4F20804C85CE6
:103A34000133013A2060C818CCF80000101E18BFEA
:103A440001201F2B8CBF002000F0010032600028F1
:103A5400EDD15AB149F24403C4F208031A6842F0A2
:103A640002021A60C3E7FEF731F87FE749F2440324
:103A7400C4F208031968CCF8002041F00A01196067
:103A8400B5E700BFC00A0020BC0A00204F4B70B449
:103A94001D6846F6F833C2F200034FF4A0525A6090
:103AA40000229A60DA60EA681B6002F5A052EA60BC
:103AB4005A686B68002B52D046F6F83CC2F2000CF0
:103AC4001E689444B4450CBF1A461A4604D0D26802
:103AD40012B111688C45FAD146F6F831C2F20001F0
:103AE4000C6859687618B44208D0DB68002B35D0CE
:103AF400D3F800C0596861448C42F6D11946134684
:103B0400BBB146F6F832C2F200025468D3F804C0DE
:103B1400A444C2F804C02A68012A2ED09C68002C50
:103B240039D0DE68002E2DD0E660DB68013A9C6057
:103B34002A6039B146F6F833C2F200035B684A687A
:103B4400D3184B608546BFF36F8F5DF804CB8CF3BD
:103B54000388BDE8FF5F00BD70BC704713462A6848
:103B640012BB46F6F831C2F200018A60CA6069608D
:103B7400A960012129601146C2E700236B60AB6094
:103B84002B60D6E7002AD4D0AB68013A9B682A6040
:103B9400AB60DE60CDE7002ACBD06B68013ADB680E
:103BA4002A606B609C60C4E7A96846F6F83CC2F2E0
:103BB400000CC1F80CC0CCF8081001320021CCF87C
:103BC4000C102A60C5F808C09AE700BF480000201E
:103BD4000FF22C0C4DF804CD2DE9FF5FEFF3038CAD
:103BE4004DF804CDC0F800D08D46BFF36F8F5DF85B
:103BF40004CB8CF30388BDE8FF5F5DF804CBE74694
:103C0400704700BF40F6CC23C2F2000300221A60C2
:083C14005A609A60DA60704703
:103C1C00074B10B51A6852B9064C01221A6063683A
:103C2C002BB10434984754F8043F002BFAD110BD43
:083C3C0000000020283D2000DB
:103C44000000000000000000811320003513200054
:103C540011132000DCFBFFFF00000000051320000F
:103C64000000000000000000AD172000090243001E
:103C7400020100A019090400000102020100052448
:103C84000010010424020205240600010524010099
:103C9400010705820340004009040100020A0000F4
:103CA400000705830220000007050402000100004C
:103CB4001201000202000020501D1C6003000000DD
:103CC400000100000000000000000000ED1C2000C6
:103CD400611D2000B11D2000E91D2000000000002E
:103CE40000000000ED1C2000611D2000B11D20001B
:043CF400E91D2000A6
:103CF800FFFFFFFF69022000CD0220008904200099
:103D0800D1132000C9162000FD2420001126200010
:103D1800852D2000C5352000093C2000000000004A
:083D2800FFFFFFFF0000000097
:04000005002000F8DF
:020000040027D3
:0CFFD400FFFFFFEF000000000000200015
:00000001FF
