:020000040020DA
:10400000F87F00201D412000DD112100DD1121007D
:10401000DD112100DD112100DD112100DD11210064
:10402000DD112100DD112100DD112100131221001D
:10403000DD112100DD112100DD112100DD11210044
:10404000DD112100DD112100DD112100DD11210034
:10405000DD112100DD112100DD112100DD11210024
:10406000DD112100DD112100DD112100DD11210014
:10407000DD112100DD112100DD112100DD11210004
:10408000DD112100DD112100DD112100DD112100F4
:10409000DD112100DD112100DD112100DD112100E4
:1040A000DD112100DD112100DD112100DD112100D4
:1040B000DD112100DD112100DD112100DD112100C4
:1040C000DD112100DD112100DD112100DD112100B4
:1040D000DD112100DD112100DD112100DD112100A4
:1040E000DD112100DD112100DD112100DD11210094
:1040F000DD112100DD11210010B5074C54F8043CFE
:10410000B3F1FF3F06D0043C984754F8043DB3F1A7
:0C411000FF3FF9D110BD00BFD41F2100FB
:10411C0040400949094A086004319142FBDBFFF732
:10412C00E5FF00BF00F02EFA00F030FA01B40DF0FC
:10413C00D9FD03F045FC000004000020CC0F00204A
:10414C0043680A1D5BB1D0F80CC00133CCF80420D5
:10415C004FF0000CC1F808C04360C26070478B6020
:10416C0001238260C2604360F8E700BF10B444686A
:10417C00012C17D0836801F1040C9C4517D04BB16E
:10418C005A682AB1944503D013465268002AF9D1D3
:10419C008A685A60C268944508BFC360013C446099
:1041AC0010BC704700238360C3604360F8E7002CA9
:1041BC00F6D08B68013C83604460F1E730B58468CD
:1041CC0005464CB12068294603681B68984764680B
:1041DC00002CF7D1012030BD2046FCE7F0B54B6A2E
:1041EC0081B004460D461746002B37D0AC462360F1
:1041FC005CF8043B04F1200E2361BCE80F00AEE830
:10420C000F009CE807008EE807000026AA6A66618A
:10421C00A661E461E663266405F12001204607F0FF
:10422C0081FAAB6AA2686660D218A2F140034FF023
:10423C00807142F8401C0B4A01A942F001029A63BA
:10424C0047F00102DA63204641F8047DE3606946D9
:10425C004FF4406207F022FD01B0F0BD024B1B6829
:10426C00C4E700BFC1792000A0010020294B30B564
:10427C00186844682246002C47D06368572B07D82F
:10428C00482B11D0D268002A3FD05368572BF7D94E
:10429C00483B5360C1684839C16053B1126848212A
:1042AC00D018D150043030BD00235360C168483958
:1042BC00C160016801290BD0956875B1D468BCB197
:1042CC00EC60D2F80CC00139CCF808500160E5E77D
:1042DC000021416081600160E0E70029DED0D4F864
:1042EC000CC00139C0F804C00160CCF80850D5E707
:1042FC000029D3D0D0F808C00139DCF808C001601F
:10430C00C0F808C0CCF80C40C8E703F0A3FB0020B1
:10431C00C9E700BF3C0000202DE9F04598B000240F
:10432C001694169B002500264FF4406A01930094C6
:10433C00069507960495059602950396089409949C
:10434C00CDF828A0FFF792FF44F23012C0F2200201
:10435C0069460746FFF742FF6FF000431793179B20
:10436C004FF001080C93CDF82C80119512960F95F7
:10437C0010960D950E9613941494CDF854A0FFF747
:10438C0075FF4BF6CD12C0F220020BA9FFF726FFEA
:10439C0040F2C013C2F2000383F80080F8680DF0FD
:1043AC0081F918B0BDE8F0852DE9F0076B4E736804
:1043BC00002B76D05968002973D0DFF8A481B2465F
:1043CC00002700225A60F268D8F80050521AF260A6
:1043DC005A68BAB9DAF80040012C76D098680028EF
:1043EC0000F09B80D3F80CC0BCF1000F00F0A5804E
:1043FC00C0F80CC0DA689060DAF80020013ACAF80C
:10440C0000205A681C68A41849D00F2947D961604C
:10441C002460A760E760EB6859186B68E960D4F812
:10442C0000C06068002B40D0D3F800906044484531
:10443C000CBF1A461A4604D0D26812B111688842D1
:10444C00FAD159688944CC4507D0DB68002B2BD0B6
:10445C001868596841188C45F7D119461346CBB1E9
:10446C0060685A68821862602868012802BF6F6011
:10447C00AF602F600ED09A68002A2ED0D3F80CC0F3
:10448C00BCF1000F33D0C2F80CC0DB689A602B680B
:10449C00013B2B6019B14A686368D3184B60736891
:1044AC0073B9BDE8F007704713462968002929D174
:1044BC00A160E1602A686C600132AC602A60CEE7D2
:1044CC00596800297FF47DAFEBE7CAF80020CAF8E1
:1044DC000420CAF808205A6894E70028DAD06B68E0
:1044EC00DB686B609A602B68013B2B60D2E700287D
:1044FC00D0D0AB689B68AB60C3F80CC02B68013B99
:10450C002B60C7E7AA683946D460AA68E760A26046
:10451C002A68AC6001322A60A1E7002C3FF472AF2C
:10452C00DAF80400C068CAF804008260DAF80020E7
:10453C00013ACAF800205A6864E7002C3FF462AFD5
:10454C00DAF808008068CAF80800C260DAF80020BF
:10455C00013ACAF800205A6854E700BFB40F002093
:10456C003C00002040F21403C2F200030A21002296
:10457C001A71196040F20C03C2F2000319601A712F
:10458C00704700BF00B503F0BFFD00BD2DE9F04F33
:10459C00F3B072B648F610030021C4F20803DFF83A
:1045AC00C04448F6140C48F6180E1960C4F2080CF6
:1045BC00C4F2080E2068DCF800C0DEF800E003024C
:1045CC004FEA0E2E11EB0E0543F1000615EB0C0213
:1045DC0048F6240CC4F2080CDCF800C046F10003C9
:1045EC004FEA0C454FEA1C4648F6200CC4F2080C66
:1045FC00DCF800C0521948F61C0E4FEA0C6543EB70
:10460C000603C4F2080E52194FEA1C26DEF800E02D
:10461C0043EB06035218216843EB0E03884205D086
:10462C0000204FF48071121843EB010362B640F284
:10463C00C045C2F2000595E80300801841EB030168
:10464C004FEA501848EAC1624B0949AD0D920E93DE
:10465C0005F110020FF20C4898E880010DA903C96E
:10466C004E92C01905F1200241EB08015292002331
:10467C0044F625128DF85831C8F292425492569A4B
:10468C008DF85C3163F317225692579A249025913A
:10469C0063F3172257920020002158AA8DF85B3142
:1046AC004A9382E80300F1A103C94B934C934F93B7
:1046BC005093539355935AAA5D935E9340F23C03E7
:1046CC0082E80300C2F20003EA4FDFF8AC83DFF8A4
:1046DC00AC934FF0FF3218684997CDF83481CDF880
:1046EC0044915C9243683BB15A686B2A0AD85C2AA5
:1046FC0008D0DB68002BF7D14FF0000803F0AAF9C3
:10470C0045461FE05C3A5A60C2685C3AC2605A681F
:10471C0092B90568012D01F0B1819968002901F069
:10472C005C82DE68002E01F07282CE60DA689160E5
:10473C000268013A02605A681B685C219D180435B6
:10474C009950A84672B648F610020023C4F208022B
:10475C00136048F6180148F61402C4F20802C4F2B9
:10476C0008012068126809680702090213EB010AA4
:10477C0047F1000B1AEB020648F62402C4F20802B9
:10478C00D2F800C04BF100074FEA0C414FEA1C4233
:10479C00761847EB020748F62002C4F20802D2F85A
:1047AC0000C048F61C02C4F208024FEA0C61D2F8B1
:1047BC0000E076184FEA1C2247EB0207F618236834
:1047CC0047EB0E07984205D000224FF48073B618C1
:1047DC0047EB030762B640F2C0410DF5D67BC2F23F
:1047EC00000103C90622139014910DF5D279A44946
:1047FC00584603F0E3F90622A149484603F0DEF9D6
:10480C004FF0000A6FF07B032B7085F801A013ABFF
:10481C000CCB921943EB0703510941EAC361698040
:10482C00090CA980C3F34F115B0DE9802B8159460C
:10483C00062205F10A0003F0C1F999E80300A8610A
:10484C00A98324AB0CCB2A636B630DA903C94FF06E
:10485C0028036B8495F83C30A862E96203F0FC03F2
:10486C006AF38703DBB243F0445343F434134FF43D
:10487C009671EB630123E983D9B248F200034FF43C
:10488C00A072C9F696032A8441EA030344F6251262
:10489C00C8F292422B6440F20C475FFA8AF3C5F8D7
:1048AC0024A0AA636B6485F848A0ED642A65C5F85A
:1048BC0054A0C2F200077B6A05F14C00002B01F0FA
:1048CC00258040F20C49C2F20009D9F828C0DCF866
:1048DC000430934201F26581DCF80830002B00F0C3
:1048EC00F387614696465A68724540F2FA8400296D
:1048FC0001F0578140F20C4EC2F2000E88606B65DD
:10490C00DEF824300133CEF824305E4E4FF0FF3306
:10491C0031688DF8C4318DF8C53104238DF8CA3156
:10492C0008684FF0000A03682D220292CDF800A00F
:10493C00CDF804A01F6A71AA0DF5E573B847294696
:10494C0007464B2203F03AF9384608F0D3FC3846B8
:10495C0008F0DAFA384608F05DFE384607F02AFD12
:10496C0033683946186803685B6A984749A840F26F
:10497C00842100F11003C2F200014E934B685F9545
:10498C00CDF880A1CDF840A1CDF83C81002B00F0F2
:10499C00C58740F28422C2F20002906843689845B1
:1049AC0080F2F28749AD40F28427C2F2000705F18C
:1049BC001403BB607B68509001337B604FF6F86149
:1049CC00DFF8C4E0CFF6FF710DF5E67C4CF801E0A2
:1049DC002E4931AB0022196244F6243183F834207D
:1049EC00C8F29241D962596B83F8382003F1100058
:1049FC0062F3172159635861996B03F120005862D7
:104A0C00234862F317219963186100210020D863B1
:104A1C00196416A103C9586499644FF0FF31D96425
:104A2C0040F23C0183F83720C2F2000108685A605A
:104A3C009A60DA609A61DA619A621A631A655A6549
:104A4C0043683BB15A686B2A24D85C2A22D0DB68B5
:104A5C00002BF7D102F0FEFF00221392154639E02D
:104A6C00BC04002000A3E11100000000002D310166
:104A7C0000000000341D2100501D21005C1D210090
:104A8C0088040020FC010020BC1D2100E41D210035
:104A9C00D81D21005C3A5A60C2685C3AC2605A6800
:104AAC0092B90768012F01F020809968002901F064
:104ABC008780DD68002D01F09D80CD60DA68916003
:104ACC000268013A02605A681B685C219D18043523
:104ADC009950139572B648F610020023C4F20802DE
:104AEC00136048F6180148F61402C4F20802C4F226
:104AFC0008012068126809684FEA0029090213EBC3
:104B0C00010A49F1000B1AEB020748F62402C4F221
:104B1C000802D2F800C04BF100084FEA0C414FEAF2
:104B2C001C427F1848EB020848F62002C4F2080227
:104B3C00D2F800C048F61C02C4F208024FEA0C611D
:104B4C00D2F800E07F184FEA1C2248EB0208FF184D
:104B5C00236848EB0E08984205D000224FF480736E
:104B6C00BF1848EB030862B640F2C0410DF5CE7B8E
:104B7C00C2F2000103C90622159016910DF5CA79EF
:104B8C00DFF8B817584603F019F80622DFF8AC170F
:104B9C00484603F013F84FF0000A6FF07B032B70BC
:104BAC0085F801A015AB0CCBD21943EB08035109C6
:104BBC0041EAC3616980090CA980C3F34F115B0DF5
:104BCC00E9802B815946062205F10A0002F0F6FF16
:104BDC0099E80300A861A98324AB0CCB2A636B630F
:104BEC000DA903C94FF0FA036B8495F83C30A86209
:104BFC00E96203F0FC036AF38703DBB243F044532E
:104C0C0043F434134FF67471EB630123E983D9B287
:104C1C0048F20003C9F6960341EA03034FF032024F
:104C2C002A842B6444F624325FFA8AF3C8F2924247
:104C3C006B6440F20C43C5F824A0AA6385F848A025
:104C4C00ED642A65C5F854A0C2F20003196B05F196
:104C5C004C00002900F05286D3F834C0DCF8043044
:104C6C00934240F2648640F20C41C5F854C0C2F243
:104C7C0000010B6B486301330B634FF0FF3331685A
:104C8C008DF8C0318DF8C13104238DF8C931086815
:104C9C004FF0000803682D220292CDF80080CDF869
:104CAC0004801F6A72AB013370AAB84729464B22A5
:104CBC00074602F083FF384608F01CFB384608F024
:104CCC0023F9384608F0A6FC384607F073FB336826
:104CDC003946186803685B6A984731AB03F11002D8
:104CEC005A6140F28422C2F200029D655168139D04
:104CFC00C3F85C80C3F81C809D61002900F0F68528
:104D0C009068139F4368BB4240F3728631AB40F20C
:104D1C008428C2F20008D8611433C8F80830D8F8D7
:104D2C0004300133C8F80430002348F6140C8DF815
:104D3C00CB311D46604648F6180148F6240247F26E
:104D4C00000348F6100BC4F20800C4F20801C4F2C8
:104D5C000802C4F20D03C4F2080B0D9013911592C6
:104D6C00309372B6CBF800500D9FDDF84C80D4F820
:104D7C0000E0002338680593D8F800304FEA0E2283
:104D8C001B02069205AA06CACF1842F100083A186F
:104D9C00159F48F1000339684FEA11490904CDF811
:104DAC002890099109A903C9121843EB010348F68D
:104DBC002001C4F20801D1F800C048F61C014FEAEA
:104DCC001C284FEA0C6CC4F20801CDF83080CDF8E9
:104DDC002CC00F680BA903C9121843EB0103002167
:104DEC001897179117A903C9121843EB01032168EF
:104DFC008E4505D000204FF48071121843EB01034F
:104E0C0062B640F2C047C2F2000797E80300801870
:104E1C00259A41EB03014309B2EB511F43EAC163ED
:104E2C0040F29482DFF8180506F004FB72B60027F6
:104E3C00CBF80070DDF83490DDF84CC0D4F800E00D
:104E4C00D9F80000DCF800304FEA0E28CDF82080AD
:104E5C0007971B0207AA06CACF1842F100083A1896
:104E6C00159F48F1000339684FEA11490904CDF840
:104E7C0040900F910FA903C9121843EB010348F698
:104E8C002001C4F20801D1F800C048F61C014FEA19
:104E9C001C284FEA0C6CC4F20801CDF84880CDF800
:104EAC0044C00F6811A903C9121843EB0103002178
:104EBC001E971D911DA903C9121843EB010321680C
:104ECC008E4505D000204FF48071121843EB01037E
:104EDC0062B640F2C047C2F2000797E803008018A0
:104EEC0041EB03010DF5B4784FEA501C0DF5B07988
:104EFC0098E80C004CEAC16C99E880014909D21978
:104F0C0043EB0803994204D840F0A581944540F244
:104F1C00A2815C9BB3F1FF3F00F09D81D8B20121CF
:104F2C0001FA00FE49F20042C4F20D02D2F800C0B0
:104F3C0080002CEA0E0CC2F800C044F28002C4F2CD
:104F4C000D028218116047F20802C4F20D0243F000
:104F5C00B0031360309A136813F0800FFBD047F244
:104F6C001003C4F20D031A6847F20C03C4F20D03CC
:104F7C00196801EB022141F30B11559172B64FF0F8
:104F8C00000CCBF800C00D9A139F2068CDF8A0C080
:104F9C00D2F800C03B684FEA002ECDF8A4E04FEAEF
:104FAC00032E28AB0CCB12EB0E0743F10008159B1C
:104FBC0017EB0C09D3F800C048F1000A4FEA1C4764
:104FCC004FEA0C4CCDF8A8C048F6200CC4F2080CE3
:104FDC00DCF800E02B9748F61C0C4FEA1E274FEA32
:104FEC000E6E2AAB0CCBC4F2080C19EB02092D97F0
:104FFC00CDF8B0E04AEB030ADCF800C02CAB0CCBCC
:10500C0019EB02094AEB030A0023CDF8BCC02E931E
:10501C00D4F800C02EAB0CCB19EB02094AEB030AF7
:10502C00604506D000274FF4807819EB07094AEB4E
:10503C00080A62B640F2C043C2F2000393E8800152
:10504C0017EB090748EB0A087B0943EAC863424699
:10505C005893530959935D9B13F0040F18BF559542
:10506C00622303FB01F14BF6EB63C4F2817383FB08
:10507C000173C917C1EB6321449B0231B3F1FF3FAC
:10508C001F910CD0AF4BCAB21B68002A40F0E580D0
:10509C001B689968022900F02C81DB681A60DDF826
:1050AC001CA1BAF1000F3FF45CAE4FF0FF33316836
:1050BC008DF8BC318DF8BD3104238DF8C8310868EA
:1050CC00612203680292009501951F6A6FAA72AB68
:1050DC00B847074672B64FF00009CBF8009023682A
:1050EC000D9813994FEA032C0268CDF884C0D1F8BF
:1050FC0000C020954FEA0C2C20A903C910EB0C081A
:10510C0041F10009159918EB02080A6849F10009E8
:10511C004FEA124E1204CDF868E0199248F62002BC
:10512C0019A903C9C4F2080218EB000849EB0109DC
:10513C00116848F61C02C4F2080212684FEA112EDC
:10514C000906CDF870E01B911BA903C9239218EB3B
:10515C0000082295226849EB010922A903C918EB22
:10516C00000849EB0109934206D000224FF48073EA
:10517C0018EB020849EB030962B640F2C04263AB7C
:10518C00C2F2000206CA18462691279206226B49E3
:10519C00049302F013FD0DF5C27C604606226749AC
:1051AC00CDF80CC002F00AFD6FF06B024FF000005E
:1051BC0078703A7026AA06CA11EB080142EB090274
:1051CC00480940EAC260C0F3072EB87087F803E0C4
:1051DC00C0F3074E000E7871C2F34710B871C2F3DA
:1051EC004730F871C2F34750520F87F804E0387219
:1051FC007A72049B0622194607F10A0002F0DEFCC3
:10520C00DDF80CC00622614607F1180002F0D6FC4E
:10521C000AF11E011A2207F11E0002F0CFFC042233
:10522C000AF1380107F1380002F0C8FC1F99384622
:10523C00F96308F05FF8384607F066FE384608F068
:10524C00E9F9384607F0B6F8336839461868036848
:10525C005B6A984785E55599FDE6012A65D03A4B7E
:10526C001B681B685B685968C86820F00100C8603F
:10527C005968086804281FBF4FF0040C886AC1F8ED
:10528C0000C0596819BF4FEA104CC1F838C0886A81
:10529C00D1F838C014BF596800EB0C404FF00E0C1D
:1052AC00C1F804C0D3F804C020F07F40DCF80C1027
:1052BC0002FB00F221F48041CCF80C1048F21F5193
:1052CC00C5F2EB11A1FB02815A68A0EB5111080C3D
:1052DC0010645A6811635B68DA6842F00102DA60A4
:1052EC00DDE69A68002A00F0EF8219461346FFF7B4
:1052FC00FABA187849F200410003C4F20D014118C2
:10530C00D1F800C058684CEA00000860D9680A60FF
:10531C001978090349F20042C4F20D028A18116887
:10532C005B6821EA03031360B9E61B689A68022ADA
:10533C0000F09283DB68FF221A60B0E6880400203C
:10534C00E81D2100780F00207C0F002003D1249F42
:10535C009F423FF667ADDFF8D00802F039FBDFF86B
:10536C00CC0802F035FB31AB4FF6F862DFF8C09891
:10537C00DFF8C0C8DFF8C0085C6DCFF6FF720DF522
:10538C00E67848F80290C3F810C0186284B104F1B2
:10539C005C0005F0CBFEDFF8A43804F14400636533
:1053AC0006F09AF8204606F097FE204602F056FBCF
:1053BC0031A98C6D002C00F0AF8040F28420C2F239
:1053CC0000004568012D00F07183836801F114021F
:1053DC00934200F0B2834BB1996829B1914203D04A
:1053EC000B4689680029F9D1389A9A6040F28422D8
:1053FC00C2F20002D16836AA914208BFDFF84028F9
:10540C0040F28425C2F2000508BFD3606B68013BF3
:10541C006B60479C002C7FD0236D4CF6CD42CCF6B4
:10542C00CC42A2FB0372D20802EB820252009A1AFF
:10543C00500040F20C4C8718C2F2000C5CF827505C
:10544C004FEA870E012D0CEB0E03E04600F0338380
:10545C0001375CF8273004F14C01994200F0958338
:10546C005BB19D682DB1A94203D02B46AD68002DD0
:10547C00F9D1D4F854C0C3F808C040F20C4500EB85
:10548C00020CC2F2000505EB8C0CDCF808E040F2D3
:10549C000C47714508BFCCF80830C2F200078218DF
:1054AC0057F82230013B47F8223094F83C30022266
:1054BC0062F3010384F83C304FF0FF3331688DF810
:1054CC00B8318DF8B93104238DF8C7310868002341
:1054DC000268009301932D23029371AB0333156A79
:1054EC006EAAA847214605464B2202F067FB2846C8
:1054FC0007F000FF284607F007FD284608F08AF859
:10550C00284606F057FF33682946186803685B6A1B
:10551C009847204602F0A2FA31A9C86D002874D031
:10552C0040F2842CC2F2000CDCF80440012C00F098
:10553C00B582DCF8083001F11402934200F0F382DA
:10554C004BB1996829B1914203D00B468968002967
:10555C00F9D1389A9A6040F28428C2F20008D8F83F
:10556C000C1036AA914208BFDFF8D42640F28429E9
:10557C00C2F2000908BFD360D9F80430013BC9F866
:10558C0004304898002840D0D0F898304CF6CD4CD8
:10559C00CCF6CC4CACFB03EC4FEADC0C0CEB8C0CDF
:1055AC004FEA4C0CCCEB030CDFF898264FEA4C0E70
:1055BC000EEB0C0552F8254002EB8507012C00F090
:1055CC009A82013552F8253000F19401994200F08D
:1055DC00C68253B19C682CB1A14203D02346A46867
:1055EC00002CF9D1D0F89C409C600EEB0C0402EB23
:1055FC008404A568F444A94208BFA36052F82C3077
:10560C00013B42F82C3002F029FADFF83C1631AAA3
:10561C001162DFF838164FF6F8631161DFF83026A7
:10562C00CFF6FF7373A8C250DFF82816DFF82826D0
:10563C00DFF828365E9C49914D92519384B104F168
:10564C005C0005F073FDDFF8F43504F1440063658C
:10565C0005F042FF204606F03FFD204602F0FEF921
:10566C005F9C002C00F0B48040F28422C2F2000255
:10567C005068012800F00D82936849AD05F11401C2
:10568C008B4200F0488253B19A682AB18A4203D007
:10569C0013469268002AF9D1509A9A605F9C40F2A6
:1056AC008428C2F20008D8F80C1049AF07F1140294
:1056BC00914208BFDFF8882540F28429C2F2000924
:1056CC0008BFD360D9F80430013BC9F80430002C72
:1056DC007ED0236D4CF6CD41CCF6CC41A1FB03C161
:1056EC00C90801EB81014900591A4FEA410C40F2FB
:1056FC000C42C2F200020CEB010352F823504FEAA9
:10570C00830E012D02EB0E00174600F0DC815F1CAE
:10571C0052F8273004F14C00984200F02A824BB129
:10572C009A682AB1904203D013469268002AF9D1A4
:10573C00626D9A6040F20C450CEB0102C2F200055E
:10574C0005EB8202D2F808E040F20C477045614448
:10575C00C2F2000708BF936057F82130013B47F8AD
:10576C00213094F83C30022262F3010384F83C307F
:10577C004FF0FF3331688DF8B4318DF8B531042317
:10578C008DF8C631086800230268009301932D231D
:10579C000293156A0DF5E3736DAAA84721460546D9
:1057AC004B2202F00BFA284607F0A4FD284607F01E
:1057BC00ABFB284607F02EFF284606F0FBFD3368AE
:1057CC002946186803685B6A9847204602F046F938
:1057DC006098002874D040F28422C2F2000254680F
:1057EC00012C00F0518193680DF5927808F11401A9
:1057FC008B4200F0888153B19A682AB18A4203D057
:10580C0013469268002AF9D1509A9A60609840F237
:10581C00842CC2F2000CDCF80C100DF5927909F115
:10582C001402914208BFDFF8182440F28421C2F21E
:10583C00000108BFD3604B68013B4B6000283FD090
:10584C00D0F898304CF6CD4ECCF6CC4EAEFB032EA9
:10585C004FEADE0E0EEB8E0E4FEA4E0ECEEB030E23
:10586C00F84A4FEA4E0404EB0E0352F8231002EBF5
:10587C008306012900F030815D1C52F8253000F1BF
:10588C00940C9C4500F0618153B1996829B18C4509
:10589C0003D00B4689680029F9D1D0F89C10996087
:1058AC0004EB0E0102EB81018D68A644AC4508BFE8
:1058BC008B6052F82E30013B42F82E3002F0CEF8BD
:1058CC00002073B0BDE8F08F40F20C49C2F2000921
:1058DC00D9F82C30986000236B65D9F82430C9F8BE
:1058EC002C000133C9F82430FFF70FB8D9611433F9
:1058FC009360D36001235360FFF716BA69651A6B86
:10590C005863013298631A63FFF7B7B96B657B6A0A
:10591C00B8620133F8627B62FEF7F7BF509300F177
:10592C0014038B60CB6001234B60FFF747B8DCF8A6
:10593C000830BBB1614696465A6872450DD90029AC
:10594C003FF491A940F20C428860C2F200026B65F0
:10595C00136B01331363FFF790B99A6812B11946B0
:10596C001346E9E740F20C4CC2F2000CDCF838307C
:10597C00986000236B65DCF83030CCF838000133CC
:10598C00CCF83030FFF779B98368E3B101465A6837
:10599C00424513DD00293FF405A80DF5927840F23D
:1059AC008429C2F2000908F114028A605093D9F8D4
:1059BC0004300133C9F80430FFF700B89A6812B10B
:1059CC0019461346E3E740F28423C2F20003DA6877
:1059DC0049AD40F2842705F11403C2F2000793602D
:1059EC00FB607B680022013350927B60FEF7E6BFC0
:1059FC008368E3B10146BC465A68624512DD002952
:105A0C003FF484A931A840F28429C2F2000900F1C4
:105A1C0014028A60C361D9F804300133C9F8043028
:105A2C00FFF782B99A6812B119461346E4E740F2BF
:105A3C008428C2F20008D8F80C1031AA02F1140321
:105A4C008B60C8F80C30D8F8043000210133D161D8
:105A5C00C8F80430FFF768B91A78110349F200420C
:105A6C00C4F20D028A181068596840EA01011160ED
:105A7C00D968FF220A601A7811034BE442608260F5
:105A8C0002605A68FEF758BE00239360D3605360DF
:105A9C00D4E600239360D360536018E60023CCF85F
:105AAC000830CCF80C30CCF804306AE50023836065
:105ABC00C3604360ADE40022791C4CF821209A604D
:105ACC004CF82720F1E4002103F1010C42F82C10D2
:105ADC00816042F8231044E6002103F1010C42F8E6
:105AEC002C10B16042F82310E8E64260826002603C
:105AFC005A68FEF7E9BF0023691C42F82130BB60ED
:105B0C0042F825307FE5002C3FF49AAE509B013CC7
:105B1C009360546092E600283FF4DBAD509B013853
:105B2C0093605060D3E5002C3FF42EADCB69013C63
:105B3C00CCF80830CCF8044023E5002D3FF46CACD5
:105B4C00CB69013D8360456063E400293FF4B6AE48
:105B5C00D0F89C30013942F825303160AEE6002C8B
:105B6C003FF451ADD0F89C30013C42F825303C60FC
:105B7C0049E5002D3FF4F5AD636D42F8273052F83E
:105B8C000E30013B42F80E30EBE5002D3FF48DACAE
:105B9C00636D4CF827305CF80E30013B4CF80E303E
:105BAC0083E4C5F854C040F20C4CC2F2000CDCF893
:105BBC002430CCF828000133CCF82430FEF7A5BEF5
:105BCC00002F3EF481AF4168C96841608A60026869
:105BDC00013A02605A68FEF777BF002D3EF4ACAD77
:105BEC004168C96841608A600268013A02605A687B
:105BFC00FEF7A2BD002F3EF467AF81688968816013
:105C0C00CA600268013A02605A68FEF75DBF002D57
:105C1C003EF492AD816889688160CA600268013A7D
:105C2C0002605A68FEF788BDF01D2100F81D2100A6
:105C3C00BC1D2100D81D2100E41D2100901D210058
:105C4C00840200200C020020B01D2100A41D2100A4
:105C5C00201D2100341D2100501D21005C1D210040
:105C6C00014B0360704700BF901D2100014B036086
:105C7C00704700BF901D2100F0B472B648F61003B7
:105C8C000022C4F20803244D48F614011A60C4F231
:105C9C000801D5F800C00E6848F61801C4F20801D6
:105CAC000F684FEA0C243F02D01944F1000183190C
:105CBC0041F1000448F62401C4F208010E683004D6
:105CCC00310C1B1844EB010448F62001C4F2080106
:105CDC000E6848F61C01C4F2080130060F68310A40
:105CEC001B1844EB01049B182A6844EB07049445E9
:105CFC0005D000214FF480725B1844EB020462B6AD
:105D0C00064A06CAC91842EB0402480940EAC260B6
:105D1C005109F0BC704700BFBC040020C004002037
:105D2C00014B0360704700BF901D2100024B00B572
:105D3C00036001F093FE00BD901D2100024B00B5E5
:105D4C00036001F08BFE00BD901D2100024B00B5DD
:105D5C00036001F083FE00BD901D210010B50446C8
:105D6C0000F15C0005F0E2F9044B04F144006365BA
:105D7C0005F0B2FB204606F0AFF910BD901D2100D6
:105D8C0000B5406805F080FB00BD00BF344B30B55A
:105D9C00196808B925E0013010F0030FFBD14C68ED
:105DAC0004300F2898BF10202246002C53D0636873
:105DBC0000F1100C634507D2834213D0D268002A3D
:105DCC0049D053686345F7D31B1A5360D1F80CC004
:105DDC00C0EB0C0CC1F80CC063B11268D118D050D8
:105DEC00081D30BD1B1A5360D1F80CC0C0EB0C0C55
:105DFC00C1F80CC0D1F800C0BCF1010F0BD09568F4
:105E0C0095B1D468DCB1EC60D4680CF1FF3CA560B2
:105E1C00C1F800C0E1E74FF0000CC1F804C0C1F8B4
:105E2C0008C0C1F800C0D8E7BCF1000FD5D0E468B9
:105E3C000CF1FF3C4C60C1F800C0A560CDE7BCF193
:105E4C00000FCAD08D680CF1FF3CAD68C1F800C0E2
:105E5C008D60EC60C1E7084601F0FCFD0020C0E756
:105E6C003C000020D0F820C0C1694FEA0C1242EA75
:105E7C0081112DE9F00F8269ADF5077D114347F2D1
:105E8C000802C4F20D02116047F20001C4F20D01C8
:105E9C000A6812F0800FFBD047F21002C4F20D0218
:105EAC00116847F20C02C4F20D021268BCF1020F29
:105EBC0002EB012292B204BF42F3891292B20FD0CC
:105ECC00BCF1030F04BF42F30B1292B208D0BCF129
:105EDC00010F15BF42F3462242F3C81292B292B29E
:105EEC000169D0F814A012B206928901C26841EA85
:105EFC000A111143059147F2080047F2100147F2CD
:105F0C000C024FF00008C4F20D0047F20007C4F277
:105F1C000D01C4F20D0243F24805404E0290C4F24A
:105F2C000D0703910492C4F20305D446C3460598A9
:105F3C00029908603A6812F0800FFBD0039ADDF8E2
:105F4C0010A01168DAF80020BCF1020F02EB01225C
:105F5C0092B204BF42F3891292B20FD0BCF1030F7C
:105F6C0004BF42F30B1292B208D0BCF1010F15BF63
:105F7C0042F3462242F3C81292B292B2069812B27F
:105F8C00121A07A941F80820934496E803002A68DE
:105F9C000190002000909DE8030010EB020941F1F4
:105FAC00000A4FF45051002219EB01094AEB020A86
:105FBC0096E803002A6800230446981844F100016F
:105FCC008A45F5D801D18145F2D808F10408B8F515
:105FDC00007FACD10BF17F03D94639EA2B0928BFDE
:105FEC00994600234FEAE91C194607A8C258CCEB86
:105FFC000202C2500433B3F5007F02FB0211F5D14B
:10600C0001F17F0331EA210128BF1946C81120EAAA
:10601C00E0700DF5077DBDE8F00F7047C40F002050
:10602C002DE9F04FC3B2924601229A4096B01290DD
:10603C0044F280009B001491C4F20D0048F610014C
:10604C001818D243C4F20801139211900C9148F61F
:10605C00140248F6180348F6240048F61C01C4F252
:10606C000802C4F20803C4F20800C4F2080147F2A3
:10607C00000BDFF898C20D920E930F901091C4F2A2
:10608C000D0B11E000F0D68040F2A411C2F2000119
:10609C00CB681E68B36E002B40F0BA80181E18BF78
:1060AC000120002800F0C38072B60C9A0023136004
:1060BC00DCF800900D9A4FEA092080460E9816687D
:1060CC001F460368089719027A180F9948F10003C4
:1060DC000868921943F10003010C00040591049027
:1060EC0004A903C9121848F62000C4F2080043EBB7
:1060FC000103006810990E68010A000607910690CA
:10610C0006A903C90996121843EB010308A903C990
:10611C001218DCF8000043EB0103814505D0002088
:10612C004FF48071121843EB010362B640F2C04485
:10613C00C2F2000494E80300801841EB0301DAF882
:10614C005C304D09D3F890204409AA4244EAC1645A
:10615C0098D949F20042C4F20D021168139800EA72
:10616C0001011160119901220A60129A42F0B001EA
:10617C0047F20802C4F20D021160DBF8002012F0A5
:10618C00800FFAD047F21002C4F20D02116847F2E8
:10619C000C02C4F20D021268CAF83C40CAF8405016
:1061AC0002EB012242F30B12CAF83020C3F827206D
:1061BC00220C9A802A0C5C80DD801A81DAF85C90C3
:1061CC00B9F80230B9F80410B9F8082043EA0141D3
:1061DC00B9F8063043EA0243D9F888209A4204D829
:1061EC002ED0D9F890209A4232D2DAF80030CDF87D
:1061FC000CC09B685046984740F2A411C2F20001B3
:10620C00CB68DDF80CC01E68B36E002B3FF446AFB4
:10621C0006F14400CDF80CC005F04AF9B36EDDF878
:10622C000CC0181E18BF012000287FF43DAF16B01B
:10623C00BDE8F08FD3F88C20A2427FF625AF88E71B
:10624C00D9F884208A42D0D8D9F890209A42CCD35D
:10625C0003D1D9F88C308B42C7D340F2FC13C2F275
:10626C00000319684FF0FF33D9F880E08DF85430F3
:10627C008DF8553004238DF85730086800230268D8
:10628C0000930193AEF11E030293CDF80CC0166A75
:10629C000DF1570315AAB0474946D9F88020064698
:1062AC0001F08CFC149AF378A018B27842EA03221D
:1062BC00337942EA0342737942EA0363C31AC3F3A4
:1062CC00072286F8233086F82420C3F307421B0EDE
:1062DC0086F8252086F82630304607F00BF8304635
:1062EC0006F012FE304607F095F9304606F062F8DB
:1062FC0040F2FC10C2F200000368314618680368D3
:10630C005B6A9847DDF80CC06FE700BFBC04002047
:10631C002DE9F04F48F6180392B0C4F2080310911F
:10632C00924648F6100148F61402C4F20801C4F271
:10633C0008020C93A04B0A910B9248F6240148F6E4
:10634C001C02C4F20801C4F2080203EB80030D9195
:10635C000E920F9311E000F0C48040F2A411C2F22F
:10636C000001CB681E68B06E002840F0AA8000388F
:10637C0018BF0120002800F0B18072B60A9B4FF0C4
:10638C00000BC3F800B059465F460B9ADDF830B0ED
:10639C0040F2BC4CC2F2000CDCF800901668DBF842
:1063AC0000304FEA09201B028046C81848F1000152
:1063BC00821941F100030D99069708684FEA104CB9
:1063CC000004CDF814C0049004A903C9121848F6AF
:1063DC00200043EB0103C4F208000E9900680E681C
:1063EC004FEA006B4FEA102C12EB0B02079606A932
:1063FC0003C943EB0C03121843EB010340F2BC41FD
:10640C00C2F200010868814505D000204FF480716C
:10641C00121843EB010362B640F2C044C2F200040E
:10642C0094E80300801841EB0301DAF85C304D0965
:10643C00D3F890204409AA4244EAC1648BD90F993D
:10644C00CDF80CC00868FFF70DFDDAF85C30220CB3
:10645C00CAF83000CAF83C40CAF840509A802A0C5E
:10646C005C80DD801A81DAF85C90C3F82700B9F8FB
:10647C000230B9F80410B9F8082043EA0141B9F820
:10648C000630DDF80CC043EA0243D9F888209A4262
:10649C0004D82CD0D9F890209A4230D2DAF80030B7
:1064AC00CDF80CC09B685046984740F2A411C2F23C
:1064BC000001CB68DDF80CC01E68B06E00283FF4FC
:1064CC0056AF06F14400CDF80CC004F0F1FFB06EED
:1064DC00003818BF012000287FF44FAF12B0BDE880
:1064EC00F08FD3F88C30A3427FF637AFA7E7D9F8FB
:1064FC0084208A42D2D8D9F890209A42CED303D1A4
:10650C00D9F88C308B42C9D340F2FC124FF0FF33D8
:10651C00C2F20002D9F880E011688DF844308DF891
:10652C00453004238DF84730086800230268009337
:10653C000193AEF11E030293CDF80CC0166A0DF157
:10654C00470311AAB0474946D9F88020064601F006
:10655C0035FB109AF378A018B27842EA032233790B
:10656C0042EA0342737942EA0363C31AC3F3072274
:10657C0086F8233086F82420C3F307421B0E86F8D6
:10658C00252086F82630304606F0B4FE304606F05C
:10659C00BBFC304607F03EF8304605F00BFF40F2EE
:1065AC00FC10C2F2000003683146186803685B6A8D
:1065BC009847DDF80CC071E7700F0020A0F12000A7
:1065CC0000E000BF2DE9F04D054684B072B648F6E8
:1065DC0010030022C4F20803DFF8ACE148F6140102
:1065EC001A60C4F20801DEF800C00E6848F6180103
:1065FC00C4F208010F684FEA0C243F02D01944F191
:10660C000001831941F1000448F62401C4F2080189
:10661C000E683004310C1B1844EB010448F62001C1
:10662C00C4F208010E6848F61C01C4F208013006D9
:10663C000F68310A1B1844EB01049B18DEF800208C
:10664C0044EB0704944505D000214FF480725B188D
:10665C0044EB020462B64D4A06CAC91842EB040266
:10666C004B0943EAC263EB6353092B64EA6C484B56
:10667C0053F82200FFF7F6FB2B6828639B6828462B
:10668C009847EB6D33B32A6BC3F82720AA8F5A8037
:10669C00EA8F9A80B5F84020DA80B5F842201A814A
:1066AC00EC6D05F13C0B9BE8000C6388A28805F1AE
:1066BC00440898E8800143EA02412289E38843EACE
:1066CC000243D4F888209A4204D858D0D4F89020A9
:1066DC009A4202D204B0BDE8F08D03D1D4F88C30CC
:1066EC008B42F7D32B4D4FF0FF33D4F880C0296881
:1066FC008DF80C308DF80D3004238DF80F300868B0
:10670C000023026800930193ACF11E030293166AF6
:10671C000DF10F0303AAB047D4F88020064621469A
:10672C0001F04CFAF078B37817EB0A0143EA002336
:10673C00307943EA0043707943EA0063CB1AC3F320
:10674C00072286F8233086F82420C3F307421B0E59
:10675C0086F8263086F82520304606F0CBFD3046EC
:10676C0006F0D2FB304606F055FF304605F022FE0F
:10677C002B683146186803685B6A9847AAE7D4F817
:10678C0084208A42A2D9A5E7BC040020C0040020C2
:10679C00700F0020FC010020F0B5438882880D4664
:1067AC0043EA02410289C38884B043EA0243D0F829
:1067BC00882004469A4204D805D0D4F890209A42F6
:1067CC0009D204B0F0BDD0F884208A42F9D8D4F8AC
:1067DC0090209A42F5D303D1D4F88C308B42F0D36D
:1067EC00254E4FF0FF338DF80C308DF80D3031689D
:1067FC0004238DF80F30D4F880C008680023026899
:10680C0000930193ACF11E030293176A0DF10F0371
:10681C0003AAB84721460746D4F8802001F0CEF9E8
:10682C00FA78BB78384643EA02233A7943EA0243C2
:10683C007A7943EA02632A68D31AC3F3072287F8EA
:10684C00233087F82420C3F307421B0E87F8263029
:10685C0087F8252006F04EFD384606F055FB3846E5
:10686C0006F0D8FE384605F0A5FD336839461868A1
:10687C0003685B6A9847A4E7FC010020A0F11000B4
:10688C0000E000BF2DE9F04F1C461B789EB0C3F30F
:10689C00C103012B05467ED005D3022B00F0C58029
:1068AC001EB0BDE8F08F94F8282094F82910C36D21
:1068BC0042EA012194F82A2094F82D0041EA024181
:1068CC0094F82B2041EA026194F82C2042EA002231
:1068DC0094F82E0042EA004294F82F00C3F884107A
:1068EC0042EA0062C3F8882094F8302094F8311002
:1068FC0094F8350042EA012194F8322041EA024131
:10690C0094F8332041EA026194F8342042EA0022E0
:10691C0094F8360042EA004294F83700C3F88C1021
:10692C0042EA0062C3F8902094F83C3003F0030371
:10693C00022B00F0638194F8413094F8422094F8D3
:10694C00461043EA022294F8433042EA034294F898
:10695C00443042EA036294F8453043EA012394F848
:10696C00471043EA014394F8481043EA016352EAA2
:10697C00030100F054816E6D002E00F0B181F06DBA
:10698C00316E01438CD006F15C0013A91392149361
:10699C0004F012FC84E7E278A37843EA022322791C
:1069AC0043EA0243627943EA0261E279A37943EA5A
:1069BC000223227A43EA0243627A43EA0263026CBC
:1069CC009A4203D331D1C36B8B422ED22B6D13F071
:1069DC00040F00F020812A6BD4F82730D3182B63D6
:1069EC0094F8223004F10A0185F83430062205F1BE
:1069FC00350001F0E3F8A378E278E17943EA02226A
:106A0C002379284642EA0342637942EA0362A37976
:106A1C0043EA0123217A43EA0143617AEA6343EAB8
:106A2C0001632B642B689B6898472B6D13F0030F45
:106A3C003FF436AFD5F858A0BAF1000F00F0D6806D
:106A4C00DFF894B34FF0FF338DF874308DF8753058
:106A5C00DBF8001004238DF87730086800260368F3
:106A6C0061220292009601961F6A1DAA0DF177030E
:106A7C00B847074672B648F61003C4F208031E6006
:106A8C00D64848F61403C4F208030168D3F800C0D2
:106A9C0048F61803C4F20803D3F800E04FEA0129C2
:106AAC004FEA0E2E16EB0E0249F1000312EB0C0806
:106ABC0043F1000948F62403C4F20803D3F800C0DC
:106ACC004FEA0C424FEA1C4318EB020849EB03094E
:106ADC0048F62003C4F20803D3F800E048F61C0380
:106AEC00C4F208034FEA0E62D3F800C018EB020898
:106AFC004FEA1E2349EB0309036818EB060849EB20
:106B0C000C09994206D000224FF4807318EB02084E
:106B1C0049EB030962B6B24B19AE93E80600304656
:106B2C00049105920622AF4901F048F817AB1846BC
:106B3C000622AC49039301F041F86FF06B023A70F6
:106B4C0000227A7004AA06CA11EB080142EB090272
:106B5C00480940EAC260C0F3072CB87087F803C03C
:106B6C00C0F3074C000E7871C2F34710B871C2F332
:106B7C004730F871C2F34750520F87F804C038728F
:106B8C007A723146062207F10A0001F017F8039BCE
:106B9C000622194607F1180001F010F80AF11E013F
:106BAC001A2207F11E0001F009F80AF1380104223B
:106BBC0007F1380001F002F804F13C01042207F15E
:106BCC003C0000F0FBFF384606F094FB384606F01C
:106BDC009BF9384606F01EFD384605F0EBFBDBF85A
:106BEC0000303946186803685B6A984705F1350030
:106BFC0004F10A01062200F0E1FF51E66C6D002C55
:106C0C003FF44EAE2046FFF7A9F8204600F026FFD1
:106C1C0000236B6544E6D4F827302B63E0E6EA6C7E
:106C2C000121D0B201FA00FE49F20043C4F20D0377
:106C3C00D3F800C020302CEA0E0CC3F800C044F28C
:106C4C000003C4F20D0343F8201047F2080342F08E
:106C5C00B002C4F20D031A6047F20002C4F20D0236
:106C6C00136813F0800FFBD047F21003C4F20D032E
:106C7C001A6847F20C03C4F20D031B6803EB0223E2
:106C8C0043F30B132B63FEF7F7FFEB6D2A6BE863F3
:106C9C0029645880C3F82720EA8F9A80B5F84010F1
:106CAC00D980B5F842201A8194F83E2094F83D30F2
:106CBC0094F83FC043EA022343EA0C4394F840C0E3
:106CCC0005F13C0206CA43EA0C6C11EB0C0342EBD7
:106CDC00EC74E86D11A911931294FFF75DFDDFE5DB
:106CEC001592169394F83E2094F83D3094F840A0F9
:106CFC0043EA022394F83F20802043EA024343EA0C
:106D0C000A6AFFF743F8159B02221C930893169B03
:106D1C00069209931C9B00210793334B00221B689E
:106D2C004FF440670C910D920A910B92D5F84C8060
:106D3C000E960F9610970360069B044603614661FE
:106D4C008661E06100F1200C0DF11C0EBEE80F0015
:106D5C00ACE80F009EE807008CE80700E6632664A9
:106D6C00109A20460EA904F0DDFC6660A268109B08
:106D7C00D318A3F140024FF0807143F8401C1B491B
:106D8C001B4841F00101916340F00101D1631EA940
:106D9C0043F838AC43F83C8C43F8345CE2603A4638
:106DAC0041F80C0D04F14407204604F077FF3846F7
:106DBC00314604F063FB0F4B04F15C00636504F196
:106DCC00540215A94FF0FF33A76504F0A7FA20462B
:106DDC0004F006FF6C6563E5FC010020BC04002098
:106DEC00C004002088040020A0010020C1792000EC
:106DFC002D602000681D2100A0F1100000E000BFF4
:106E0C002DE9F04F1C461B789FB0C3F3C103012B37
:106E1C0005467ED005D3022B00F0C5801FB0BDE81F
:106E2C00F08F94F8282094F82910C36D42EA0121C0
:106E3C0094F82A2094F82D0041EA024194F82B2072
:106E4C0041EA026194F82C2042EA002294F82E00C8
:106E5C0042EA004294F82F00C3F8841042EA006220
:106E6C00C3F8882094F8302094F8311094F8350049
:106E7C0042EA012194F8322041EA024194F833208D
:106E8C0041EA026194F8342042EA002294F8360078
:106E9C0042EA004294F83700C3F88C1042EA0062D0
:106EAC00C3F8902094F83C3003F00303022B00F05D
:106EBC00778194F8413094F8422094F8461043EAD4
:106ECC00022294F8433042EA034294F8443042EAF6
:106EDC00036294F8453043EA012394F8471043EADF
:106EEC00014394F8481043EA016352EA030100F0AD
:106EFC00AD816E6D002E00F00182F06D316E01439C
:106F0C008CD006F15C0014A91492159304F054F97A
:106F1C0084E7E278A37843EA0223227943EA024326
:106F2C00627943EA0261E279A37943EA0223227A85
:106F3C0043EA0243627A43EA0263026C9A4203D345
:106F4C0031D1C36B8B422ED22B6D13F0040F00F09A
:106F5C0079812A6BD4F82730D3182B6394F822301C
:106F6C0004F10A0185F83430062205F1350000F0F1
:106F7C0025FEA378E278E17943EA022223792846B8
:106F8C0042EA0342637942EA0362A37943EA0123AA
:106F9C00217A43EA0143617AEA6343EA01632B6491
:106FAC002B689B6898472B6D13F0030F3FF436AF9B
:106FBC0004F13C030693EB6CB3F1FF3F0ED0DFF80A
:106FCC00543494F83C201B68002A40F0F6801B686F
:106FDC009968022900F06E81DB681A60D5F858A018
:106FEC00BAF1000F00F0D480DFF82CB44FF0FF336F
:106FFC008DF878308DF87930DBF8001004238DF89B
:10700C007B30086800260368612202920096019684
:10701C001F6A1EAA0DF17B03B847074672B648F6E5
:10702C001003C4F20803FD4848F6140C48F6180E79
:10703C001E60C4F2080CC4F2080E0168DCF800C033
:10704C00DEF800E00B024FEA0E2E16EB0E0843F1B1
:10705C00000948F62403C4F2080318EB0C08D3F813
:10706C0000C049F100094FEA0C424FEA1C4318EBEF
:10707C00020849EB030948F62003C4F20803D3F8CD
:10708C0000C048F61C03C4F208034FEA0C62D3F8A4
:10709C0000E018EB02084FEA1C2349EB03090368D4
:1070AC0018EB060849EB0E09994206D000224FF462
:1070BC00807318EB020849EB030962B6D84B1AAE81
:1070CC0093E806003046049105920622D54900F05B
:1070DC0075FD18AB18460622D249039300F06EFDDD
:1070EC006FF06B023A7000227A7004AA06CA11EB98
:1070FC00080142EB0902480940EAC260C0F3072CC0
:10710C00B87087F803C0C0F3074C000E7871C2F357
:10711C004710B871C2F34730F871C2F34750520FA1
:10712C0087F804C038727A723146062207F10A00D9
:10713C0000F044FD039B0622194607F1180000F0ED
:10714C003DFD0AF11E011A2207F11E0000F036FD6A
:10715C000AF13801042207F1380000F02FFD0699DE
:10716C00042207F13C0000F029FD384606F0C2F875
:10717C00384605F0C9FE384606F04CFA384605F09C
:10718C0019F9DBF800303946186803685B6A9847D0
:10719C0005F1350004F10A01062200F00FFD3DE671
:1071AC006C6D002C3FF43AAE2046FEF7D7FD20461E
:1071BC0000F054FC00236B6530E6012A00F0968049
:1071CC00994B1B681B685B685968C86820F0010004
:1071DC00C8605968086804281FBF4FF0040C886AFF
:1071EC00C1F800C0596819BF4FEA104CC1F838C03B
:1071FC00886AD1F838C014BF596800EB0C404FF0C6
:10720C000E0CC1F804C0D3F804C020F07F40DCF8A9
:10721C000C1002FB00F221F48041CCF80C1048F267
:10722C001F51C5F2EB11A1FB02815A68A0EB511161
:10723C00080C10645A6811635B68DA6842F001024A
:10724C00DA60CBE6D4F827302B6387E6EA6C774B11
:10725C0053F82200FEF706FE2863FEF70DFDEB6DDA
:10726C002A6BE86329645880C3F82720EA8F9A8038
:10727C00B5F84010D980B5F842201A8194F83E2018
:10728C0094F83D3094F83FC043EA022343EA0C43A0
:10729C0094F840C005F13C0206CA43EA0C6C11EBB1
:1072AC000C0342EBEC74E86D12A912931394FFF7E4
:1072BC0073FAB3E5187849F200410003C4F20D01EA
:1072CC004118D1F800C058684CEA00000860D96831
:1072DC000A60197849F200420903C4F20D028A18B7
:1072EC0011685B6821EA0303136077E61B689A68F0
:1072FC00022A7FD0DB68FF221A606FE61692179382
:10730C0094F83E2094F83D3094F840A043EA0223D0
:10731C0094F83F20802043EA024343EA0A6AFEF7CE
:10732C0035FD169B02221D930993179B07920A9316
:10733C001D9B002108933E4B00221B684FF44067B5
:10734C000D910E920B910C92D5F84C800F961096D5
:10735C0011970360079B0446036146618661E061F7
:10736C0000F1200C0DF1200EBEE80F00ACE80F0070
:10737C009EE807008CE80700E6632664119A204615
:10738C000FA904F0CFF96660A268119BD318A3F182
:10739C0040024FF0807143F8401C2649264841F0CA
:1073AC000101916340F00101D1631FA943F838AC8E
:1073BC0043F83C8C43F8345CE2603A4641F80C0DDF
:1073CC0004F14407204604F069FC3846314604F0C9
:1073DC0055F81A4B04F15C00636504F1540216A9CC
:1073EC004FF0FF33A76503F099FF204604F0F8FB3C
:1073FC006C6513E5197849F200420903C4F20D02D9
:10740C008A181068596840EA01011160DA68FF2196
:10741C0011605EE7780F0020FC010020BC04002006
:10742C00C0040020880400207C0F0020700F002076
:10743C00A0010020C17920001D632000681D2100DF
:10744C00A0F1200000E000BF2DE9F04D054684B00E
:10745C0072B648F610030022C4F20803DFF808E203
:10746C0048F614011A60C4F20801DEF800C00E6878
:10747C0048F61801C4F208010F684FEA0C243F02C9
:10748C00D01944F10001831941F1000448F624019C
:10749C00C4F208010E683004310C1B1844EB0104D3
:1074AC0048F62001C4F208010E6848F61C01C4F22B
:1074BC00080130060F68310A1B1844EB01049B18B5
:1074CC00DEF8002044EB0704944505D000214FF46E
:1074DC0080725B1844EB020462B6644A06CAC9188F
:1074EC0042EB04024B0943EAC263EB635309EA6CB7
:1074FC000121D0B201FA00FE2B6449F20043C4F220
:10750C000D03D3F800C020302CEA0E0CC3F800C0D9
:10751C0044F20003C4F20D0343F8201047F20803B1
:10752C0042F0B002C4F20D031A6047F20002C4F23A
:10753C000D02136813F0800FFBD047F21003C4F256
:10754C000D031A6847F20C03C4F20D031B6828469E
:10755C0003EB022343F30B132B632B689B689847B5
:10756C00EB6D33B32A6BC3F82720AA8F5A80EA8FAE
:10757C009A80B5F84020DA80B5F842201A81EC6D7B
:10758C0005F13C0B9BE8000C6388A28805F14408CC
:10759C0098E8800143EA02412289E38843EA0243E6
:1075AC00D4F888209A4204D858D0D4F890209A4223
:1075BC0002D204B0BDE8F08D03D1D4F88C308B42EC
:1075CC00F7D32B4D4FF0FF33D4F880C029688DF8DA
:1075DC000C308DF80D3004238DF80F300868002323
:1075EC00026800930193ACF11E030293166A0DF12D
:1075FC000F0303AAB047D4F880200646214600F0BA
:10760C00DDFAF078B37817EB0A0143EA00233079FE
:10761C0043EA0043707943EA0063CB1AC3F30722B1
:10762C0086F8233086F82420C3F307421B0E86F815
:10763C00263086F82520304605F05CFE304605F0F5
:10764C0063FC304605F0E6FF304604F0B3FE2B68D1
:10765C003146186803685B6A9847AAE7D4F8842017
:10766C008A42A2D9A5E700BFBC040020C0040020B8
:10767C00FC01002070B500F0EDFAB5494B68002B09
:10768C0000F059815A6846F20300824209D8B2F5DB
:10769C00C04F06D0DB68002B00F04D815A68824247
:1076AC00F5D9A2F5C0425A60CA68A948A2F5C042F1
:1076BC00CA605A6892B90468012C00F0EF8099688E
:1076CC00002900F01E81DD68002D00F02881CD60BE
:1076DC00DA6891600268013A02605A681968DFF84A
:1076EC0074C200238C18CCF80030CCF80430CCF8E1
:1076FC000830CCF80C304CD04FF4C0408C5060604B
:10770C00A360E360DCF80C301B18CCF80C30DCF810
:10771C00043051F802E06068002B00F0A7801D686F
:10772C007044A8420CBF1A461A4604D0D26812B153
:10773C0011688842FAD159686D18AE4508D0DB68DB
:10774C00002B00F092801868596841188E45F6D1CC
:10775C0019461346C3B160685A6882186260DCF837
:10776C000000012800F092809A68002A00F09B80AB
:10777C00DD68002D00F0A680D560DB689A60DCF82F
:10778C000030013BCCF8003019B14A686368D3185B
:10779C004B60714BC3F800C000F09CFB00F0C4FCC4
:1077AC006E4B002293E8300043F24803C4F203030B
:1077BC0019686B4B55181868234643F1000644F6BC
:1077CC006D63C4F2C61305FB03F505F5405503685C
:1077DC003935644CB5F1FF3F28BF0135DB6A2560B4
:1077EC0098470378002B40F098804178003918BFF7
:1077FC00012149F20043C4F20D031A6822F0200261
:10780C001A6044F29402C4F20D020123136047F291
:10781C000802C4F20D02B523136047F20002C4F251
:10782C000D02136813F0800FFBD047F21002C4F264
:10783C000D02136847F20C02C4F20D02126881EAC1
:10784C00050502EB032244F66D63C4F2C61303FB79
:10785C0005F505F540553935B5F1FF3F28BF013524
:10786C0042F30B135D40256070BD1346DCF800102D
:10787C00002936D1A160E160DCF80020CCF804408E
:10788C000132CCF80840CCF8002063E70023CCF898
:10789C000430CCF80830CCF8003075E742608260D8
:1078AC0002605A681AE700283FF46EAFDCF8043027
:1078BC00DB68CCF804309A60DCF80030013BCCF883
:1078CC00003061E700283FF45FAFDCF808309B68BC
:1078DC00CCF80830DD60DCF80030013BCCF800302F
:1078EC0052E7DCF808200021D460DCF80820E160C5
:1078FC00A260DCF80020CCF808400132CCF8002063
:10790C0028E7002C3FF4EAAE4168C96841608A6000
:10791C000268013A02605A68E0E6012169E7002C2E
:10792C003FF4DCAE816889688160CA600268013A04
:10793C0002605A68D2E6DFF81CC00023CCF8003095
:10794C00CCF80430CCF80830CCF80C3021E700BF70
:10795C00B40F00202C0000203C000020C40F00209D
:10796C00D40400204800002000B500F053FA40F287
:10797C0094430022C2F200031A6040F29043C2F218
:10798C0000031A6040F22403C2F200030A211A71A8
:10799C00196040F21C03C2F2000319601A7100BD99
:1079AC00704700BF40F24003C2F2000300221A608D
:1079BC005A60704700B5004604F04AFA00BD00BF9B
:1079CC0000B504F045FA00BD00B509F05BFC00BD44
:1079DC002DE9F045002507467C5D1C4EAA46DFF8D4
:1079EC00708084B1092C29D00A2C18D03368204619
:1079FC000133336009F0BEFC33684F2B05DC0135D5
:107A0C007C5D002CEED1BDE8F0850D2009F0B2FCB8
:107A1C000A2009F0AFFC0135C6F800A0F0E70D20F4
:107A2C0009F0A8FC204609F0A5FCD8F80030C6F8EF
:107A3C0000A00133C8F800300135E1E7204609F019
:107A4C0099FC3368013508333360D9E79004002082
:107A5C009404002000B5FFF7B7FF00BD3D4B70B498
:107A6C001D6850F8043C041F0F2B41D9002240F82C
:107A7C00044C6360A260E260EA68D318EB606B6848
:107A8C0050F804CC6068002B35D01E686044B042BE
:107A9C000CBF1A461A4604D0D26812B1116888423B
:107AAC00FAD159687618B44507D0DB68002B21D081
:107ABC001868596841188C45F7D11946134693B18B
:107ACC0060685A6882186260286801281DD09A681C
:107ADC00002A1FD0DE68002E31D0D660DB689A6099
:107AEC002B68013B2B6019B14A686368D3184B6053
:107AFC0070BC704713462968B1B9A160E1602A686F
:107B0C006C600132AC602A60D9E700236B60AB601B
:107B1C002B60E8E70028E6D06B68DB686B609A6046
:107B2C002B68013B2B60DEE7AA680021D460AA68B1
:107B3C00E160A2602A68AC6001322A60BFE70028CD
:107B4C00D1D0AB689B68AB60DE602B68013B2B60CF
:107B5C00C9E700BF3C000020032A30B405460C46A0
:107B6C0010D941EA000313F0030F0CD1D0F800C078
:107B7C000B689C4504D1043A04300431032AF5D82F
:107B8C0005460C46B2B1287894F800C060450ED179
:107B9C00013A002372B105EB030C9CF8010004EBD5
:107BAC00030C9CF801C00133013A6045F2D0CCEBD8
:107BBC00000000E0002030BC704700BF0F2A30B43A
:107BCC0005460C4642D941EA000313F0030F02BFED
:107BDC0014468C46034609D0002314F803C005F85C
:107BEC0003C001339A42F8D130BC7047DCF8005026
:107BFC00103C1D60DCF804505D60DCF808509D60A2
:107C0C00DCF80C500CF1100CDD6010330F2CEDD89F
:107C1C00A2F1100404F00F0224F00F041034051923
:107C2C000C19032A12D9002354F803C045F803C0D9
:107C3C000433C3EB020CBCF1030FF5D8043A22F069
:107C4C0003030433ED18E41802F00302002AC3D135
:107C5C00CAE700BF00B500F003F800F095F800BDCE
:107C6C00DFF81CC147F2F832C2F20002CCEB020280
:107C7C0070B4002A4AD00023424DCCF800C0CCF896
:107C8C000420CCF80830CCF80C30EB686446D318E0
:107C9C00EB606B68002B3CD01E680CEB8200B04292
:107CAC000CBF1A461A4604D0D26812B11168884229
:107CBC00FAD1596806EB8106B44208D0DB68002B78
:107CCC0026D05868196801EB80018C42F6D1194610
:107CDC001346ABB1DCF804005A688218CCF80420C7
:107CEC002C68284A012C23D09868002825D0DD6800
:107CFC00002D3AD0C560DB6898601368013B1360B7
:107D0C0021B14A68DCF80430D3184B6070BC704762
:107D1C0013462A681B48D2B90121CCF80820CCF8AC
:107D2C000C200160C0F804C0C0F808C01146D0E7B0
:107D3C000023536093601360E2E7002CE0D053689B
:107D4C00DB68536098601368013B1360D8E7816867
:107D5C000132C1F80CC08168CCF808100021CCF8B5
:107D6C000C10C0F808C00260B3E7002CC8D09368B0
:107D7C009B689360DD601368013B1360C0E700BF34
:107D8C00CC0F0020B40F002043F20C03C4F2030309
:107D9C001A68122022F001021A6042F20802C4F2A0
:107DAC000D02116841F00801116042F20C02C4F29C
:107DBC000D02116841F00801116042F21002C4F288
:107DCC000D02116841F00801116043F2000200211C
:107DDC00C4F20302116043F20402C4F20302106005
:107DEC0043F22802C4F203024FF0FF30106043F25A
:107DFC003802C4F20302116043F21802C4F2030207
:107E0C00116841F0010111601A6842F001021A6018
:107E1C00704700BF4CF22043C4F20D031A6822F0E5
:107E2C00C0021A604CF20043C4F20D031A6822F02F
:107E3C00C0021A6044F2F8030122C4F20D031A6066
:107E4C0044F2FC03C4F20D031A6042F20002C4F2C5
:107E5C000D0211684FF6F873CFF6DC6301EA0303E9
:107E6C0043F4081342F204011360C4F20D010A68D2
:107E7C0040F20003C0F2011302EA0303002BF6D117
:107E8C0042F20003C4F20D031A6822F4E0621A6095
:107E9C0042F20402C4F20D02136813F0806FFBD09F
:107EAC00704700BF4EF61453CEF200031A6842F02E
:107EBC0001021A6042F29803C4F20D031A6842F0F0
:107ECC0001021A604EF60853CEF200034FF4011271
:107EDC001A60704700B5FFF7E5FF02F0D3FF00F022
:107EEC0019F800F09BF800F009F800F001F800BD5B
:107EFC0000B5002002F002FB00BD00BF044B0822BD
:107F0C0003F5807183F8002801338B42FAD1704756
:107F1C00700600204EF210034EF21802CEF200034F
:107F2C000021CEF20002196011604EF21402CEF262
:107F3C0000024FF4FA41116006221A6041F24D31F1
:107F4C0040F27052C2F20002C0F22101D1631A68F1
:107F5C0042F001021A60704740F251030022C2F253
:107F6C0000031A7040F25003C2F200031A7040F280
:107F7C004C03C2F200030221196040F6A473C2F252
:107F8C0000031A6040F6B073C2F2000349F2380CD9
:107F9C001A60C4F2080C032349F2400049F24C0168
:107FAC00CCF8003030B4C4F208000424C4F2080148
:107FBC0049F244030460C4F208030A601D6845F0EA
:107FCC0040051D601D6845F008051D601D6845F0E5
:107FDC0008051D602023CCF8004002600B6049F2BC
:107FEC005003C4F208031A6842F080021A601A683F
:107FFC0042F010021A6049F21C03C4F20803012279
:10800C001A6049F22403C4F208031A6049F22C03E3
:10801C00C4F208031C6030BC704700BF4BF2204315
:10802C00C4F20D031A682DE9F04822F004021A601C
:10803C004BF20043C4F20D031A6842F004021A60BA
:10804C004BF21003C4F20D03FF221A6049F23C02FA
:10805C00C4F20802136843F001031360136843F081
:10806C0002031360136813F0800FFBD049F2040372
:10807C00C4F208031A6822F001021A60FFF76CFFC1
:10808C001D4B01221A601D4A1D4BC3F8F0204EF205
:10809C000413CEF200034FF480521A60EFF31087F2
:1080AC00FFB207B162B6174843F24806C4F20306A2
:1080BC0090E80018316800225B4612EB010B49F284
:1080CC000002C0F2D03243F1000C00231BEB020B78
:1080DC004CEB030C90E80C00316800241546621838
:1080EC0045F100039C45F5D801D19345F2D807B171
:1080FC0062B6BDE8F08800BF4C00002001152100DD
:10810C0070050020C40F002000B540F2D443C2F229
:10811C00000381B01B6801A840F8043D684600F0DC
:10812C0073FC01B000BD00BF00B502F003FF00F00E
:10813C0001F800BD704700BF40F2FC13C2F200030F
:10814C001B680146186800B5036804221B68984731
:10815C0000BD00BF0023016043608360C3607047B3
:10816C00F0B5644C644D64226FF063012A700023F7
:10817C00A1704FF0FF3106462271E170227083B07E
:10818C00637163704FF028105C4908221F46FFF79B
:10819C00E3FC28B920716771A070E07020706770E3
:1081AC00574B04221B683146186803681B689847B4
:1081BC002379627943EA0220A378E27843EA022128
:1081CC002378627853EA022274D04E4B18684368C5
:1081DC003BB15A68572A08D8482A06D0DB68002BCE
:1081EC00F7D1FFF737FC00241BE0483A5A60C2680D
:1081FC00483AC2605A687AB90468012C5FD0996811
:10820C00002961D0DE68002E69D0CE60DA689160FA
:10821C000268013A02605A681B6848219C18995000
:10822C000434394B01221B6822614FF6FD72236026
:10823C00C7F6FF720023A3616360636100210092A3
:10824C0000226163A263E16222636162A262E46163
:10825C00009A03A92262E3632364204641F8043D9B
:10826C004FF4406203F05EFAA36803F53C614FF0F3
:10827C008070C3F8C00B2548254A40F00100C3F8B4
:10828C00F80B42F00100C3F8FC0BE16003A941F8C4
:10829C00082D20464FF4406203F000FD2B784F2B45
:1082AC0006D81C4CE36803F00BFB2B784F2BF9D949
:1082BC0003B0F0BD002988D1002886D1EEE74260DA
:1082CC00826002605A68A7E7002CA5D04168C96893
:1082DC0041608A600268013A02605A689CE7002C8F
:1082EC009AD0816889688160CA600268013A02602C
:1082FC005A6891E78804002094020020541E210043
:10830C00FC0100203C000020A0010020C1792000CD
:10831C00DD852000A40100202DE9F04FA34E01467D
:10832C0033797779F07843EA0727B378727843EAA0
:10833C000020337898B053EA022200F01A819C4B4B
:10834C0004221B68186803681B6898473379727994
:10835C0043EA0220B378F27843EA02213378727848
:10836C0053EA022200F0FD80DFF848B2DFF848C281
:10837C009248CDF834B0CDF830C0119048F6100BBF
:10838C0048F6200748F61C06C4F2080B48F61409F8
:10839C0048F6180A48F62408C4F20807C4F208067E
:1083AC00C4F20809C4F2080AC4F20808CDF808B0EF
:1083BC000097019672B6029800210C9B01601A6816
:1083CC00D9F80040DAF8003016021B0211EB030B4F
:1083DC000D46D8F8001046F1000C1BEB040310946A
:1083EC004CF100044FEA114C0904CDF81CC0009F5D
:1083FC00069106A903C91B1844EB0104DDF804B06F
:10840C003968DBF800C00F0A09060997089108A91A
:10841C0003C9CDF82CC01B180A950C9F44EB010422
:10842C000AA903C91B1844EB010439688A4205D018
:10843C0000204FF480711B1844EB010462B6119FAD
:10844C000D9897E80600DDF834B0C91842EB040229
:10845C00D0F804C04B09DBF800B043EAC263520900
:10846C006245CDF840B005D802D018B0BDE8F08F09
:10847C005B45FAD972B6029A00230C9C13602268F1
:10848C000E93D9F800E0DAF8003017020F974FEA94
:10849C00032B0EA903C910EB0B0341F10004D8F810
:1084AC00001013EB0E0344F100044FEA114B0904C6
:1084BC00CDF84CB0009F129112A903C91B1844EBC4
:1084CC0001043968DDF804B00F0A090615971491F8
:1084DC0014A903C9DBF800E01B1844EB01040021CC
:1084EC00CDF85CE016910C9F16A903C91B1844EB40
:1084FC00010439688A4205D000204FF480711B18A2
:10850C0044EB010462B6119FDDF840B097E8060019
:10851C00C91842EB04024FEA511ECDF810B0CDF849
:10852C0014C004A903C926A418CC4EEAC26E520981
:10853C00C01841EB04018A420490059107D804D07D
:10854C00214BDB6803F0BCF934E78645F8D91F4BA7
:10855C000020002183E803001B4BDB6803F0B0F91B
:10856C0028E7A9B11349144A144B0D910C9211939D
:10857C0004E700287FF4E3AE002F7FF4E0AE0D4853
:10858C004FF0FF324FF0FF33074680E80C00D6E681
:10859C0000283FF46AAF074FDFF81CB0DFF81CC0AF
:1085AC000D97CDF830B0CDF844C0E7E68804002034
:1085BC00FC010020D8010020BC040020C0040020D5
:1085CC0000A3E11100000000A4010020EC01002038
:1085DC002DE9F04F48F6100048F6140148F6180241
:1085EC0048F6240348F6200548F61C06B2B0C4F23F
:1085FC000800C4F20801C4F20802C4F20803C4F271
:10860C000805C4F20806FB4CDFF8EC9311901291AC
:10861C0013921493159516961CE140F2FC13C2F2BA
:10862C00000319684FF0FF338DF8C4308DF8C53056
:10863C0004238DF8C73008680026036803220292D1
:10864C00009601961D6A31AA0DF1C703A84705468D
:10865C0072B6119FDDF848E03E6013982368DEF88F
:10866C00002001684FEA03284FEA012CCDF88080E6
:10867C001F961FA903C910EB0C0741F100081499B0
:10868C00BF180A6848F100084FEA124E1204CDF8E0
:10869C0070E01B921BA903C93F1848EB0108159900
:1086AC00DDF858E00A68DEF800C0110A12061D92C7
:1086BC001E911DA903C9CDF888C03F18219648EB1F
:1086CC00010821AA06CA7F1848EB020822689342C7
:1086DC0005D000224FF48073BF1848EB030862B634
:1086EC00062299E803000B900C912FA8C349FFF7C1
:1086FC0065FA06222DA8C149FFF760FA00266FF033
:10870C0063032B706E700BAB0CCBD21943EB0803CD
:10871C00510941EAC361C1F30720A970E870C1F3A4
:10872C000740090E6971C3F34711A971C3F34731AF
:10873C00E971C3F347515B0F6B72287129720622E2
:10874C002FA905F10A00FFF739FA2DA9062205F128
:10875C001800FFF733FA0523AB77284604F0CAFD5F
:10876C00284604F0D1FB284604F054FF284603F0B9
:10877C0021FE72B61199129F0E60DDF84C80D4F870
:10878C0000E03868D8F800304FEA0E22190207963C
:10879C00089207AB0CCB571843F100083A18149FFA
:1087AC0048F100033868169F4FEA104C0004CDF8CE
:1087BC0010C0039003A903C9121843EB01031599C8
:1087CC0009960868D7F800C0010A000606910590C2
:1087DC0005A903C9CDF828C01218206843EB010382
:1087EC0009AFC0CF921943EB0703864505D0002093
:1087FC004FF48071121843EB010362B699E8030041
:10880C00801841EB03014FEA501A49F280624AEAA0
:10881C00C16AC0F298024FEA511B002312EB0A0204
:10882C0043EB0B03C5F89C20C5F8A03040F2FC11BB
:10883C00C2F200010B682946186803685B6A984706
:10884C0049F28062C0F2980200232BA82B922C9341
:10885C0002F0F0FD40F29427C2F200073B784F2B58
:10886C007FF6DBAE72B6DDF844800021C8F800104C
:10887C002068129A139D4FEA002CCDF860C0D2F8F4
:10888C0000C02B6817911B0217AE60CEEF1846F193
:10889C000008149E17EB0C02D6F800C048F1000338
:1088AC004FEA1C484FEA0C4CCDF834C0CDF8388058
:1088BC000DAE60CE521943EB0603159E169FD6F8EB
:1088CC0000C0D7F800E04FEA1C254FEA0C6C10955D
:1088DC00CDF83CC00FAFC0CF19919219CDF868E01C
:1088EC00216843EB070319AE60CE521943EB060324
:1088FC00884205D000264FF48077921943EB07038A
:10890C0062B640F2D81799E80300C2F2000780184B
:10891C0041EB0301D7F804C04A0943096245D7F873
:10892C0000E043EAC16302D88AD1734588D972B694
:10893C00DDF844800021C8F800102568129B139EB6
:10894C00280228901868336827914FEA032827AB30
:10895C000CCB12EB080643F10007321847F1000369
:10896C00149F29913868060C00042390249623AF99
:10897C00C0CF921943EB0703159F169E3868D6F8A3
:10898C000080060A00062590269625AFC0CFCDF8AC
:10899C00A880921929A903C943EB0703121843EBCA
:1089AC00010321688D4205D000254FF480765219C1
:1089BC0043EB060362B699E80300801841EB030110
:1089CC0043090FA7C0CF480943EAC1631EEB060158
:1089DC004CEB0702904204D87FF41FAE8B427FF61B
:1089EC001CAE40F2EC1200200021C2F2000282E820
:1089FC00030012E6BC040020C00400208804002000
:108A0C0000A3E111000000002DE9F0410546DFF85C
:108A1C001844206843683BB15A681F2A08D8102AAA
:108A2C0006D0DB68002BF7D1FFF714F800231EE00B
:108A3C00103A5A60C268103AC2605A6892B9066815
:108A4C00012E00F075819968002900F0A581DF687E
:108A5C00002F00F0DD81CF60DA6891600268013A86
:108A6C0002605A68196810208B18885004332A68E1
:108A7C00DFF8B8831A60C8F80030206843683BB14F
:108A8C005A68232A08D8142A06D0DB68002BF7D1A1
:108A9C00FEF7E0FF00271EE0143A5A60C268143A51
:108AAC00C2605A6892B90568012D00F02D81996851
:108ABC00002900F04E81DE68002E00F08581CE602A
:108ACC00DA6891600268013A02605A681B681421E6
:108ADC009F1899500437D64A00233A60D54A7F60D4
:108AEC003B72FB60DFF850C31360D44A44F66D61EF
:108AFC001370DCF80030C4F2C61101FB03F303F56C
:108B0C0040533933B3F1FF3F28BF01339AB201FB15
:108B1C0003F303F540533933B3F1FF3F28BF01335F
:108B2C0098B201FB03F303F540533933B3F1FF3F24
:108B3C0028BF01339DB2002A59D0CCF80030C04B6D
:108B4C001D7198702D0A000A1A70120A5D71D87086
:108B5C005A70206843683BB15A68232A08D8142AF3
:108B6C0006D0DB68002BF7D1FEF774FF00261EE061
:108B7C00143A5A60C268143AC2605A6892B90568CD
:108B8C00012D00F0C6809968002900F0D680DE68BF
:108B9C00002E00F00D81CE60DA6891600268013A17
:108BAC0002605A681B6814219E18995004360023E1
:108BBC003372F360A34B00213360A34B0022766029
:108BCC0083E80600A14B83E80600A14B83E806006E
:108BDC00206843683BB15A68232A16D8142A14D04B
:108BEC00DB68002BF7D1FEF735FF00252EE00028BF
:108BFC007CD0CCF80030924B1D7198702D0A000A75
:108C0C005D71D8701A705A70A3E7143A5A60C26832
:108C1C00143AC2605A68A2B90568012D7ED09968D1
:108C2C00002900F0AD80D3F80CC0BCF1000F00F0AF
:108C3C00E380C1F80CC0DA6891600268013A026006
:108C4C005A681B6814219D189950043500232B7207
:108C5C00EB60804B6D602B60206843683BB15A68B9
:108C6C00232A09D8142A07D0DB68002BF7D100245B
:108C7C00FEF7F0FE234620E0143A5A60C268143A1C
:108C8C00C2605A689AB90468012C4CD099680029C2
:108C9C006BD0D3F80CC0BCF1000F00F0A180C1F870
:108CAC000CC0DA6891600268013A02605A6819686F
:108CBC0014208B18043388501C4600221A72DA6078
:108CCC00654A5B601A603846FFF74AFA3046FFF790
:108CDC0023FB2846FFF730FAD8F8003021461868F5
:108CEC00042203681B689847BDE8F081002D3FF40F
:108CFC0004AFCCF80030524B1D712D0A5D71987089
:108D0C00D8701870587024E74260826002605A680C
:108D1C00DCE64260826002605A6843E7426082602F
:108D2C0002605A688DE74260826002605A68BEE752
:108D3C004260826002605A6894E6002D3FF432AFC4
:108D4C004168C96841608A600268013A02605A68E9
:108D5C0028E7002D3FF4BAAE4168C96841608A60CB
:108D6C000268013A02605A68B0E6002C9FD0416854
:108D7C00C96841608A600268013A02605A6896E7E5
:108D8C00002D3FF45EAF4168C96841608A6002689B
:108D9C00013A02605A6854E7002E3FF463AE416812
:108DAC00C96841608A600268013A02605A6859E6F3
:108DBC00002D3FF4F7AE816889688160CA60026853
:108DCC00013A02605A68EDE6002D3FF47FAE8168EF
:108DDC0089688160CA600268013A02605A6875E667
:108DEC00002C3FF464AF816889688160CA600268B6
:108DFC00013A02605A685AE7002D3FF422AF8168AD
:108E0C0089688160CA600268013A02605A6818E792
:108E1C00002E3FF427AE816889688160CA600268C1
:108E2C00013A02605A681DE63C000020FC0100205B
:108E3C00E81E210084040020480000209402002039
:108E4C0088040020DC1E2100D0010020EC01002051
:108E5C00D8010020D01E2100C41E21002DE9F047AE
:108E6C0072B6454A1368116813F0080F21EA030122
:108E7C00116003D0414A11680131116013F0020FE7
:108E8C0070D0DFF8FC80D8F80030002B6AD048F6A0
:108E9C0010024FF0000CC4F20802384F48F61404CC
:108EAC00C2F800C0C4F208043E68D4F800A048F62A
:108EBC001804C4F20804D4F8009032024FEA0929CD
:108ECC001CEB090442F1000514EB0A0148F62404DA
:108EDC00C4F20804D4F800A045F100024FEA0A4499
:108EEC00091948F62004C4F208044FEA1A45D4F8CC
:108EFC0000A042EB05024FEA0A64091948F61C046B
:108F0C004FEA1A25C4F2080442EB0502D4F800A07B
:108F1C0011EB0C01D7F800C042EB0A02664505D0F4
:108F2C0000244FF48075091942EB0502DFF854C098
:108F3C009CE83000954215D812D00022C8F80020C9
:108F4C0048F60802C4F208020821116062B698477C
:108F5C004EF20013CEF200034FF080621A6009E06B
:108F6C008C42EAD94EF20013CEF200034FF080622D
:108F7C001A6062B6BDE8F087D0040020BC04002063
:108F8C00A8040020A004002040F2B44300210022D9
:108F9C00C2F2000383E8060040F2C843C2F20003A9
:108FAC0083E8060040F2AC43C2F2000383E80600FB
:108FBC0048F60403C4F208031A6848F60C0122F0C0
:108FCC0001021A6048F60802C4F208020020C4F23A
:108FDC00080110600860196848F6696021F0020108
:108FEC0019601968C0F2200041F00801196040F2C4
:108FFC007051C2F20001C1F8C4004EF20411CEF25D
:10900C00000102200860116841F0080111601A6823
:10901C0042F001021A6070472DE9F001D4B20C72D3
:10902C0046680023CB6049600F1D002E22D0D0F87B
:10903C00088098F80430A34222D8D8F808308BB1B5
:10904C00454693F804C0A44507D9CDB10136AF60AD
:10905C004660CB60BDE8F00170479A6812B11D46BE
:10906C001346EEE7C36801369F600023CB60466071
:10907C00C760EFE70123CE6043608760C760E9E714
:10908C000136C1F80C8046608760E3E710B4446891
:10909C00012C17D0836801F1040C9C4517D04BB1FF
:1090AC009A682AB1944503D013469268002AF9D1E4
:1090BC00CA689A60C268944508BFC360013C4460AA
:1090CC0010BC704700238360C3604360F8E7002C3A
:1090DC00F6D0CB68013C83604460F1E7F0B584685E
:1090EC0006461746CDB29CB1002001E0A46874B1CD
:1090FC002379AB42FAD12068314603682A46D3F86B
:10910C0000C03B46E047A4680120002CF0D1F0BD24
:10911C002046FCE7014B0360704700BFAC1E2100EA
:10912C008368C9B27BB1002001E09B6843B193F81E
:10913C0004C08C45F9D122B918689B68002BF6D174
:10914C007047013AF1E71846FAE700BF0F4A0120D1
:10915C00002110B492E818001B1844EB0104012BF9
:10916C0082E818000BD00A4A012092E8180000216E
:10917C001B1844EB010482E8180010BC7047002C4B
:10918C00F1D1044A146054609460ECE75400002060
:10919C005C00002064000020024B00B50360FEF769
:1091AC005DFC00BDAC1E210048F234638022C4F289
:1091BC0008031A6048F63803E922C4F208031A605F
:1091CC00A24B46F2E0112DE9300893E8001800227A
:1091DC001BEB010B4CEB020C83E8001845F200036F
:1091EC00C4F20D03A0221A60994C50221A60236815
:1091FC00C3F34A02511E23F47E6389B223F01E038B
:10920C0043EA41032360002A40F0A780914B0024DD
:10921C001A684FF4C95313EB0B03C3F307215174B2
:10922C00C3F3074144EB0C049174190ED174C4F3CD
:10923C00072113741475230E517548F62C00C4F3D2
:10924C00074148F630049175D375C4F20804C4F292
:10925C0008002368C3F340031BB1216821F002010D
:10926C002160016811F0300F0CBF0021012119B1F0
:10927C00056825F0300505600BB90029E9D048F6E2
:10928C003803EE21C4F208031960D2F8C80048F282
:10929C007061C4F208010B68002BFCD148F628045D
:1092AC00C4F208042060023804D0D15C013383423C
:1092BC002160FAD372B648F60C03C4F208031A689C
:1092CC0002F008021A60644B1A6802F008021A6075
:1092DC00624B332218CBBBEB030B6CEB040C48F644
:1092EC001003C4F208031A6048F61403C4F208030E
:1092FC00C3F800B04FEA1B2248F6180342EA0C628E
:10930C00C4F208031A604FEA1B4248F6240342EAEF
:10931C000C42C4F208031A604FEA1B6248F62003A1
:10932C0042EA0C22C4F208031A6048F61C03C4F289
:10933C0008034B4AC3F800C04A4B1A604A4B83E8F7
:10934C00001848F60803C4F208031A6842F0120227
:10935C001A6062B6BDE83008704748F6300248F62D
:10936C002C03C4F20802C4F208031168C1F34001D3
:10937C0019B1106820F002001060186810F0300F5E
:10938C000CBF0020012018B11D6825F030051D60B0
:10939C0009B90028E9D048F63803EE22C4F20803D4
:1093AC001A6048F27062C4F208021368002BFCD1F8
:1093BC0048F62801C4F2080109220A60E25C013374
:1093CC00072B0A60FAD172B648F60C03C4F20803F4
:1093DC001A6802F008021A601F4B1A6802F00802A1
:1093EC001A601E4B332218CBBBEB030B6CEB040C3B
:1093FC0048F61003C4F208031A6048F61403C4F2CA
:10940C000803C3F800B04FEA1B2248F6180342EADF
:10941C000C62C4F208031A604FEA1B4248F624039C
:10942C0042EA0C42C4F208031A604FEA1B6248F687
:10943C00200342EA0C22C4F208031A6048F61C030B
:10944C00C4F20803C3F800C0084A75E78400002082
:10945C007000002080000020D0040020C0040020F8
:10946C0061962000A8040020A0040020B5912000E3
:10947C0045F20003C4F20D03A0221A6050221A60B8
:10948C006D4B01222DE9F0081A7072B648F61002E5
:10949C000023C4F20802694D48F614001360C4F2AC
:1094AC0008002C68D0F800C048F61800C4F2080078
:1094BC000068220200021E1848F62400C4F20800BC
:1094CC00006842F100074FEA004B16EB0C014FEA23
:1094DC00104C48F62000C4F20800066847F1000260
:1094EC0048F61C0011EB0B014FEA066B42EB0C0229
:1094FC00C4F2080011EB0B014FEA162C006842EB8A
:10950C000C02C9182B6842EB00029C4205D00023C8
:10951C004FF48074C91842EB040262B6DFF820C124
:10952C009CE8180072B648F60C00C4F208000568F6
:10953C004BF2206B05F008050560424813EB0B035A
:10954C00056805F0080505609CE860004FF0000C0C
:10955C0044EB0C045B1B64EB06045B1844EB020449
:10956C0048F610023321C4F20802116048F61402C6
:10957C00C4F208021360190A48F6180241EA0461A1
:10958C00C4F208021160190C48F6240241EA0441A5
:10959C00C4F208021160190E48F6200241EA0421B7
:1095AC00C4F20802116048F61C02C4F208021460EE
:1095BC002549264A1160264A82E8180048F6080315
:1095CC00C4F208031A6842F012021A6062B642F240
:1095DC00A803C4F20D031A6842F001021A6042F2A9
:1095EC00AC03C4F20D031A6842F001021A6042F295
:1095FC00B003C4F20D031A6842F001021A6048F27B
:10960C002463C4F208031A6822F00C021A6048F2B0
:10961C008C63C4F208031A6822F004021A601A68F8
:10962C0042F004021A6048F63803C4F20803E3223D
:10963C001A60BDE8F00870477D000020BC040020D3
:10964C00C0040020D0040020D59B2000A8040020DA
:10965C00A00400202DE9F041DA4B186890F89830FE
:10966C00002B40F0BE8048F23463C4F20803802221
:10967C001A6048F63803C4F20803E9221A6045F26E
:10968C000003C4F20D03A0221A6048F6300C5022DD
:10969C0048F62C011A60C4F2080CC4F20801DCF87C
:1096AC000030C3F340032BB1DCF8002022F002029F
:1096BC00CCF800200A6812F0300F0CBF00220122F7
:1096CC001AB10C6824F030040C600BB9002AE6D0F7
:1096DC0072B648F610030021C4F20803BA4E48F6DD
:1096EC0014021960C4F20802D6F800C0156848F6D6
:1096FC001802C4F2080212684FEA0C2412028F18E6
:10970C0044F1000848F62404C4F208047A192768C6
:10971C0048F100033C043D0C121948F62004C4F235
:10972C000804276848F61C04C4F2080443EB05033C
:10973C00D4F800803C063D0A121943EB050352187D
:10974C00316843EB08038C4505D000244FF4807539
:10975C00121943EB050362B69C4C9D4D94E8C00076
:10976C00B61847EB030785E8C0000378C3F3C103C1
:10977C00032B73D1837F052B70D172B6DFF854C2E3
:10978C00DCF8041039B30B68984218BF0B4600F094
:10979C0017815B68FBB11A689042FAD1DCF8006063
:1097AC008C4A012E00F0ED80994200F0FC804A6852
:1097BC002AB1934203D011465268002AF9D15A6853
:1097CC00DFF810E24A60DCF80820934200F0F380E6
:1097DC00013ECCF80060FEF741F962B695E8C00096
:1097EC003CE072B6DFF8ECC145F20003C4F20D03A5
:1097FC00A022DCF804101A6050221A6039B30B68EE
:10980C00984218BF0B4600F0BA805B68FBB11A682F
:10981C009042FAD1DCF800406E4A012C00F0AA808C
:10982C00994200F0B3804A682AB1934203D01146A2
:10983C005268002AF9D15A68DFF898E14A60DCF8DE
:10984C000820934200F0AA80013CCCF80040FEF7BF
:10985C0005F962B65E4B5D4C93E8C00048F63803E0
:10986C00C4F20803E2221A60EF221A6048F28C63F9
:10987C00C4F208031A6822F004021A6048F2346336
:10988C00C4F208031A6822F004021A6042F2A80318
:10989C00C4F20D031A6842F001021A6042F2AC03E2
:1098AC00C4F20D031A6842F001021A6042F2B003CE
:1098BC00C4F20D031A6842F001021A6045F200036B
:1098CC00C4F20D03A0221A6050221A6072B648F638
:1098DC000C03C4F208031A6802F008021A603E4B2B
:1098EC001A6802F008021A6040F2C04394E80600BD
:1098FC00C0F2470300245B1A64EB02049B1948F680
:10990C00100244EB0704C4F208023321116048F63C
:10991C001402C4F208021360190A48F6180241EA4C
:10992C000461C4F208021160190C48F6240241EAE1
:10993C000441C4F208021160190E48F6200241EAF3
:10994C000421C4F20802116048F61C02C4F2080299
:10995C0014602249224A1160224A82E8180048F613
:10996C000803C4F208031A6842F012021A6062B6C5
:10997C00BDE8F081002353609360136067E70B46EA
:10998C0048E7002353609360136024E7002C3FF4F6
:10999C005EAF4B68013C5360146058E7CEF808107A
:1099AC00DEF8004050E7002E3FF415AF4B68013E47
:1099BC00536016600FE7CEF80810DEF8006007E77A
:1099CC000B46EBE680000020BC040020C004002005
:1099DC008400002064000020D00400207D9420002E
:1099EC00A8040020A0040020F0B58AB000293CD0C7
:1099FC00012908BF046835D011F0010F3BD10139A2
:109A0C004B08056833D0012B05FB05F428D013F067
:109A1C00010F52D1013B5A087DD0012A04FB04F6F8
:109A2C001CD012F0010F7AD1013A520800F0A58037
:109A3C00012A06FB06F70FD012F0010F40F0AB80A5
:109A4C0007FB07F30AA8013A40F8283D510868467D
:109A5C00FFF7CAFF00FB07F707FB06F606FB04F44B
:109A6C0005FB04F420460AB0F0BD0124FAE70124FA
:109A7C0005FB04F4F6E74B080468F6D0012B04FB55
:109A8C0004F4EFD013F0010F31D1013B5A082AD066
:109A9C00012A04FB04F5E3D012F0010F55D105FBAC
:109AAC0005F30AA8013A40F8103D5108FFF79CFF56
:109ABC0000FB05F505FB04F4D4E78B08012B04FB34
:109ACC0004F4CDD013F0010F4BD104FB04F20AA81F
