:020000040020DA
:10400000F87F00201D41200075F3200075F320008B
:1040100075F3200075F3200075F3200075F3200080
:1040200075F3200075F3200075F32000ABF320003A
:1040300075F3200075F3200075F3200075F3200060
:1040400075F3200075F3200075F3200075F3200050
:1040500075F3200075F3200075F3200075F3200040
:1040600075F3200075F3200075F3200075F3200030
:1040700075F3200075F3200075F3200075F3200020
:1040800075F3200075F3200075F3200075F3200010
:1040900075F3200075F3200075F3200075F3200000
:1040A00075F3200075F3200075F3200075F32000F0
:1040B00075F3200075F3200075F3200075F32000E0
:1040C00075F3200075F3200075F3200075F32000D0
:1040D00075F3200075F3200075F3200075F32000C0
:1040E00075F3200075F3200075F3200075F32000B0
:1040F00075F3200075F3200010B5074C54F8043C0C
:10410000B3F1FF3F06D0043C984754F8043DB3F1A7
:0C411000FF3FF9D110BD00BFDC00210012
:10411C0040400949094A086004319142FBDBFFF732
:10412C00E5FF00BF00F02EFA00F03AFA01B40BF0F4
:10413C008DFE01F053FD000004000020D40F002080
:10414C0043680A1D5BB1D0F80CC00133CCF80420D5
:10415C004FF0000CC1F808C04360C26070478B6020
:10416C0001238260C2604360F8E700BF10B444686A
:10417C00012C17D0836801F1040C9C4517D04BB16E
:10418C005A682AB1944503D013465268002AF9D1D3
:10419C008A685A60C268944508BFC360013C446099
:1041AC0010BC704700238360C3604360F8E7002CA9
:1041BC00F6D08B68013C83604460F1E730B58468CD
:1041CC0005464CB12068294603681B68984764680B
:1041DC00002CF7D1012030BD2046FCE7F0B54B6A2E
:1041EC0081B004460D461746002B37D0AC462360F1
:1041FC005CF8043B04F1200E2361BCE80F00AEE830
:10420C000F009CE807008EE807000026AA6A66618A
:10421C00A661E461E663266405F12001204605F001
:10422C004DFBAB6AA2686660D218A2F140034FF056
:10423C00807142F8401C0B4A01A942F001029A63BA
:10424C0047F00102DA63204641F8047DE3606946D9
:10425C004FF4406205F0EEFD01B0F0BD024B1B685F
:10426C00C4E700BFDD5B2000A8010020294B30B55E
:10427C00186844682246002C47D06368572B07D82F
:10428C00482B11D0D268002A3FD05368572BF7D94E
:10429C00483B5360C1684839C16053B1126848212A
:1042AC00D018D150043030BD00235360C168483958
:1042BC00C160016801290BD0956875B1D468BCB197
:1042CC00EC60D2F80CC00139CCF808500160E5E77D
:1042DC000021416081600160E0E70029DED0D4F864
:1042EC000CC00139C0F804C00160CCF80850D5E707
:1042FC000029D3D0D0F808C00139DCF808C001601F
:10430C00C0F808C0CCF80C40C8E701F06FFC0020E6
:10431C00C9E700BF440000202DE9F04598B0002407
:10432C001694169B002500264FF4406A01930094C6
:10433C00069507960495059602950396089409949C
:10434C00CDF828A0FFF792FF44F23012C0F2200201
:10435C0069460746FFF742FF6FF000431793179B20
:10436C004FF001080C93CDF82C80119512960F95F7
:10437C0010960D950E9613941494CDF854A0FFF747
:10438C0075FF49F66532C0F220020BA9FFF726FF34
:10439C0040F2C813C2F2000383F80080F8680BF0F7
:1043AC0035FA18B0BDE8F0852DE9F0076B4E73684F
:1043BC00002B76D05968002973D0DFF8A481B2465F
:1043CC00002700225A60F268D8F80050521AF260A6
:1043DC005A68BAB9DAF80040012C76D098680028EF
:1043EC0000F09B80D3F80CC0BCF1000F00F0A5804E
:1043FC00C0F80CC0DA689060DAF80020013ACAF80C
:10440C0000205A681C68A41849D00F2947D961604C
:10441C002460A760E760EB6859186B68E960D4F812
:10442C0000C06068002B40D0D3F800906044484531
:10443C000CBF1A461A4604D0D26812B111688842D1
:10444C00FAD159688944CC4507D0DB68002B2BD0B6
:10445C001868596841188C45F7D119461346CBB1E9
:10446C0060685A68821862602868012802BF6F6011
:10447C00AF602F600ED09A68002A2ED0D3F80CC0F3
:10448C00BCF1000F33D0C2F80CC0DB689A602B680B
:10449C00013B2B6019B14A686368D3184B60736891
:1044AC0073B9BDE8F007704713462968002929D174
:1044BC00A160E1602A686C600132AC602A60CEE7D2
:1044CC00596800297FF47DAFEBE7CAF80020CAF8E1
:1044DC000420CAF808205A6894E70028DAD06B68E0
:1044EC00DB686B609A602B68013B2B60D2E700287D
:1044FC00D0D0AB689B68AB60C3F80CC02B68013B99
:10450C002B60C7E7AA683946D460AA68E760A26046
:10451C002A68AC6001322A60A1E7002C3FF472AF2C
:10452C00DAF80400C068CAF804008260DAF80020E7
:10453C00013ACAF800205A6864E7002C3FF462AFD5
:10454C00DAF808008068CAF80800C260DAF80020BF
:10455C00013ACAF800205A6854E700BFBC0F00208B
:10456C004400002040F21403C2F200030A2100228E
:10457C001A71196040F20C03C2F2000319601A712F
:10458C00704700BF00B501F08BFE00BD40F21C036C
:10459C00C2F200030A221A6000221A71704700BF8F
:1045AC002DE9F04F0323ADB08DF87D304BF2200395
:1045BC00C4F20D03022022934BF220438DF87C00B1
:1045CC00C4F20D031A68082122F008021A600123B4
:1045DC0021934BF20043C4F20D031A6800240A43E2
:1045EC001A609DF87C209DF87D30043203EBC202EA
:1045FC0044F20003C4F20D034FF0040C20912394F9
:10460C0043F822C09DF87C2049F21C431203C4F2EB
:10461C000D03D31819602DAA12F838CD49F218736E
:10462C004FEA0C3E4FEACC0C01FA0CF1C4F20D032C
:10463C007344D3F800E007AD2EEA0101196005F1CF
:10464C0010030C9305F12003109340F27851DFF81E
:10465C007035C2F200010A6003F11C0207930B9241
:10466C0028331290DFF85C150DF1510006220F93E0
:10467C00089409940A940D940E94119413948DF843
:10468C00504001F067FB72B648F61003C4F2080301
:10469C00DFF834A548F614011C60C4F20801DAF8FE
:1046AC0000C0D1F800E048F61801C4F208010E6809
:1046BC004FEA0C233602A01943F1000110EB0E0255
:1046CC0041F1000348F62401C4F20801D1F800E0DE
:1046DC004FEA0E404FEA1E41121843EB010348F615
:1046EC002001C4F20801D1F800E048F61C01C4F224
:1046FC0008014FEA0E600E6812184FEA1E2143EBB8
:10470C000103DAF80010121943EB06038C4505D0AF
:10471C0000204FF48071121843EB010362B640F293
:10472C00C844C2F2000494E80300801841EB030172
:10473C00430943EAC16316934B09179349F280600E
:10474C000023C0F298001A931C931D930021DFF8EC
:10475C007C3418901991032218681B9243684BB152
:10476C005A68B32A00F2BD81A42A00F0BA81DB6832
:10477C00002BF5D101F03AFA002472B648F610027B
:10478C000023C4F2080248F6140C1360C4F2080C9F
:10479C00DAF80000DCF800E048F6180CC4F2080C5B
:1047AC00DCF800C002024FEA0C2C13EB0C0842F1AF
:1047BC00000948F62402C4F20802D2F800C018EB33
:1047CC000E064FEA0C414FEA1C4249F100077618DD
:1047DC0047EB020748F62002C4F20802D2F800E0C8
:1047EC0048F61C02C4F208024FEA0E61D2F800C06F
:1047FC0076184FEA1E2247EB0207F618DAF800305B
:10480C0047EB0C07984205D000224FF48073B61882
:10481C0047EB030762B640F2C8420DF1A00BC2F29F
:10482C00000206CA0DF1A809049105925846062209
:10483C00E44901F08FFA0622E249484601F08AFA6F
:10484C004FF000086FF07303237084F8018004AB01
:10485C000CCB921943EB0703510941EAC361618008
:10486C00090CA180C3F34F115B0DE18023815946E4
:10487C00062204F10A0001F06DFA99E803006FF0CA
:10488C007F0384F82330636AA06103F07F4343F411
:10489C001843A18343F09603002100206362C4F8FF
:1048AC008400C4F888102D23C4F88C00C4F8901030
:1048BC000222C4F88030C64BE283C4F89820A4F8D6
:1048CC00208084F82280C4F89440C4F89C809969B4
:1048DC0004F19402002940F03281C4F89C10DA6192
:1048EC001A629A6901329A61DFF8E8B24FF0FF332D
:1048FC00DBF800108DF8B0308DF8B13005338DF841
:10490C00B3300868002603680922029200960196CB
:10491C00D3F820C02CAA0DF1B303E04794F8221071
:10492C000746069172B648F61003C4F2080348F61F
:10493C00140048F6180C1E60C4F20800C4F2080CEF
:10494C00DAF800100068DCF800C00B024FEA0C2CFF
:10495C0016EB0C0843F1000948F62403C4F20803D3
:10496C0018EB0008186849F100090204030C18EB55
:10497C00020849EB030948F62003C4F2080318683F
:10498C0048F61C03C4F208030206D3F800C0030A5D
:10499C0018EB020849EB0309DAF8003018EB0608AB
:1049AC0049EB0C09994206D000224FF4807318EBA6
:1049BC00020849EB030962B640F2C8410DF1980AAE
:1049CC00C2F2000103C90622049005917D495046AC
:1049DC0001F0C0F924AB184606227A49002603934D
:1049EC0001F0B8F96FF063023A707E7004AA06CA3F
:1049FC0011EB080142EB0902480940EAC260C0F31E
:104A0C00072CB87087F803C0C0F3074C000E787100
:104A1C00C2F34710B871C2F34730F871C2F3475074
:104A2C00520F87F804C038727A725146062207F189
:104A3C000A0001F08FF9039B0622194607F11800B2
:104A4C0001F088F9042204F11E01BA7707F11F0066
:104A5C0001F080F9069A384687F8232087F82460FD
:104A6C0006F014FD384606F01BFB384606F09EFE99
:104A7C00384605F06BFDDBF800303946186840F21B
:104A8C0078580368C2F200085B6A98471A9B1E9418
:104A9C0058F82330DB681B689B1B18BF012313934A
:104AAC004D4B5A68002A3DD1119205F124029A60AF
:104ABC00DA6001225A60002C33D0484A05F1100309
:104ACC000C93536800210E910D94002B29D0936800
:104ADC005868844222DB986800282CD0194603467B
:104AEC00F6E7A43A5A60C268A43AC2605A687AB926
:104AFC000468012C57D09968002935D0DE68002E47
:104B0C003DD0CE60DA6891600268013A02605A6862
:104B1C001B68A4219C18995004342EE609B1143555
:104B2C008D60FEE7D86805F12401013241605A60BE
:104B3C001196D960BFE7D36814359D60F1E7D3F8BF
:104B4C001CC0464661464868022804D8886808B3E9
:104B5C000E460146F7E7002E2AD0B260C4F89C102E
:104B6C009A6901329A61BFE6002CD1D04168C968BC
:104B7C0041608A600268013A02605A68C8E7002CFA
:104B8C00C6D0816889688160CA600268013A026097
:104B9C005A68BDE7196A8A60C4F89C001A629A695F
:104BAC0001329A61A0E64260826002605A68AFE707
:104BBC00C4F89CC0DA619A6901329A6194E600BF2C
:104BCC009CFE200090040020C4040020440000201F
:104BDC001402002004020020680500208C02002032
:104BEC00014B0360704700BFF8FE2000014B0360CF
:104BFC00704700BFF8FE2000014B0360704700BFF8
:104C0C00F8FE2000024B00B5036000F0F3FF00BD7E
:104C1C00F8FE2000024B00B5036000F0EBFF00BD76
:104C2C00F8FE2000024B00B5036000F0E3FF00BD6E
:104C3C00F8FE200000B5406804F0F2FC00BD00BF97
:104C4C00A0F1200000E000BF2DE9F04D054684B036
:104C5C0072B648F610030022C4F20803DFF8B4E180
:104C6C0048F614011A60C4F20801DEF800C00E68A0
:104C7C0048F61801C4F208010F684FEA0C243F02F1
:104C8C00D01944F10001831941F1000448F62401C4
:104C9C00C4F208010E683004310C1B1844EB0104FB
:104CAC0048F62001C4F208010E6848F61C01C4F253
:104CBC00080130060F68310A1B1844EB01049B18DD
:104CCC00DEF8002044EB0704944505D000214FF496
:104CDC0080725B1844EB020462B64F4A284606CA3F
:104CEC00C91842EB04024B0943EAC263EB63530954
:104CFC002B64EA6C494B53F82230DB681B68003B91
:104D0C0018BF01232B632B689B689847EB6D33B35B
:104D1C002A6BC3F82720AA8F5A80EA8F9A80B5F89D
:104D2C004020DA80B5F842201A81EC6D05F13C0B7D
:104D3C009BE8000C6388A28805F1440898E8800180
:104D4C0043EA02412289E38843EA0243D4F88820EB
:104D5C009A4204D858D0D4F890209A4202D204B087
:104D6C00BDE8F08D03D1D4F88C308B42F7D32C4DA9
:104D7C004FF0FF33D4F880C029688DF80C308DF8D3
:104D8C000D3004238DF80F3008680023026800935F
:104D9C000193ACF11E030293166A0DF10F0303AAE3
:104DAC00B047D4F880200646214600F0D3FFF078B7
:104DBC00B37817EB0A0143EA0023307943EA004346
:104DCC00707943EA0063CB1AC3F3072286F82330C9
:104DDC0086F82420C3F307421B0E86F8263086F88B
:104DEC002520304606F052FB304606F059F9304685
:104DFC0006F0DCFC304605F0A9FB2B683146186840
:104E0C0003685B6A9847AAE7D4F884208A42A2D93F
:104E1C00A5E700BFC4040020C804002078050020CA
:104E2C00040200202DE9F04F93B01090119148F638
:104E3C00100048F61401C4F20800C4F208019246AE
:104E4C000A900B9148F6180248F6240348F6200005
:104E5C0048F61C01C4F20802C4F20803C4F20800AC
:104E6C00C4F208010C920D930E900F9111E000F01A
:104E7C00C38040F2AC11C2F20001CB681E68B06E68
:104E8C00002840F0A980003818BF0120002800F04D
:104E9C00B08072B60A9A002313600B990C9A40F2F8
:104EAC00C44BC2F2000BDBF8009018460E681F468C
:104EBC0013680D991B0210EB030B4FEA092C0868C1
:104ECC00E0464CF1000C1BEB06024CF100034FEAE0
:104EDC00104C0004CDF814C0049004A903C9121896
:104EEC0043EB01030E99DDF83CB00868DBF8006079
:104EFC004FEA006B4FEA102C12EB0B020796069749
:104F0C0006A903C943EB0C03121843EB010340F24F
:104F1C00C441C2F200010868814505D000204FF45D
:104F2C008071121843EB010362B640F2C844C2F21E
:104F3C00000494E80300801841EB0301DAF85C30BC
:104F4C004D09D3F890204409AA4244EAC1648ED991
:104F5C00109840F27851C2F2000151F82020CAF8A2
:104F6C003C40CAF84050D2681268003A18BF01227F
:104F7C00CAF83020C3F82720220C9A802A0C5C80B7
:104F8C00DD801A81DAF85C90B9F80230B9F80410B7
:104F9C00B9F8082043EA0141B9F8063043EA024364
:104FAC00D9F888209A4204D82CD0D9F890209A426B
:104FBC0030D2DAF80030CDF80CC09B6850469847D8
:104FCC0040F2AC11C2F20001CB68DDF80CC01E68D7
:104FDC00B06E00283FF457AF06F14400CDF80CC07A
:104FEC0004F032FBB06E003818BF012000287FF4AB
:104FFC0050AF13B0BDE8F08FD3F88C20A2427FF6EF
:10500C0038AFA5E7D9F884208A42D2D8D9F89020B5
:10501C009A42CED303D1D9F88C308B42C9D340F20B
:10502C0004224FF0FF33C2F20002D9F880E011687D
:10503C008DF848308DF8493004238DF84B300868D2
:10504C000023026800930193AEF11E030293CDF886
:10505C000CC0166A0DF14B0312AAB0474946D9F899
:10506C008020064600F076FE119AF378A018B278EC
:10507C0042EA0322337942EA0342737942EA036338
:10508C00C31AC3F3072286F8233086F82420C3F30F
:10509C0007421B0E86F8252086F82630304606F08F
:1050AC00F5F9304605F0FCFF304606F07FFB304644
:1050BC0005F04CFA40F20420C2F2000003683146BD
:1050CC00186803685B6A9847DDF80CC071E700BF8D
:1050DC00A0F1100000E000BF2DE9F04F1C461B783A
:1050EC009FB0C3F3C103012B05467ED005D3022B21
:1050FC0000F0C5801FB0BDE8F08F94F8282094F81C
:10510C002910C36D42EA012194F82A2094F82D004D
:10511C0041EA024194F82B2041EA026194F82C20D8
:10512C0042EA002294F82E0042EA004294F82F0042
:10513C00C3F8841042EA0062C3F8882094F8302047
:10514C0094F8311094F8350042EA012194F8322099
:10515C0041EA024194F8332041EA026194F8342088
:10516C0042EA002294F8360042EA004294F83700F2
:10517C00C3F88C1042EA0062C3F8902094F83C20EB
:10518C0002F00302022A00F07E8194F8412094F888
:10519C0042C094F8461042EA0C2C94F843204CEA96
:1051AC00024C94F844204CEA026C94F8452042EAF4
:1051BC00012194F8472041EA024194F8482041EA41
:1051CC0002615CEA010200F09781686D002800F032
:1051DC008382C26D036E13438CD014915C3013A97F
:1051EC00CDF84CC004F0B4F884E7E278A37843EA35
:1051FC000223227943EA0243627943EA0261E279AB
:10520C00A37943EA0223227A43EA0243627A43EA0D
:10521C000263026C9A4203D331D1C36B8B422ED200
:10522C002B6D13F0040F00F063812A6BD4F8273038
:10523C00D3182B6394F8223004F10A0185F834302A
:10524C00062205F1350000F085FDA378E278E179BE
:10525C0043EA02222379284642EA0342637942EA6E
:10526C000362A37943EA0123217A43EA0143617A79
:10527C00EA6343EA01632B642B689B6898472B6DA8
:10528C0013F0030F3FF436AFEB6C04F13C07B3F1B2
:10529C00FF3F069711D0DFF8CC2552F82330E26B94
:1052AC009968003A18BF0122022900F00381DB68DB
:1052BC0011028A1A1A60E36B2B63D5F858A0BAF165
:1052CC00000F00F0D880DFF8A0B54FF0FF33DBF80B
:1052DC0000108DF874308DF8753004238DF87A3009
:1052EC0008680026036861220292009601961F6AE4
:1052FC001DAA0DF17A03B847074672B648F610039B
:10530C00C4F20803DFF8640548F6140C48F6180ECE
:10531C001E60C4F2080CC4F2080E0168DCF800C070
:10532C00DEF800E00B024FEA0E2E16EB0E0843F1EE
:10533C00000948F62403C4F2080318EB0C08D3F850
:10534C0000C049F100094FEA0C424FEA1C4318EB2C
:10535C00020849EB030948F62003C4F20803D3F80A
:10536C0000C048F61C03C4F208034FEA0C62D3F8E1
:10537C0000E018EB02084FEA1C2349EB0309036811
:10538C0018EB060849EB0E09994206D000224FF49F
:10539C00807318EB020849EB030962B6DFF8D034CE
:1053AC0017AE93E806003046049105920622DFF80A
:1053BC00C41400F0CFFC19AB18460622DFF8B41465
:1053CC00039300F0C7FC6FF06B023A7000227A7006
:1053DC0004AA06CA11EB080142EB0902480940EA8B
:1053EC00C260C0F3072CB87087F803C0C0F3074C39
:1053FC00000E7871C2F34710B871C2F34730F871E0
:10540C00C2F34750520F87F804C038727A72314693
:10541C00062207F10A0000F09DFC039B06221946A8
:10542C0007F1180000F096FC0AF11E011A2207F190
:10543C001E0000F08FFC0AF13801042207F138003D
:10544C0000F088FC0699042207F13C0000F082FC75
:10545C00384606F01BF8384605F022FE384606F0B2
:10546C00A5F9384605F072F8DBF8003039461868B3
:10547C0003685B6A984705F1350004F10A010622BE
:10548C0000F068FC36E66C6D002C3FF433AE04F192
:10549C005C0003F017FFF84B04F14400636504F063
:1054AC00E7F8204604F0E4FE204600F0A3FB0023BE
:1054BC006B651FE6187849F200410003C4F20D0138
:1054CC004118D1F800C058684CEA00000860D9684F
:1054DC001002821A0A60197849F200420903C4F2D8
:1054EC000D028A1811685B6821EA03031360E2E677
:1054FC00D4F827302B639DE6E86CDA4951F820107C
:10550C00C968D1F800C0BCF1000C18BF4FF0010CF9
:10551C00C5F830C0CDF810C072B648F61001C4F210
:10552C000801DFF848A348F6140648F618070A6085
:10553C00C4F20806C4F20807DAF80080D6F8009026
:10554C003F6848F624063F0212EB070B4FEA08218E
:10555C00C4F2080641F1000C1BEB0900D6F80090D0
:10556C004CF100014FEA0946801948F62006C4F2B6
:10557C000806D6F800B048F61C06C4F208064FEA36
:10558C001947D6F800904FEA0B6641EB07018019DA
:10559C004FEA1B2741EB07018018DAF8002041EB9A
:1055AC000901904505D000264FF48077801941EB16
:1055BC00070162B6AE4A92E8C000361847EB010705
:1055CC00720942EAC76279092964EA63049F5A8026
:1055DC00E98FC3F827709980B5F84020DA80B5F8C8
:1055EC0042601E8194F83E2094F83D30EE6D43EA03
:1055FC00022394F83F2094F8404043EA024343EAE4
:10560C000464B288738805F13C0999E8000343EA05
:10561C0002413289F38843EA0243D6F888209A4241
:10562C003FF668AD00F0FC80D6F890209A42FFF46B
:10563C0061AD04D1D6F88C308B42FFF45BAD8A4D52
:10564C004FF0FF33D6F880C029688DF878308DF88C
:10565C00793004238DF87B300868002302680093AE
:10566C000193ACF11E030293176A0DF17B031EAA82
:10567C00B847D6F880200746314600F06BFBF87827
:10568C00BB7818EB040143EA0023387943EA004362
:10569C00787943EA0063CB1AC3F3072287F82330E7
:1056AC0087F82420C3F307421B0E87F8263087F8AF
:1056BC002520384605F0EAFE384605F0F1FC384660
:1056CC0006F074F8384604F041FF2B683946186828
:1056DC0003685B6A98470DE5CDF854C0169194F8B1
:1056EC003E2094F83D3094F840A043EA022394F80D
:1056FC003F2043EA024343EA0A6A604B1868436856
:10570C003BB15A68932A70D8842A6ED0DB68002B80
:10571C00F7D100F06BFA0024159BD5F84C800A9356
:10572C001C93169B02220B931C9B08920993544BBF
:10573C0000261B68002100224FF440670E910F9247
:10574C000C910D921096119612972360089B04F100
:10575C00200C23616661A661E4610DF1240EBEE8A4
:10576C000F00ACE80F009EE807008CE80700E6632A
:10577C002664129A204610A904F0A0F86660A2686C
:10578C00129BD318A3F140024FF0807143F8401CD8
:10579C003C493D4841F00101916340F00101D16366
:1057AC001FA943F838AC43F83C8C43F8345CE260F6
:1057BC003A4641F8100D04F14407204604F03AFB38
:1057CC003846314603F026FF304B04F15C0063652C
:1057DC0004F1540215A94FF0FF33A76503F06AFEDC
:1057EC00204604F0C9FA6C6584E4843A5A60C268B5
:1057FC00843AC2605A686AB90168012916D09C685B
:10580C0024B3DE68BEB1E660DA6894600268013ADF
:10581C0002605A681B6884219C18995004347BE7F9
:10582C00D6F884208A427FF6FFAE63E44260826041
:10583C0002605A68EEE70029ECD0816889688160C3
:10584C00CA600268013A02605A68E3E70029E1D0B5
:10585C004168C96841608A600268013A02605A680E
:10586C00D8E700BF7805002004020020C404002003
:10587C00C804002090040020F8FE20004400002002
:10588C00A8010020DD5B2000314E2000D0FE20005E
:10589C0070B500F0ABFAB5494B68002B00F059819C
:1058AC005A6846F20300824209D8B2F5C04F06D0BE
:1058BC00DB68002B00F04D815A688242F5D9A2F5C5
:1058CC00C0425A60CA68A948A2F5C042CA605A6868
:1058DC0092B90468012C00F0EF809968002900F05F
:1058EC001E81DD68002D00F02881CD60DA689160A2
:1058FC000268013A02605A681968DFF874C2002322
:10590C008C18CCF80030CCF80430CCF80830CCF83B
:10591C000C304CD04FF4C0408C506060A360E360FE
:10592C00DCF80C301B18CCF80C30DCF8043051F8D7
:10593C0002E06068002B00F0A7801D687044A8424C
:10594C000CBF1A461A4604D0D26812B111688842AC
:10595C00FAD159686D18AE4508D0DB68002B00F001
:10596C0092801868596841188E45F6D1194613462D
:10597C00C3B160685A6882186260DCF800000128C4
:10598C0000F092809A68002A00F09B80DD68002D60
:10599C0000F0A680D560DB689A60DCF80030013B33
:1059AC00CCF8003019B14A686368D3184B60714B5E
:1059BC00C3F800C000F05AFB00F082FC6E4B0022D2
:1059CC0093E8300043F24803C4F2030319686B4BAD
:1059DC0055181868234643F1000644F66D63C4F26B
:1059EC00C61305FB03F505F5405503683935644CC2
:1059FC00B5F1FF3F28BF0135DB6A25609847037876
:105A0C00002B40F098804178003918BF012149F2F1
:105A1C000043C4F20D031A6822F020021A6044F20B
:105A2C009402C4F20D020123136047F20802C4F27F
:105A3C000D02B523136047F20002C4F20D02136885
:105A4C0013F0800FFBD047F21002C4F20D02136862
:105A5C0047F20C02C4F20D02126881EA050502EB52
:105A6C00032244F66D63C4F2C61303FB05F505F57A
:105A7C0040553935B5F1FF3F28BF013542F30B13C3
:105A8C005D40256070BD1346DCF80010002936D14E
:105A9C00A160E160DCF80020CCF804400132CCF8C5
:105AAC000840CCF8002063E70023CCF80430CCF895
:105ABC000830CCF8003075E74260826002605A68AA
:105ACC001AE700283FF46EAFDCF80430DB68CCF842
:105ADC0004309A60DCF80030013BCCF8003061E710
:105AEC0000283FF45FAFDCF808309B68CCF8083036
:105AFC00DD60DCF80030013BCCF8003052E7DCF81C
:105B0C0008200021D460DCF80820E160A260DCF8F9
:105B1C000020CCF808400132CCF8002028E7002CFB
:105B2C003FF4EAAE4168C96841608A600268013A94
:105B3C0002605A68E0E6012169E7002C3FF4DCAE14
:105B4C00816889688160CA600268013A02605A689B
:105B5C00D2E6DFF81CC00023CCF80030CCF80430BF
:105B6C00CCF80830CCF80C3021E700BFBC0F00207B
:105B7C003400002044000020CC0F0020DC04002066
:105B8C005000002000B500F011FA40F29C430022B6
:105B9C00C2F200031A6040F29843C2F200031A608A
:105BAC0040F22C03C2F200030A211A71196040F270
:105BBC002403C2F2000319601A7100BD704700BFC4
:105BCC0040F24803C2F2000300221A605A60704788
:105BDC0000B5004604F008FA00BD00BF00B504F0A3
:105BEC0003FA00BD00B509F019FC00BD00B5FFF7C4
:105BFC00F9FF00BD3D4B70B41D6850F8043C041F08
:105C0C000F2B41D9002240F8044C6360A260E26083
:105C1C00EA68D318EB606B6850F804CC6068002B12
:105C2C0035D01E686044B0420CBF1A461A4604D0E8
:105C3C00D26812B111688842FAD159687618B44505
:105C4C0007D0DB68002B21D01868596841188C45A7
:105C5C00F7D11946134693B160685A68821862608E
:105C6C00286801281DD09A68002A1FD0DE68002EF3
:105C7C0031D0D660DB689A602B68013B2B6019B180
:105C8C004A686368D3184B6070BC70471346296828
:105C9C00B1B9A160E1602A686C600132AC602A6025
:105CAC00D9E700236B60AB602B60E8E70028E6D0F7
:105CBC006B68DB686B609A602B68013B2B60DEE7DE
:105CCC00AA680021D460AA68E160A2602A68AC606E
:105CDC0001322A60BFE70028D1D0AB689B68AB606B
:105CEC00DE602B68013B2B60C9E700BF440000203D
:105CFC00032A30B405460C4610D941EA000313F0D0
:105D0C00030F0CD1D0F800C00B689C4504D1043AA9
:105D1C0004300431032AF5D805460C46B2B1287874
:105D2C0094F800C060450ED1013A002372B105EB26
:105D3C00030C9CF8010004EB030C9CF801C001332C
:105D4C00013A6045F2D0CCEB000000E0002030BC02
:105D5C00704700BF0F2A30B405460C4642D941EAC1
:105D6C00000313F0030F02BF14468C46034609D000
:105D7C00002314F803C005F803C001339A42F8D18C
:105D8C0030BC7047DCF80050103C1D60DCF804504F
:105D9C005D60DCF808509D60DCF80C500CF1100CC8
:105DAC00DD6010330F2CEDD8A2F1100404F00F02BB
:105DBC0024F00F04103405190C19032A12D90023EE
:105DCC0054F803C045F803C00433C3EB020CBCF118
:105DDC00030FF5D8043A22F003030433ED18E4184A
:105DEC0002F00302002AC3D1CAE700BF00B500F0DD
:105DFC0003F800F095F800BDDFF81CC147F2F8324B
:105E0C00C2F20002CCEB020270B4002A4AD000238A
:105E1C00424DCCF800C0CCF80420CCF80830CCF8BB
:105E2C000C30EB686446D318EB606B68002B3CD0ED
:105E3C001E680CEB8200B0420CBF1A461A4604D006
:105E4C00D26812B111688842FAD1596806EB810602
:105E5C00B44208D0DB68002B26D05868196801EBD7
:105E6C0080018C42F6D119461346ABB1DCF8040024
:105E7C005A688218CCF804202C68284A012C23D0AC
:105E8C009868002825D0DD68002D3AD0C560DB6805
:105E9C0098601368013B136021B14A68DCF8043048
:105EAC00D3184B6070BC704713462A681B48D2B994
:105EBC000121CCF80820CCF80C200160C0F804C0FB
:105ECC00C0F808C01146D0E70023536093601360FC
:105EDC00E2E7002CE0D05368DB68536098601368ED
:105EEC00013B1360D8E781680132C1F80CC08168AE
:105EFC00CCF808100021CCF80C10C0F808C00260D7
:105F0C00B3E7002CC8D093689B689360DD6013687E
:105F1C00013B1360C0E700BFD40F0020BC0F002072
:105F2C0043F20C03C4F203031A68122022F001029C
:105F3C001A6042F20802C4F20D02116841F0080125
:105F4C00116042F20C02C4F20D02116841F008011A
:105F5C00116042F21002C4F20D02116841F0080106
:105F6C00116043F200020021C4F20302116043F2FB
:105F7C000402C4F20302106043F22802C4F20302CA
:105F8C004FF0FF30106043F23802C4F2030211608C
:105F9C0043F21802C4F20302116841F001011160CE
:105FAC001A6842F001021A60704700BF4CF220439D
:105FBC00C4F20D031A6822F0C0021A604CF20043BE
:105FCC00C4F20D031A6822F0C0021A6044F2F803FE
:105FDC000122C4F20D031A6044F2FC03C4F20D0357
:105FEC001A6042F20002C4F20D0211684FF6F87307
:105FFC00CFF6DC6301EA030343F4081342F2040115
:10600C001360C4F20D010A6840F20003C0F20113E0
:10601C0002EA0303002BF6D142F20003C4F20D0393
:10602C001A6822F4E0621A6042F20402C4F20D0211
:10603C00136813F0806FFBD0704700BF4EF61453FB
:10604C00CEF200031A6842F001021A6042F2980381
:10605C00C4F20D031A6842F001021A604EF608539E
:10606C00CEF200034FF401121A60704700B5FFF72F
:10607C00E5FF02F0D3FF00F019F800F09BF800F0F8
:10608C0009F800F001F800BD00B5002002F002FB99
:10609C0000BD00BF044B082203F5807183F8002873
:1060AC0001338B42FAD17047980600204EF2100350
:1060BC004EF21802CEF200030021CEF2000219605B
:1060CC0011604EF21402CEF200024FF4FA4111604C
:1060DC0006221A604FF2B54140F29852C2F2000209
:1060EC00C0F22001D1631A6842F001021A607047B5
:1060FC0040F259030022C2F200031A7040F2580316
:10610C00C2F200031A7040F25403C2F200030221DF
:10611C00196040F6AC73C2F200031A6040F6B87313
:10612C00C2F2000349F2380C1A60C4F2080C0323C3
:10613C0049F2400049F24C01CCF8003030B4C4F2C2
:10614C0008000424C4F2080149F244030460C4F2B8
:10615C0008030A601D6845F040051D601D6845F088
:10616C0008051D601D6845F008051D602023CCF84E
:10617C00004002600B6049F25003C4F208031A6835
:10618C0042F080021A601A6842F010021A6049F25A
:10619C001C03C4F2080301221A6049F22403C4F25E
:1061AC0008031A6049F22C03C4F208031C6030BCCB
:1061BC00704700BF4BF22043C4F20D031A682DE95F
:1061CC00F04822F004021A604BF20043C4F20D03B3
:1061DC001A6842F004021A604BF21003C4F20D0369
:1061EC00FF221A6049F23C02C4F20802136843F021
:1061FC0001031360136843F002031360136813F078
:10620C00800FFBD049F20403C4F208031A6822F091
:10621C0001021A60FFF76CFF1D4B01221A601D4A28
:10622C001D4BC3F8F0204EF20413CEF200034FF4D2
:10623C0080521A60EFF31087FFB207B162B61748AD
:10624C0043F24806C4F2030690E8001831680022B5
:10625C005B4612EB010B49F20002C0F2D03243F163
:10626C00000C00231BEB020B4CEB030C90E80C0016
:10627C00316800241546621845F100039C45F5D899
:10628C0001D19345F2D807B162B6BDE8F08800BFE2
:10629C005400002069F6200098050020CC0F002047
:1062AC0000B540F2DC43C2F2000381B01B6801A8C8
:1062BC0040F8043D684600F073FC01B000BD00BF1F
:1062CC0000B502F003FF00F001F800BD704700BFFD
:1062DC0040F20423C2F200031B680146186800B5A3
:1062EC00036804221B68984700BD00BF00230160AF
:1062FC0043608360C3607047F0B5644C644D6422A6
:10630C006FF063012A700023A1704FF0FF31064635
:10631C002271E170227083B0637163704FF02810AA
:10632C005C4908221F46FFF7E3FC28B9207167710E
:10633C00A070E07020706770574B04221B683146C8
:10634C00186803681B6898472379627943EA02202E
:10635C00A378E27843EA02212378627853EA022296
:10636C0074D04E4B186843683BB15A68572A08D80A
:10637C00482A06D0DB68002BF7D1FFF737FC002446
:10638C001BE0483A5A60C268483AC2605A687AB907
:10639C000468012C5FD09968002961D0DE68002E5A
:1063AC0069D0CE60DA6891600268013A02605A687E
:1063BC001B6848219C1899500434394B01221B68E6
:1063CC0022614FF6FD722360C7F6FF720023A361B2
:1063DC00636063610021009200226163A263E16249
:1063EC0022636162A262E461009A03A92262E36300
:1063FC002364204641F8043D4FF4406203F05EFAFA
:10640C00A36803F53C614FF08070C3F8C00B2548BE
:10641C00254A40F00100C3F8F80B42F00100C3F824
:10642C00FC0BE16003A941F8082D20464FF44062B3
:10643C0003F000FD2B784F2B06D81C4CE36803F0BF
:10644C000BFB2B784F2BF9D903B0F0BD002988D169
:10645C00002886D1EEE74260826002605A68A7E7A6
:10646C00002CA5D04168C96841608A600268013A75
:10647C0002605A689CE7002C9AD081688968816018
:10648C00CA600268013A02605A6891E790040020E1
:10649C009C0200205CFF200004020020440000202D
:1064AC00A8010020DD5B200075672000AC010020F6
:1064BC002DE9F04FA34E014633797779F07843EA12
:1064CC000727B378727843EA0020337898B053EA00
:1064DC00022200F01A819C4B04221B681868036886
:1064EC001B6898473379727943EA0220B378F278C3
:1064FC0043EA02213378727853EA022200F0FD80DD
:10650C00DFF848B2DFF848C29248CDF834B0CDF885
:10651C0030C0119048F6100B48F6200748F61C06C0
:10652C00C4F2080B48F6140948F6180A48F6240871
:10653C00C4F20807C4F20806C4F20809C4F2080A37
:10654C00C4F20808CDF808B00097019672B602980C
:10655C0000210C9B01601A68D9F80040DAF8003071
:10656C0016021B0211EB030B0D46D8F8001046F176
:10657C00000C1BEB040310944CF100044FEA114C7B
:10658C000904CDF81CC0009F069106A903C91B186D
:10659C0044EB0104DDF804B03968DBF800C00F0AE5
:1065AC0009060997089108A903C9CDF82CC01B1836
:1065BC000A950C9F44EB01040AA903C91B1844EB70
:1065CC00010439688A4205D000204FF480711B18F1
:1065DC0044EB010462B6119F0D9897E80600DDF8B4
:1065EC0034B0C91842EB0402D0F804C04B09DBF8F4
:1065FC0000B043EAC26352096245CDF840B005D8F9
:10660C0002D018B0BDE8F08F5B45FAD972B6029A89
:10661C0000230C9C136022680E93D9F800E0DAF882
:10662C00003017020F974FEA032B0EA903C910EB8A
:10663C000B0341F10004D8F8001013EB0E0344F1E6
:10664C0000044FEA114B0904CDF84CB0009F129195
:10665C0012A903C91B1844EB01043968DDF804B016
:10666C000F0A09061597149114A903C9DBF800E069
:10667C001B1844EB01040021CDF85CE016910C9F33
:10668C0016A903C91B1844EB010439688A4205D0CA
:10669C0000204FF480711B1844EB010462B6119F6B
:1066AC00DDF840B097E80600C91842EB04024FEA47
:1066BC00511ECDF810B0CDF814C004A903C926A4FE
:1066CC0018CC4EEAC26E5209C01841EB04018A4242
:1066DC000490059107D804D0214BDB6803F0BCF97A
:1066EC0034E78645F8D91F4B0020002183E80300CE
:1066FC001B4BDB6803F0B0F928E7A9B11349144A26
:10670C00144B0D910C92119304E700287FF4E3AE27
:10671C00002F7FF4E0AE0D484FF0FF324FF0FF3307
:10672C00074680E80C00D6E600283FF46AAF074F16
:10673C00DFF81CB0DFF81CC00D97CDF830B0CDF8E9
:10674C0044C0E7E69004002004020020E001002091
:10675C00C4040020C804002000A3E11100000000C4
:10676C00AC010020F40100202DE9F04F48F6100098
:10677C0048F6140148F6180248F6240348F620059A
:10678C0048F61C06B2B0C4F20800C4F20801C4F208
:10679C000802C4F20803C4F20805C4F20806FB4C54
:1067AC00DFF8EC93119012911392149315951696A1
:1067BC001CE140F20423C2F2000319684FF0FF33CE
:1067CC008DF8C4308DF8C53004238DF8C7300868B7
:1067DC000026036803220292009601961D6A31AAD4
:1067EC000DF1C703A847054672B6119FDDF848E0C6
:1067FC003E6013982368DEF8002001684FEA0328F6
:10680C004FEA012CCDF880801F961FA903C910EB0D
:10681C000C0741F100081499BF180A6848F10008E8
:10682C004FEA124E1204CDF870E01B921BA903C95B
:10683C003F1848EB01081599DDF858E00A68DEF8B6
:10684C0000C0110A12061D921E911DA903C9CDF894
:10685C0088C03F18219648EB010821AA06CA7F1868
:10686C0048EB02082268934205D000224FF4807353
:10687C00BF1848EB030862B6062299E803000B9098
:10688C000C912FA8C349FFF765FA06222DA8C14920
:10689C00FFF760FA00266FF063032B706E700BAB82
:1068AC000CCBD21943EB0803510941EAC361C1F384
:1068BC000720A970E870C1F30740090E6971C3F392
:1068CC004711A971C3F34731E971C3F347515B0F0A
:1068DC006B722871297206222FA905F10A00FFF7A5
:1068EC0039FA2DA9062205F11800FFF733FA052312
:1068FC00AB77284604F0CAFD284604F0D1FB2846A5
:10690C0004F054FF284603F021FE72B61199129F31
:10691C000E60DDF84C80D4F800E03868D8F8003010
:10692C004FEA0E2219020796089207AB0CCB5718A8
:10693C0043F100083A18149F48F100033868169F79
:10694C004FEA104C0004CDF810C0039003A903C902
:10695C00121843EB0103159909960868D7F800C083
:10696C00010A00060691059005A903C9CDF828C0B7
:10697C001218206843EB010309AFC0CF921943EB07
:10698C000703864505D000204FF48071121843EBA5
:10699C00010362B699E80300801841EB03014FEA4A
:1069AC00501A49F280624AEAC16AC0F298024FEA70
:1069BC00511B002312EB0A0243EB0B03C5F89C207E
:1069CC00C5F8A03040F20421C2F200010B68294640
:1069DC00186803685B6A984749F28062C0F29802B3
:1069EC0000232BA82B922C9302F0F0FD40F29C2755
:1069FC00C2F200073B784F2B7FF6DBAE72B6DDF8A8
:106A0C0044800021C8F800102068129A139D4FEAA8
:106A1C00002CCDF860C0D2F800C02B6817911B0277
:106A2C0017AE60CEEF1846F10008149E17EB0C025F
:106A3C00D6F800C048F100034FEA1C484FEA0C4C52
:106A4C00CDF834C0CDF838800DAE60CE521943EB82
:106A5C000603159E169FD6F800C0D7F800E04FEA43
:106A6C001C254FEA0C6C1095CDF83CC00FAFC0CF75
:106A7C0019919219CDF868E0216843EB070319AE20
:106A8C0060CE521943EB0603884205D000264FF422
:106A9C008077921943EB070362B640F2E01799E84E
:106AAC000300C2F20007801841EB0301D7F804C0C1
:106ABC004A0943096245D7F800E043EAC16302D8AA
:106ACC008AD1734588D972B6DDF844800021C8F8A4
:106ADC0000102568129B139E2802289018683368B2
:106AEC0027914FEA032827AB0CCB12EB080643F196
:106AFC000007321847F10003149F29913868060CDF
:106B0C0000042390249623AFC0CF921943EB0703C4
:106B1C00159F169E3868D6F80080060A0006259048
:106B2C00269625AFC0CFCDF8A880921929A903C904
:106B3C0043EB0703121843EB010321688D4205D088
:106B4C0000254FF48076521943EB060362B699E8A0
:106B5C000300801841EB030143090FA7C0CF48097C
:106B6C0043EAC1631EEB06014CEB0702904204D8CA
:106B7C007FF41FAE8B427FF61CAE40F2F412002065
:106B8C000021C2F2000282E8030012E6C4040020D5
:106B9C00C80400209004002000A3E11100000000B4
:106BAC002DE9F0410546DFF81844206843683BB1F5
:106BBC005A681F2A08D8102A06D0DB68002BF7D198
:106BCC00FFF714F800231EE0103A5A60C268103A1E
:106BDC00C2605A6892B90668012E00F075819968F6
:106BEC00002900F0A581DF68002F00F0DD81CF6067
:106BFC00DA6891600268013A02605A6819681020DC
:106C0C008B18885004332A68DFF8B8831A60C8F8E8
:106C1C000030206843683BB15A68232A08D8142AEC
:106C2C0006D0DB68002BF7D1FEF7E0FF00271EE053
:106C3C00143A5A60C268143AC2605A6892B905682C
:106C4C00012D00F02D819968002900F04E81DE683D
:106C5C00002E00F08581CE60DA6891600268013AFE
:106C6C0002605A681B6814219F1899500437D64A41
:106C7C0000233A60D54A7F603B72FB60DFF850C35B
:106C8C001360D44A44F66D611370DCF80030C4F222
:106C9C00C61101FB03F303F540533933B3F1FF3F46
:106CAC0028BF01339AB201FB03F303F54053393388
:106CBC00B3F1FF3F28BF013398B201FB03F303F597
:106CCC0040533933B3F1FF3F28BF01339DB2002A43
:106CDC0059D0CCF80030C04B1D7198702D0A000AA9
:106CEC001A70120A5D71D8705A70206843683BB1F3
:106CFC005A68232A08D8142A06D0DB68002BF7D14F
:106D0C00FEF774FF00261EE0143A5A60C268143A6B
:106D1C00C2605A6892B90568012D00F0C680996866
:106D2C00002900F0D680DE68002E00F00D81CE60C8
:106D3C00DA6891600268013A02605A681B68142193
:106D4C009E189950043600233372F360A34B002134
:106D5C003360A34B0022766083E80600A14B83E8E6
:106D6C000600A14B83E80600206843683BB15A68D3
:106D7C00232A16D8142A14D0DB68002BF7D1FEF77F
:106D8C0035FF00252EE000287CD0CCF80030924B4B
:106D9C001D7198702D0A000A5D71D8701A705A70A6
:106DAC00A3E7143A5A60C268143AC2605A68A2B98E
:106DBC000568012D7ED09968002900F0AD80D3F8CC
:106DCC000CC0BCF1000F00F0E380C1F80CC0DA6815
:106DDC0091600268013A02605A681B6814219D1880
:106DEC009950043500232B72EB60804B6D602B6047
:106DFC00206843683BB15A68232A09D8142A07D063
:106E0C00DB68002BF7D10024FEF7F0FE234620E0D0
:106E1C00143A5A60C268143AC2605A689AB9046843
:106E2C00012C4CD0996800296BD0D3F80CC0BCF164
:106E3C00000F00F0A180C1F80CC0DA689160026804
:106E4C00013A02605A68196814208B180433885070
:106E5C001C4600221A72DA60654A5B601A6038467A
:106E6C00FFF74AFA3046FFF723FB2846FFF730FAC4
:106E7C00D8F8003021461868042203681B6898472C
:106E8C00BDE8F081002D3FF404AFCCF80030524B3C
:106E9C001D712D0A5D719870D8701870587024E7A8
:106EAC004260826002605A68DCE642608260026086
:106EBC005A6843E74260826002605A688DE742601C
:106ECC00826002605A68BEE74260826002605A6863
:106EDC0094E6002D3FF432AF4168C96841608A6086
:106EEC000268013A02605A6828E7002D3FF4BAAEF6
:106EFC004168C96841608A600268013A02605A6858
:106F0C00B0E6002C9FD04168C96841608A60026875
:106F1C00013A02605A6896E7002D3FF45EAF416873
:106F2C00C96841608A600268013A02605A6854E795
:106F3C00002E3FF463AE4168C96841608A60026804
:106F4C00013A02605A6859E6002D3FF4F7AE8168A9
:106F5C0089688160CA600268013A02605A68EDE68D
:106F6C00002D3FF47FAE816889688160CA60026839
:106F7C00013A02605A6875E6002C3FF464AF8168F0
:106F8C0089688160CA600268013A02605A685AE7EF
:106F9C00002D3FF422AF816889688160CA60026865
:106FAC00013A02605A6818E7002E3FF427AE816858
:106FBC0089688160CA600268013A02605A681DE6FD
:106FCC004400002004020020F0FF20008C0400206C
:106FDC00500000209C02002090040020E4FF2000C0
:106FEC00D8010020F4010020E0010020D8FF20008F
:106FFC00CCFF20002DE9F04772B6454A13681168A2
:10700C0013F0080F21EA0301116003D0414A116803
:10701C000131116013F0020F70D0DFF8FC80D8F84A
:10702C000030002B6AD048F610024FF0000CC4F26E
:10703C000802384F48F61404C2F800C0C4F2080421
:10704C003E68D4F800A048F61804C4F20804D4F83A
:10705C00009032024FEA09291CEB090442F10005A9
:10706C0014EB0A0148F62404C4F20804D4F800A076
:10707C0045F100024FEA0A44091948F62004C4F20B
:10708C0008044FEA1A45D4F800A042EB05024FEA77
:10709C000A64091948F61C044FEA1A25C4F20804BC
:1070AC0042EB0502D4F800A011EB0C01D7F800C09C
:1070BC0042EB0A02664505D000244FF4807509198D
:1070CC0042EB0502DFF854C09CE83000954215D81D
:1070DC0012D00022C8F8002048F60802C4F20802B8
:1070EC000821116062B698474EF20013CEF20003ED
:1070FC004FF080621A6009E08C42EAD94EF200131C
:10710C00CEF200034FF080621A6062B6BDE8F087E1
:10711C00D8040020C4040020B0040020A8040020DF
:10712C0040F2BC4300210022C2F2000383E80600B7
:10713C0040F2D043C2F2000383E8060040F2B443AD
:10714C00C2F2000383E8060048F60403C4F2080305
:10715C001A6848F60C0122F001021A6048F608027F
:10716C00C4F208020020C4F208011060086019681B
:10717C0047F2010021F0020119601968C0F22000E9
:10718C0041F00801196040F29851C2F20001C1F8B7
:10719C00C4004EF20411CEF2000102200860116806
:1071AC0041F0080111601A6842F001021A60704740
:1071BC002DE9F001D4B20C7246680023CB60496013
:1071CC000F1D002E22D0D0F8088098F80430A3426E
:1071DC0022D8D8F808308BB1454693F804C0A445A2
:1071EC0007D9CDB10136AF604660CB60BDE8F00188
:1071FC0070479A6812B11D461346EEE7C368013614
:10720C009F600023CB604660C760EFE70123CE6030
:10721C0043608760C760E9E70136C1F80C804660BF
:10722C008760E3E710B44468012C17D0836801F140
:10723C00040C9C4517D04BB19A682AB1944503D0E5
:10724C0013469268002AF9D1CA689A60C2689445BC
:10725C0008BFC360013C446010BC704700238360CE
:10726C00C3604360F8E7002CF6D0CB68013C836028
:10727C004460F1E7F0B5846806461746CDB29CB180
:10728C00002001E0A46874B12379AB42FAD12068E4
:10729C00314603682A46D3F800C03B46E047A46851
:1072AC000120002CF0D1F0BD2046FCE7014B03601F
:1072BC00704700BFB4FF20008368C9B27BB10020C7
:1072CC0001E09B6843B193F804C08C45F9D122B915
:1072DC0018689B68002BF6D17047013AF1E7184605
:1072EC00FAE700BF0F4A0120002110B492E8180001
:1072FC001B1844EB0104012B82E818000BD00A4A3E
:10730C00012092E8180000211B1844EB010482E8CC
:10731C00180010BC7047002CF1D1044A1460546062
:10732C009460ECE75C000020640000206C000020FE
:10733C00024B00B50360FEF75DFC00BDB4FF2000FE
:10734C0048F234638022C4F208031A6048F638030A
:10735C00E922C4F208031A60A24B46F2E0112DE9AF
:10736C00300893E8001800221BEB010B4CEB020CCD
:10737C0083E8001845F20003C4F20D03A0221A6042
:10738C00994C50221A602368C3F34A02511E23F40D
:10739C007E6389B223F01E0343EA41032360002A73
:1073AC0040F0A780914B00241A684FF4C95313EB9B
:1073BC000B03C3F307215174C3F3074144EB0C04D3
:1073CC009174190ED174C4F3072113741475230E20
:1073DC00517548F62C00C4F3074148F630049175FA
:1073EC00D375C4F20804C4F208002368C3F3400345
:1073FC001BB1216821F002012160016811F0300FEE
:10740C000CBF0021012119B1056825F0300505607C
:10741C000BB90029E9D048F63803EE21C4F2080371
:10742C001960D2F8C80048F27061C4F208010B6808
:10743C00002BFCD148F62804C4F208042060023862
:10744C0004D0D15C013383422160FAD372B648F682
:10745C000C03C4F208031A6802F008021A60644BA9
:10746C001A6802F008021A60624B332218CBBBEB8D
:10747C00030B6CEB040C48F61003C4F208031A60FF
:10748C0048F61403C4F20803C3F800B04FEA1B22F9
:10749C0048F6180342EA0C62C4F208031A604FEA79
:1074AC001B4248F6240342EA0C42C4F208031A6059
:1074BC004FEA1B6248F6200342EA0C22C4F208038E
:1074CC001A6048F61C03C4F208034B4AC3F800C008
:1074DC004A4B1A604A4B83E8001848F60803C4F27A
:1074EC0008031A6842F012021A6062B6BDE830084E
:1074FC00704748F6300248F62C03C4F20802C4F276
:10750C0008031168C1F3400119B1106820F00200A2
:10751C001060186810F0300F0CBF0020012018B15B
:10752C001D6825F030051D6009B90028E9D048F622
:10753C003803EE22C4F208031A6048F27062C4F2F7
:10754C0008021368002BFCD148F62801C4F208018C
:10755C0009220A60E25C0133072B0A60FAD172B689
:10756C0048F60C03C4F208031A6802F008021A6009
:10757C001F4B1A6802F008021A601E4B332218CBFC
:10758C00BBEB030B6CEB040C48F61003C4F20803C2
:10759C001A6048F61403C4F20803C3F800B04FEAAB
:1075AC001B2248F6180342EA0C62C4F208031A6064
:1075BC004FEA1B4248F6240342EA0C42C4F2080389
:1075CC001A604FEA1B6248F6200342EA0C22C4F20E
:1075DC0008031A6048F61C03C4F20803C3F800C081
:1075EC00084A75E78C0000207800002088000020F5
:1075FC00D8040020C8040020F9772000B004002033
:10760C00A80400204D73200045F20003C4F20D03C2
:10761C00A0221A6050221A606D4B01222DE9F0084D
:10762C001A7072B648F610020023C4F20802694DB3
:10763C0048F614001360C4F208002C68D0F800C09F
:10764C0048F61800C4F208000068220200021E1856
:10765C0048F62400C4F20800006842F100074FEA23
:10766C00004B16EB0C014FEA104C48F62000C4F20C
:10767C000800066847F1000248F61C0011EB0B01EC
:10768C004FEA066B42EB0C02C4F2080011EB0B0143
:10769C004FEA162C006842EB0C02C9182B6842EB1F
:1076AC0000029C4205D000234FF48074C91842EBB1
:1076BC00040262B6DFF820C19CE8180072B648F6E6
:1076CC000C00C4F2080005684BF2206B05F00805AD
:1076DC000560424813EB0B03056805F008050560CF
:1076EC009CE860004FF0000C44EB0C045B1B64EB5B
:1076FC0006045B1844EB020448F610023321C4F272
:10770C000802116048F61402C4F208021360190A48
:10771C0048F6180241EA0461C4F208021160190C1F
:10772C0048F6240241EA0441C4F208021160190E21
:10773C0048F6200241EA0421C4F20802116048F61E
:10774C001C02C4F2080214602549264A1160264A1C
:10775C0082E8180048F60803C4F208031A6842F0DD
:10776C0012021A6062B642F2A803C4F20D031A6840
:10777C0042F001021A6042F2AC03C4F20D031A6823
:10778C0042F001021A6042F2B003C4F20D031A680F
:10779C0042F001021A6048F22463C4F208031A682A
:1077AC0022F00C021A6048F28C63C4F208031A68C7
:1077BC0022F004021A601A6842F004021A6048F6B9
:1077CC003803C4F20803E3221A60BDE8F0087047DE
:1077DC0085000020C4040020C8040020D804002028
:1077EC006D7D2000B0040020A80400202DE9F0419C
:1077FC00DA4B186890F89830002B40F0BE8048F2B5
:10780C003463C4F2080380221A6048F63803C4F2C9
:10781C000803E9221A6045F20003C4F20D03A0220A
:10782C001A6048F6300C502248F62C011A60C4F24B
:10783C00080CC4F20801DCF80030C3F340032BB190
:10784C00DCF8002022F00202CCF800200A6812F0CA
:10785C00300F0CBF002201221AB10C6824F0300446
:10786C000C600BB9002AE6D072B648F61003002162
:10787C00C4F20803BA4E48F614021960C4F20802A6
:10788C00D6F800C0156848F61802C4F2080212684F
:10789C004FEA0C2412028F1844F1000848F6240415
:1078AC00C4F208047A19276848F100033C043D0C23
:1078BC00121948F62004C4F20804276848F61C0480
:1078CC00C4F2080443EB0503D4F800803C063D0ADF
:1078DC00121943EB05035218316843EB08038C452E
:1078EC0005D000244FF48075121943EB050362B6E2
:1078FC009C4C9D4D94E8C000B61847EB030785E8F7
:10790C00C0000378C3F3C103032B73D1837F052B12
:10791C0070D172B6DFF854C2DCF8041039B30B68BE
:10792C00984218BF0B4600F017815B68FBB11A68D0
:10793C009042FAD1DCF800608C4A012E00F0ED8008
:10794C00994200F0FC804A682AB1934203D0114658
:10795C005268002AF9D15A68DFF810E24A60DCF864
:10796C000820934200F0F380013ECCF80060FEF753
:10797C0041F962B695E8C0003CE072B6DFF8ECC1A4
:10798C0045F20003C4F20D03A022DCF804101A60C7
:10799C0050221A6039B30B68984218BF0B4600F09E
:1079AC00BA805B68FBB11A689042FAD1DCF80040EF
:1079BC006E4A012C00F0AA80994200F0B3804A680C
:1079CC002AB1934203D011465268002AF9D15A6861
:1079DC00DFF898E14A60DCF80820934200F0AA80B6
:1079EC00013CCCF80040FEF705F962B65E4B5D4CED
:1079FC0093E8C00048F63803C4F20803E2221A6088
:107A0C00EF221A6048F28C63C4F208031A6822F061
:107A1C0004021A6048F23463C4F208031A6822F0B4
:107A2C0004021A6042F2A803C4F20D031A6842F071
:107A3C0001021A6042F2AC03C4F20D031A6842F060
:107A4C0001021A6042F2B003C4F20D031A6842F04C
:107A5C0001021A6045F20003C4F20D03A0221A6061
:107A6C0050221A6072B648F60C03C4F208031A6866
:107A7C0002F008021A603E4B1A6802F008021A6003
:107A8C0040F2C04394E80600C0F2470300245B1A9E
:107A9C0064EB02049B1948F6100244EB0704C4F291
:107AAC0008023321116048F61402C4F20802136074
:107ABC00190A48F6180241EA0461C4F2080211607E
:107ACC00190C48F6240241EA0441C4F20802116080
:107ADC00190E48F6200241EA0421C4F20802116092
:107AEC0048F61C02C4F2080214602249224A1160B2
:107AFC00224A82E8180048F60803C4F208031A6800
:107B0C0042F012021A6062B6BDE8F08100235360A5
:107B1C009360136067E70B4648E70023536093605C
:107B2C00136024E7002C3FF45EAF4B68013C5360BC
:107B3C00146058E7CEF80810DEF8004050E7002E2D
:107B4C003FF415AF4B68013E536016600FE7CEF85B
:107B5C000810DEF8006007E70B46EBE68800002013
:107B6C00C4040020C80400208C0000206C000020FD
:107B7C00D804002015762000B0040020A8040020B2
:107B8C00F0B58AB000293CD0012908BF046835D073
:107B9C0011F0010F3BD101394B08056833D0012B93
:107BAC0005FB05F428D013F0010F52D1013B5A0804
:107BBC007DD0012A04FB04F61CD012F0010F7AD1FF
:107BCC00013A520800F0A580012A06FB06F70FD0F7
:107BDC0012F0010F40F0AB8007FB07F30AA8013A43
:107BEC0040F8283D51086846FFF7CAFF00FB07F72D
:107BFC0007FB06F606FB04F405FB04F420460AB06A
:107C0C00F0BD0124FAE7012405FB04F4F6E74B0868
:107C1C000468F6D0012B04FB04F4EFD013F0010F31
:107C2C0031D1013B5A082AD0012A04FB04F5E3D0D8
:107C3C0012F0010F55D105FB05F30AA8013A40F8E3
:107C4C00103D5108FFF79CFF00FB05F505FB04F404
:107C5C00D4E78B08012B04FB04F4CDD013F0010FF7
:107C6C004BD104FB04F20AA8013B40F8182D59082B
:107C7C00FFF786FF00FB04F405FB04F4BEE70125C7
:107C8C0005FB04F4BAE78B08012B04FB04F4B5D014
:107C9C0013F0010F41D104FB04F20AA8013B40F898
:107CAC00082D5908FFF76CFF00FB04F4A6E701262A
:107CBC0006FB04F4A0E79B08012B06FB06F699D003
:107CCC0013F0010F3FD106FB06F20AA8013B40F866
:107CDC00202D5908FFF754FF00FB06F606FB04F4B1
:107CEC008AE705FB05F50AA840F80C5D9908FFF733
:107CFC0047FF054605FB04F480E704FB04F40AA8DF
:107D0C0040F8144DC908FFF73BFF044605FB04F48B
:107D1C0074E7012707FB06F66CE704FB04F40AA8DA
:107D2C0040F8044DC908FFF72BFF044666E707FB34
:107D3C0007F70AA840F8247D5108FFF721FF0746F2
:107D4C0007FB06F656E706FB06F60AA840F81C6D7C
:107D5C005908FFF715FF064606FB04F44CE700BF75
:107D6C0040F2B0410023C2F2000148F608020B6059
:107D7C00C4F208020821116045F20002C4F20D029F
:107D8C00A02111605021116048F63802C4F208029B
:107D9C00E2211160EF21116048F28C62C4F20802FA
:107DAC0011682DE9F04F21F00401116048F23462A2
:107DBC00C4F208021168DFF8B44521F00401116027
:107DCC0042F2A802C4F20D02116885B041F0010123
:107DDC00116042F2AC02C4F20D021168236041F052
:107DEC000101116042F2B002C4F20D02116841F0BF
:107DFC0001011160DFF878251370DFF87825137016
:107E0C0072B648F61002C4F20802DFF86CC548F6E8
:107E1C0014051360C4F20805DCF800002E6848F65F
:107E2C001805C4F208052D6802022D025F1948F6E8
:107E3C002405C4F2080542F10008B9192F6848F16D
:107E4C0000023D043E0C491948F62005C4F2080511
:107E5C00D5F8008048F61C05C4F208052F684FEAD7
:107E6C00086542EB060249194FEA182642EB060256
:107E7C00C918DCF8003042EB0702984205D0002507
:107E8C004FF48076491942EB060262B6DFF8ECB487
:107E9C009BE860006D1846EB02060195029602996C
:107EAC004FEA551A4AEAC66A4E0972B6DFF8D07420
:107EBC007B68002B42D0B8464FF0000918685D680B
:107ECC00827890F803C0C17942EA0C2C02794CEA12
:107EDC00024C42794CEA026C827942EA0122017A24
:107EEC0042EA0142417A42EA0162B24200F2DA808D
:107EFC0000F0D580D0F89C200092D0F8A020B2429F
:107F0C0040F2F1802368A3B193F898C0BCF1000F44
:107F1C0010D190F898C0BCF1000F0AD1D3F8B4C0BE
:107F2C00D0F8B410614504D3D3F8A0C0944540F206
:107F3C000C8120602B46002DC0D1236862B6002B2B
:107F4C0000F0BC8193F89800D3F88C20D3F8A410DF
:107F5C00002800F0F7804FF0000C1205120D4CEACF
:107F6C000232DFF8200442F4BB7242EA0162026082
:107F7C000022027242F2A802C4F20D02090A416008
:107F8C00116841F00101116042F2AC02C4F20D0221
:107F9C00116841F00101116042F2B002C4F20D020D
:107FAC00116841F00101116048F22462C4F2080228
:107FBC00116841F00C01116048F63802EE21C4F250
:107FCC000802116048F27061C4F208010A68002AC4
:107FDC00FCD148F6280CC4F2080C0921CCF800108E
:107FEC00815C0132072ACCF80010F9D145F200026D
:107FFC00C4F20D02A021116050211160D3F8B4100D
:10800C0003F1900660CE4A1CC3F8B420002A00F09D
:10801C000B81012A00F03C8112F0010F40F0178116
:10802C00042305A840F8083D4908FFF7A9FDD649E7
:10803C0044F66D62D1F800C0C4F2C61202FB0CF219
:10804C0002F540523932B2F1FF3F28BF01324000F5
:10805C00B2FBF0FC00FB1C2044F6A05CA0FB0C78EF
:10806C00236893F89800002878D00A602946324695
:10807C00C91B62EB08024AB944F69F50814205D9EC
:10808C004BF22070C0F24600814278D9D3F8B4206C
:10809C0044F6A051013AC3F8B42000226FE0D44555
:1080AC007FF628AFD7F800C0BCF1010F35D0D8F857
:1080BC00042093423AD042B1516829B18B4203D08B
:1080CC000A4649680029F9D15560B9688B4204BF4A
:1080DC00D8F800C0C8F808200CF1FF3CC7F800C065
:1080EC00FDF788FD26E703D1009951453FF60AAF0D
:1080FC00D7F800C0BCF1010F0FD0D8F80420934280
:10810C0014D0002AE1D051680029DDD08B42DBD09D
:10811C000A4649680029F9D1D6E7C8F80490C8F88E
:10812C000890C8F80090FDF765FD03E7BCF1000F5F
:10813C00D6D00CF1FF3CC8F80450C8F800C0FDF7CD
:10814C0059FDF7E693F899C007E77FF4F3AED3F83F
:10815C009C30009A93427FF6EDAEEAE60A607919FC
:10816C0048EB060222B94EF6DF00814200F2F580A0
:10817C00D3F8B420013AC3F8B42084A206CA72B66C
:10818C0048F60C03C4F20803186800F008001860E5
:10819C00804B186800F0080018609BE8600001AC88
:1081AC0018CC5B1B64EB06045B1844EB020448F62A
:1081BC001002C4F208023321116048F61402C4F212
:1081CC0008021360190A48F6180241EA0461C4F265
:1081DC0008021160190C48F6240241EA0441C4F269
:1081EC0008021160190E48F62002C4F2080241EA96
:1081FC000421116048F61C02C4F208021460664A9D
:10820C0040F2B045C2F200052A60644A82E81800C8
:10821C0048F60803C4F208031A6842F012021A6006
:10822C0062B605B0BDE8F08F574944F66D62086838
:10823C00C4F2C61202FB00F202F540523932B2F11E
:10824C00FF3F28BF013200274FF0000809E7042345
:10825C0005A8510840F8043DFFF792FC4A4944F642
:10826C006D62D1F800C0C4F2C61202FB0CF202F52A
:10827C0040523932B2F1FF3F28BF0132B2FBF0FC61
:10828C0000FB1C2044F6A05C2368A0FB0C78E8E6FD
:10829C003D4944F66D620868C4F2C61202FB00F256
:1082AC0002F540523932B2F1FF3F28BF013202F0E1
:1082BC00010744F6A050A7FB0078D2E645F2000374
:1082CC00C4F20D03A0221A6050221A6072B648F64E
:1082DC000C03C4F208031A68002402F008021A60A6
:1082EC002C4B1A6802F008021A6040F2C043C0F22C
:1082FC0047039BE806005B1A64EB020401AA06CA5A
:10830C005B1844EB020448F61002C4F20802332155
:10831C00116048F61402C4F208021360190A48F6F8
:10832C00180241EA0461C4F208021160190C48F603
:10833C00240241EA0441C4F208021160190E48F605
:10834C002002C4F2080241EA0421116048F61C0222
:10835C00C4F208021460124A52E74BF22070C0F2C9
:10836C00460081427FF60BAF02E700BF8800002079
:10837C008400002085000020C4040020C8040020D4
:10838C006C000020780000205000002020B7460030
:10839C0000000000D8040020BD872000A8040020A5
:1083AC0015762000B84BE222036048F63803C4F27D
:1083BC0008031A60EF221A6048F28C622DE9F04132
:1083CC00C4F208020026166048F29062C4F2080259
:1083DC00166048F29462C4F20802166048F25862C1
:1083EC00044646608660C660C4F20802F82010603D
:1083FC0048F2E872C4F208020920106048F2C86220
:10840C00C4F208021520106048F60402C4F20802F7
:10841C000B20106048F2B862C4F208020120106010
:10842C00EE221A60ED221A6048F25463C4F208037B
:10843C001A68964F22F001021A6048F28C53C4F26B
:10844C0008031E6048F25063FF22C4F208031A604E
:10845C0048F24063C4F208031A6048F29473C4F201
:10846C0008031A6048F63403C4F208031E6048F689
:10847C003003C4F208031E6048F62C03C4F2080350
:10848C001E60834B21612360616126626662A66275
:10849C00E66281B0266335466663A663E6632664AE
:1084AC00C4F89460C4F898604FF0E00838684368EA
:1084BC003BB15A68EF2A08D8E02A06D0DB68002BBB
:1084CC00F7D1FDF793FB002323E0E03A5A60C26832
:1084DC00E03AC2605A68BAB9D0F800C0BCF1010FDA
:1084EC0000F0B2809968002900F0B380D3F80CE05A
:1084FC00BEF1000F00F0BA80C1F80CE0DA689160B0
:10850C000268013A02605A6819688B1841F80280B7
:10851C000433A2190436502E83F8BC50C3F8C05053
:10852C00C3F8C850C3F8CC30C3F8D050C3F8D4301B
:10853C00C3F8D8505364B9D140F22C03C0F22803CD
:10854C001A7840F22D03C0F22803197840F22E035A
:10855C0051402176C0F228031A7840F22F03C0F262
:10856C0028031B78204683EA020248F2D053C4F257
:10857C0008036276196048F2D453C4F208031A60F7
:10858C0048F20463C4F208031A6822F020021A604D
:10859C0048F22463C4F208031A6842F040021A60DD
:1085AC0048F20063C4F208031A6822F001021A6050
:1085BC0048F20863C4F208031A6822F001021A6038
:1085CC0048F22863C4F208031A6822F001021A6008
:1085DC001A23E36148F23C635622C4F208031A6082
:1085EC0006F060F848F63403C4F208031D6048F640
:1085FC003003C4F208031D6048F62C03C4F20803D0
:10860C001D6048F28C630422C4F208031A6048F21D
:10861C009063C4F208031D6048F294630C22C4F208
:10862C0008031A6045F20003C4F20D031D601A68BA
:10863C0001A842F0080240F8045D1A606846FFF792
:10864C008FFB01B0BDE8F0814260826002605A6825
:10865C005AE7BCF1000F3FF457AF4168C96841605D
:10866C008A600268013A02605A684DE7BCF1000F5B
:10867C003FF44AAF816889688160CA600268013A38
:10868C0002605A6840E700BF70FF200044000020E1
:10869C003400210042F2A803C4F20D031A6870B52D
:1086AC0042F001021A6042F2AC03C4F20D031A68E4
:1086BC00044642F001021A6042F2B003C4F20D0308
:1086CC001A6842F001021A60FEF72AFD344B186852
:1086DC0041680B4600295FD04A68AF2A07D8A02A08
:1086EC0005D0DB68002B57D05A68AF2AF7D9A03ACF
:1086FC005A60C268A03AC2605A6872B90568012D06
:10870C0032D09E68002E34D0D96800293AD0F1605E
:10871C00DA68013D056096605A681B68A0219D18B7
:10872C009950043521462846FFF73CFE1D4B04EBBF
:10873C00440403EB840243F824502A21013443F807
:10874C0024102B239360184B184A43F82120C3F8AC
:10875C00AC204EF20013CEF200034FF080621A6090
:10876C004FF000621A6070BD0260426082605A680D
:10877C00D3E7002DD1D0C968013D056041608A6006
:10878C005A68CAE7002DC8D08168013D8968056028
:10879C008160CA605A68C0E7FDF728FA0025C1E776
:1087AC0044000020DC04002098050020A9F02000E3
:1087BC002DE9F00F45F20003C4F20D03A020186060
:1087CC005020186048F63803C4F20803E320186000
:1087DC008FB072B648F610000023C4F20800036094
:1087EC00DFF8F4A648F61400C4F20800DAF80040EA
:1087FC00D0F8009048F61800C4F2080000684FEA60
:10880C00042C0002191848F62400C4F20800006871
:10881C004CF1000211EB090B42F1000CCDF808B041
:10882C00CDF80CC04FEA004B4FEA104C02A903C91B
:10883C0010EB0B0041EB0C010290039102AA06CA4B
:10884C0048F62000C4F20800006848F61C0CC4F27C
:10885C00080C4FEA006BDCF8009011EB0B014FEAAF
:10886C00102C42EB0C02C918DAF8003042EB09026A
:10887C009C420291039208D008460023C0184FF482
:10888C00807442EB04010290039162B640F2C8423C
:10889C0044F6A053C2F20002002406CAC91842EBE7
:1088AC00040248F2646002AC18CCC91842EB040212
:1088BC00C4F20800069107929DE80600036813F0C5
:1088CC00010FFBD048F24C63C4F20803186848F659
:1088DC001409C0F300100E9048F610044846C4F278
:1088EC000804C4F2080048F61C098DE80600089438
:1088FC00099048F6180148F6240248F62004484628
:10890C008DE86000C4F20801C4F20802C4F2080445
:10891C00C4F208000A910B920C940D9072B608994F
:10892C000022099B0A9C0A60DAF80000D3F800C008
:10893C00236800211B020202CD1842F1000615EB40
:10894C000C0346F100040B9E0D9FD6F800C0049159
:10895C004FEA1C494FEA0C4CCDF80490CDF800C0FE
:10896C009DE860005B1944EB06040C9E8946D6F822
:10897C0000C0D7F800B04FEA1C254FEA0C6C13EB83
:10898C000C03CDF814B0DAF800C044EB050404AEC7
:10899C0060CE5B1944EB0604604505D000254FF40E
:1089AC0080765B1944EB060462B640F2C846C2F20C
:1089BC00000696E8001807981BEB030B4CEB040C15
:1089CC00844540F217810E9E002E00F01C8172B679
:1089DC0048F610030022C4F2080348F614011A608A
:1089EC00C4F20801DAF800C00D6848F61801C4F2A8
:1089FC0008010F684FEA0C243F02D01944F1000122
:108A0C00431941F1000448F62401C4F208010D6831
:108A1C002804290C1B1844EB010448F62001C4F26D
:108A2C0008010D6848F61C01C4F2080128060F68FD
:108A3C00290A1B1844EB01049B18DAF8002044EBBC
:108A4C000704944505D000214FF480725B1844EB69
:108A5C00020462B640F2C847C2F2000797E806006B
:108A6C00C91848F23463C4F208034FF0800CC3F801
:108A7C0000C048F63803C4F208034FF0EA0CC3F800
:108A8C0000C048F24C63C4F208031B68DFF84C04C6
:108A9C0042EB040213F0080380E8060000F0AB81FF
:108AAC0046F2E0140025641845EB020580E830001E
:108ABC00DFF82CC448F63000DCF8003048F62C0106
:108ACC00C3F34A02013A23F47E6392B223F01E03ED
:108ADC0043EA4203CCF8003045F20003C4F20D0324
:108AEC00A0221A6050221A60C4F20800C4F20801D5
:108AFC002746A8460368C3F340031BB1026822F063
:108B0C00020202600A6812F0300F0CBF0022012230
:108B1C001AB10D6825F030050D600BB9002AE9D0AB
:108B2C0048F63803EE22C4F208031A6048F2706269
:108B3C003C464546C4F208021368002BFCD148F6AB
:108B4C002801C4F2080109220A601CF80320013331
:108B5C00072B0A60F9D172B648F60C03C4F208036D
:108B6C001A6840F2C84902F008021A60DD4BC2F2E2
:108B7C0000091A6802F008021A6099E80C00A41A9D
:108B8C0065EB030548F610033322C4F208031A60A0
:108B9C0048F61403C4F208031C60220A48F61803B2
:108BAC0042EA0562C4F208031A60220C48F6240358
:108BBC0042EA0542C4F208031A60220E48F620036A
:108BCC0042EA0522C4F208031A6048F61C03C4F2F8
:108BDC0008031D60C44AC54B1A60C54B83E83000BE
:108BEC0048F60803C4F208031A6842F012021A602D
:108BFC0062B6F2E003D1069B9B453FF6E4AE0E9CB9
:108C0C00002C40F0EE8045F20003C4F20D03A022CC
:108C1C001A6050221A60B74B01221A7072B648F6CD
:108C2C0010020023C4F2080248F6140C1360C4F2BC
:108C3C00080CDAF80000DCF8007048F6180CC4F2E6
:108C4C00080CDCF800C002024FEA0C2C13EB0C04ED
:108C5C0048F6240CC4F2080CDCF800C042F1000504
:108C6C00E11945F100024FEA0C444FEA1C4548F665
:108C7C00200CC4F2080CDCF80070091942EB050258
:108C8C0048F61C0C3C063D0AC4F2080C0919DCF829
:108C9C0000C042EB0502C918DAF8003042EB0C02B6
:108CAC00984205D000234FF48074C91842EB04029B
:108CBC0062B640F2C84CC2F2000C9CE8180072B6C6
:108CCC0048F60C00C4F20800D0F800C00CF0080CF8
:108CDC00C0F800C08348D0F800C00CF0080CC0F8F5
:108CEC0000C040F2C840C2F2000090E860004BF2B5
:108CFC002067DB194FF0000844EB08045B1B64EBA6
:108D0C0006045B1844EB020448F610023321C4F24B
:108D1C000802116048F61402C4F208021360190A22
:108D2C0048F6180241EA0461C4F208021160190CF9
:108D3C0048F6240241EA0441C4F208021160190EFB
:108D4C0048F6200241EA0421C4F20802116048F6F8
:108D5C001C02C4F2080214606749644A1160644A38
:108D6C0082E8180048F60803C4F208031A6842F0B7
:108D7C0012021A6062B642F2A803C4F20D031A681A
:108D8C0042F001021A6042F2AC03C4F20D031A68FD
:108D9C0042F001021A6042F2B003C4F20D031A68E9
:108DAC0042F001021A6048F22463C4F208031A6804
:108DBC0022F00C021A6048F28C63C4F208031A68A1
:108DCC0022F004021A601A6842F004021A6048F693
:108DDC003803C4F20803E3221A600FB0BDE8F00FA9
:108DEC00704748F24C65C4F208052B6813F0100F5D
:108DFC007FF494AD07E745F20002C4F20D02A02106
:108E0C001160502111603B4A0121117072B648F675
:108E1C001002C4F2080248F6140C1360C4F2080CD9
:108E2C00DAF80000DCF8007048F6180CC4F2080CF4
:108E3C00DCF800C002024FEA0C2C13EB0C0448F6D1
:108E4C00240CC4F2080CDCF800C042F10005E11956
:108E5C0045F100024FEA0C444FEA1C4548F6200C41
:108E6C00C4F2080CDCF80070091942EB050248F654
:108E7C001C0C3C063D0AC4F2080C0919DCF800C0B5
:108E8C0042EB0502C918DAF8003042EB0C029842AA
:108E9C0005D000234FF48074C91842EB040262B66B
:108EAC0040F2C84BC2F2000B9BE8180072B648F6B1
:108EBC000C00C4F20800D0F800C00CF0080CC0F88C
:108ECC0000C00848D0F800C00CF0080CC0F800C076
:108EDC009BE860000BE700BFC40400208C0000205E
:108EEC0078000020D80400204D732000B00400202E
:108EFC00A8040020850000206D7D200040F6CC7376
:108F0C00C2F200034DF804BD93E806004FF0010BCC
:108F1C0011EB0B014FF0000C42EB0C0283E8060046
:108F2C005DF804BB704700BF49F21803C4F2080394
:108F3C001A6840F6A073C2F20003196841EA0202F3
:108F4C001A6049F20803C4F208031A6840F6A473C5
:108F5C00C2F20003196841EA02021A6049F21003D6
:108F6C00C4F208031A6840F6A873C2F20003196829
:108F7C0041EA02021A60704748F60C0340F2D842EC
:108F8C00C4F20803C2F200021968106840EA010139
:108F9C00116000221A604EF28013CEF200034FF0E3
:108FAC0080621A604EF28023CEF200031A60704782
:108FBC004EF28413CEF2000302221A604EF2842386
:108FCC00CEF200031A6070470368232B0DD0252BBB
:108FDC0013D0272B19D0332B01BF43F22403C4F237
:108FEC0003034FF0FF321A60704740F22403C4F2BF
:108FFC0003034FF0FF321A60F6E741F22403C4F288
:10900C0003034FF0FF321A60EEE742F22403C4F27E
:10901C0003034FF0FF321A60E6E700BF72B64EF260
:10902C0080134FF0FF32CEF200031A604EF284131D
:10903C00CEF200031A601B491B4A0023CA500433AA
:10904C00B3F5807FFAD10023DFF860C018464CF8E6
:10905C0003000433B3F5807F144AF8D1144BC2F8E3
:10906C008C30C2F89430C2F89C30C2F8CC30114B22
:10907C00C2F8A830104BC2F8C430104BC2F8F03014
:10908C000F4B136453649364D3640E4B0822CB6070
:10909C000D4BC1F8CC304EF20413CEF200031A6023
:1090AC00704700BF9805002009F4200094000020B0
:1090BC00D58F2000BD8F2000858F2000358F20009C
:1090CC00BDF220000DF42000098F200010B5314BAB
:1090DC00186841680B46002957D04A68272A07D8D8
:1090EC00182A05D0DB68002B4FD05A68272AF7D9ED
:1090FC00183A5A60C268183AC2605A6892B9D0F8E5
:10910C0000C0BCF1010F1FD09C68002C24D0D96882
:10911C0000292DD0E160DA680CF1FF3CC0F800C0EA
:10912C0094605A68196818208B18885004331A49AF
:10913C000122196119491A605A601A72486840B1C3
:10914C00DA60174A136010BD0260426082605A6890
:10915C00E8E74B605A68F3E7BCF1000FE2D0C9684E
:10916C000CF1FF3CC0F800C041608A605A68D9E736
:10917C00BCF1000FD6D081680CF1FF3C8968C0F8B7
:10918C0000C08160CA605A68CCE7FCF72FFD002351
:10919C00CDE700BF44000020C5912000980F0020AF
:1091AC009801002040F29C13C2F2000300221A60C6
:1091BC005A609A60704700BFF0B572B63F4B1A68A0
:1091CC0001321A603E4A13682BB151684868013865
:1091DC000028486007DD002362B61BB1986803685D
:1091EC009B689847F0BD012B3CD0CB6800205360A6
:1091FC0098601368013B1360CB6823B1D3F804C0AB
:10920C004868604458600B68D868B0F1FF3F03D0E1
:10921C000138D8600028DFD0D3F810C02848C1F836
:10922C0004C01668002E35D047687C68A445B8BFCA
:10923C003D4609DBF868F8B1C4EB0C0CC1F804C06E
:10924C0044680546A44514DAA868002829D0CCEB5C
:10925C00040C0136C5F804C0C160A960CD608860FB
:10926C001660B9E70023536093601368013B1360E9
:10927C00C2E7C0680028DFD19068C4EB0C0CC16059
:10928C008860C1F804C00020C86091601168013189
:10929C001160A1E701228E60CE60026041608160A6
:1092AC009AE7CCEB040CC5F804C08860CF60B960B9
:1092BC0051601168013111608EE700BF94010020EC
:1092CC009C01002030B472B6DFF880C0DCF80410CA
:1092DC00E9B10B68984218BF0B462BD0DB68B3B1D1
:1092EC001A689042FAD1DCF80000184C012811D011
:1092FC009D68002D20D0DA6892B1EA60DA680138F6
:10930C00956020601AB151685B68CB18536062B6E7
:10931C0030BC704700226260A2602260DA68F1E71C
:10932C000028F4D0A168013889682060A160CA6067
:10933C00DA68E7E70B46D6E708B9DA68E2E7CA6805
:10934C000138626020609560DA68DBE79C010020E0
:10935C002DE9F0418C46044672B6544D6868F0B164
:10936C0003689C4218BF034600F08980DB68B3B1E8
:10937C001A689442FAD12E684C49012E6FD09F681E
:10938C00002F7ED0DA68002A6FD0FA60DA68013ECE
:10939C0097600E601AB151685B68CB1853602E68E9
:1093AC009CE80C0084E80C00414B4FF47A721B686B
:1093BC009CE880015B68B2FBF3F244F24023C0F2FC
:1093CC000F03B3FBF2F212464FF0000359084FEAB9
:1093DC003200C01941EB080106F0E4FA206104F1F7
:1093EC001400002E33D06F68A36979688B42B8BF24
:1093FC00BC4618DBFA6842B15B1A4360516894466C
:10940C008B4220DAA3698B420DDB5B1AA361AB683C
:10941C00D860E361002323622B68A86001332B60C2
:10942C0062B6BDE8F081DCF80820002A33D0CB1AF4
:10943C000136CCF80430D060CCF80800C4F820C059
:10944C00E2612E60ECE7D268002AD5D1DAE72B680E
:10945C00E661013326622B606860A860E0E70022B9
:10946C004A608A600A60DA6894E7002E98D08868AF
:10947C00013E80680E608860C260DA688AE7034645
:10948C0079E70EB9DA6885E7C268013E4A600E607A
:10949C009760DA687EE7CB1ACCF804302B68E2616F
:1094AC0001332762B8602B606860B9E79C0100202B
:1094BC0098010020C360434BF0B591E8C0001B68D5
:1094CC0004465B68A26015464FF47A72B2FBF3F265
:1094DC0044F24023C0F20F0380E8C000B3FBF2F269
:1094EC0012464FF000035F084FEA320603C93618E4
:1094FC0047EB01073046394606F054FA0023206149
:10950C006461A061E361236272B628B962B62B680C
:10951C0028469B689847F0BDDFF8ACC004F11401F5
:10952C00DCF80060002E33D0DCF804707A689042CE
:10953C00B8BF3D461BDBFB6843B1801A48605A68D4
:10954C001D46904220DAA069824210DCDCF808301B
:10955C00821AD960A261E36100232362DCF8003037
:10956C00CCF808100133CCF8003062B6D3E7AB6806
:10957C00CBB1121A01366A60D960A9602562E36129
:10958C00CCF8006062B6C6E7DB68002BD5D1DAE711
:10959C000123E6612662CCF80030CCF80410CCF83C
:1095AC00081062B6B7E7121A6A60E361DCF80030A3
:1095BC0027620133B960CCF80030CCF8041062B6E5
:1095CC00A9E700BF980100209C01002070B58FB066
:1095DC0009AC06460021204600F01CF80B4B314626
:1095EC000DAA0D93684601230E94FFF763FF2046E6
:1095FC0000F02AF86846FFF765FE054B20466D46DD
:10960C000D9300F035F80FB070BD00BFE4FE2000E4
:10961C00F8FE20000023036043608360C160704744
:10962C0000B572B600F10C0151E8002F02F10102F5
:10963C0041E80023002BF7D1002A01DD62B600BD02
:10964C0000F05AFCFBE700BF00B572B600F10C014C
:10965C0051E8002FA2F1010241E80023002BF7D1C1
:10966C00002A01DB62B600BD00F06CF8FBE700BF1E
:10967C0000B572B600F0F4FA00BD00BFF0B4066895
:10968C00002E23D047680D1D7B684A683C1D9A420A
:10969C002CDB7B6A002B29D0D3F804C02A681C1D54
:1096AC0094450EDDD4F800C04A68944515DC8368F7
:1096BC00013659620B6200234B6206608160F0BC7C
:1096CC0070475A6A002AEDD01346E5E701230E6273
:1096DC004E62036041608160F1E71A6A42B1013663
:1096EC00516219624B620A620660E8E73B46D9E7B1
:1096FC0001360A624F62396206604160DFE700BFE3
:10970C0040F2AC120023C2F20002D360136053602B
:10971C00936040F2C012C2F20002136053607047B3
:10972C00884200B509D003694BB100230B6150F896
:10973C000C3FCB68C96806F00BF962B600BD01237B
:10974C000361F2E75C492DE9F045CB68CB681A68F8
:10975C00CB68CB6802F11C069E4263D00B68012BD0
:10976C0000F08380D46B002C72D0156C002D00F0AF
:10977C0081806562D2F840C0013BCCF820400B6080
:10978C00D0F8008003231361B8F1000F25D0D0F876
:10979C0004A002F12007DAF80430D2F820C00AF154
:1097AC0004059C452EDA5346D5F800E0D2F820C0CB
:1097BC00E6451BDC836808F101085E62D363002375
:1097CC001364C0F800808660CB685061196810463D
:1097DC000122FFF7A5FFBDE8F0850123C2F83C800C
:1097EC00C2F84080036046608660EDE71C6A002C7E
:1097FC0056D008F1010866621E621364D463C0F887
:10980C000080E1E7DAF8243023B9CCE75C6A002C5D
:10981C00CAD02346D3F804E0D7F800C01D1DE64596
:10982C00F4DDC1E70B687BB1012B30D0D1F804C05B
:10983C000024DCF824E0013BC1F804E00B60CEF816
:10984C002040C1F80CC09BE79C46C1F80CC097E7C0
:10985C00002B95D0D1F804C0013BDCF824C00B6080
:10986C00C1F804C0CCF820408AE700234B608B6021
:10987C000B6085E7002B83D0D1F808C0013BDCF8E6
:10988C0020C00B60C1F808C0CCF8245078E7D1F8A0
:10989C0004C000234B608B600B60C1F80CC06FE7F9
:1098AC0008F10108D463C2F840A0CAF82060C0F8DF
:1098BC000080466088E700BFAC0100202DE9F04530
:1098CC00044672B6614B6248196804F11C070131F9
:1098DC001960C368C368002B64D0D0F80080B8F15D
:1098EC00000F1FD0D0F804A004F12006DAF8041001
:1098FC00236A0AF10405994256DD5346D5F800C097
:10990C00216A8C4569DC83685F62E363002323640E
:10991C0003688760013303604E4B18687AB9A26004
:10992C00BDE8F0850123C4F83C80C4F84080036096
:10993C0047608760474B18680AB9F0E7013212F0AC
:10994C00030FFBD1456804320F2A98BF10222B4617
:10995C00002D76D0696802F1100C8C4507D9914224
:10996C0005D0DB68002B6CD059686145F7D3891A98
:10997C005960C168891AC160596871B90668012EAD
:10998C0036D09F68002F42D0DD68002D4BD0FD6093
:10999C00D968013E06608F6059681B6858185A5088
:1099AC00021DBCE7C760C5E7DAF82430002BA4D051
:1099BC00D3F804C031681D1D8C459FDC596A002901
:1099CC009CD00B46D3F804C031681D1D8C45F5DDC9
:1099DC00D5F800C0216A8C4595DD196A69B108F18A
:1099EC0001084F621F622364E163C0F80080A1E7A5
:1099FC000160416081605968CFE70368E16301331E
:109A0C00C4F840A0CAF820700360476092E7002EAB
:109A1C00C3D0D5F80CC0013E0660C0F804C0CCF829
:109A2C0008105968B9E7002EB7D0D0F808C0013E2D
:109A3C00DCF808C00660C0F808C0CCF80C105968F7
:109A4C00ABE7FCF7D3F8002269E700BFBC010020AC
:109A5C00AC01002044000020F0B572B63D4BDA6832
:109A6C00DA681068DA681A68002A3DD059686FF015
:109A7C00004CD1F804E0E64536D0012AD3F80CE0CE
:109A8C0055D0D1F824C00024013AC3F804C01A60A0
:109A9C00CCF820401E682F4AD960002E2AD0576877
:109AAC000EF104057A68DEF804103C1D914243DB8C
:109ABC007A6A002A40D0D2F804C02968141D8C455B
:109ACC0023DDD4F800C0DEF804108C4522DC9A6843
